:020000040000FA
:10000000803102288731DB2FF4007408F200720877
:10001000F3000E280130F2007208F407740886001D
:10002000043087000108031D162817280A287308C2
:100030007402F000F101F01BF103080047084201CF
:10004000B800400146084201B7004001450842019E
:10005000B600400144084201B50034084001DB000D
:10006000420133084001DA00420132084001D90060
:10007000420131084001D800420138084001DF0048
:10008000420137084001DE00420136084001DD0030
:10009000420135084001DC00B531182580314001AE
:1000A0005B084301B30040015A084301B20040011C
:1000B00059084301B100400158084301B0005308FA
:1000C0004001CB00430152084001CA0043015108DE
:1000D0004001C900430150084001C80043014308E2
:1000E0004001C700430142084001C60043014108E6
:1000F0004001C500430140084001C400BD31C8258E
:10010000803140014708DF004608DE004508DD0079
:100110004408DC00420164084001DB00420163083E
:100120004001DA00420162084001D9004201610841
:100130004001D800B5311825803140015B084301EA
:10014000BF0040015A084301BE0040015908430165
:10015000BD00400158084301BC003F084001C700F2
:1001600043013E084001C60043013D084001C5006F
:1001700043013C084001C400430133084001CB0067
:10018000430132084001CA00430131084001C9005F
:10019000430130084001C800BD31C825803140010D
:1001A00047084301B300400146084301B200400143
:1001B00045084301B100400144084301B000530821
:1001C0004001DB00430152084001DA0043015108BD
:1001D0004001D900430150084001D80043015308B1
:1001E0004001DF00430152084001DE004301510895
:1001F0004001DD00430150084001DC00B531182505
:10020000803140015B084401A30040015A084401C9
:10021000A200400159084401A100400158084401CE
:10022000A00040304001C7004030C6000030C5008B
:100230000030C400440123084001CB0044012208DF
:100240004001CA00440121084001C90044012008BE
:100250004001C800BD31C825803140014708430135
:10026000BF00400146084301BE004001450843016C
:10027000BD00400144084301BC0033084001C700F1
:10028000430132084001C600430131084001C50066
:10029000430130084001C40043013F084001CB0046
:1002A00043013E084001CA0043013D084001C90026
:1002B00043013C084001C800BD31C82580314001E0
:1002C00047084301CF00400146084301CE004001EA
:1002D00045084301CD00400144084301CC004F08CC
:1002E0004401CF0043014E084401CE0043014D08B4
:1002F0004401CD0043014C084401CC004F08A70045
:100300004E08A6004D08A5004C08A40000302405A6
:10031000CC00F0302505CD00FF302605CE00FF30A3
:100320002705CF004F084301CF0044014E08430189
:10033000CE0044014D084301CD0044014C08430167
:10034000CC00C0304001C7004030C6000030C500BE
:100350000030C40043014F084001CB0043014E0868
:100360004001CA0043014D084001C90043014C0847
:100370004001C800BD31C825803140014708430114
:10038000A300400146084301A20040014508430183
:10039000A100400144084301A0004401230840019A
:1003A000E800440122084001E7004401210840011F
:1003B000E600440120084001E50043012308400114
:1003C000EC00430122084001EB00430121084001F9
:1003D000EA00430120084001E900D5312E25803193
:1003E000400168084301A700400167084301A600D7
:1003F000400166084301A500400165084301A400CF
:1004000027084001E800430126084001E7004301B6
:1004100025084001E600430124084001E5004301AE
:1004200033084001EC00430132084001EB00430176
:1004300031084001EA00430130084001E900D531AC
:100440002E258031400168084201E800400167081C
:100450004201E700400166084201E60040016508EC
:100460004201E50043014F084001DB0043014E0813
:100470004001DA0043014D084001D90043014C0816
:100480004001D800430153084001DF0043015208F6
:100490004001DE00430151084001DD0043015008E6
:1004A0004001DC00B5311825803140015B08430173
:1004B000DB0040015A084301DA00400159084301BA
:1004C000D900400158084301D80043084001DB002F
:1004D000430142084001DA00430141084001D900CC
:1004E000430140084001D800420168084001DF0094
:1004F000420167084001DE00420166084001DD005C
:10050000420165084001DC00B53118258031400109
:100510005B08C7005A08C6005908C5005808C4003F
:1005200043014F084001DB0043014E084001DA005F
:1005300043014D084001D90043014C084001D80057
:10054000420164084001DF00420163084001DE000F
:10055000420162084001DD00420161084001DC0007
:10056000B5311825803140015B08CB005A08CA001C
:100570005908C9005808C800BD31C825803140015C
:1005800047084301DF00400146084301DE00400107
:1005900045084301DD00400144084301DC005F08D9
:1005A0004001C70043015E084001C60043015D08E9
:1005B0004001C50043015C084001C40043015B08E1
:1005C0004001CB0043015A084001CA0043015908C9
:1005D0004001C900430158084001C800BD31C82589
:1005E0008031400147084401B300400146084401FE
:1005F000B200400145084401B100400144084401F3
:10060000B0003308CF003208CE003108CD003008EA
:10061000CC004F08A7004E08A6004D08A5004C08C6
:10062000A40000302405CC00F0302505CD00FF30BB
:100630002605CE00FF302705CF004F08B3004E0837
:10064000B2004D08B1004C08B00043015B08400106
:10065000E80043015A084001E700430159084001FE
:10066000E600430158084001E50044013308400119
:10067000EC00440132084001EB0044013108400124
:10068000EA00440130084001E900D5312E258031CF
:10069000400168084401AB00400167084401AA001A
:1006A000400166084401A900400165084401A80012
:1006B0002B084001E80044012A084001E7004401FA
:1006C00029084001E600440128084001E5004301F3
:1006D0005F084001EC0043015E084001EB0043016C
:1006E0005D084001EA0043015C084001E900D531A2
:1006F0002E258031400168084301CB004001670886
:100700004301CA00400166084301C9004001650871
:100710004301C8003F304001DB007630DA00403052
:10072000D9000030D800440133084001DF00440103
:1007300032084001DE00440131084001DD0044017F
:1007400030084001DC00B5311825803140015B08DC
:100750004201D40040015A084201D3004001590827
:100760004201D200400158084201D1003F3040010F
:10077000DB007630DA003830D9004F30D800430142
:100780004B084001DF0043014A084001DE004301FD
:1007900049084001DD00430148084001DC00B53153
:1007A0001825803140015B08C7005A08C600590867
:1007B000C5005808C400B830DB00F630DA0023303A
:1007C000D900C630D800440133084001DF0044019D
:1007D00032084001DE00440131084001DD004401DF
:1007E00030084001DC00B5311825803140015B083C
:1007F000CB005A08CA005908C9005808C800BD31C2
:10080000C8258031400147084301BF004001460828
:100810004301BE00400145084301BD0040014408BA
:100820004301BC0044013508850034088400843548
:10083000850D8435850D6C308407D830853D003FAB
:100840004201A800013FA900023FAA00033FAB00FC
:100850002B084001C70042012A084001C60042019E
:1008600029084001C500420128084001C400430195
:100870003F084001CB0043013E084001CA0043014C
:100880003D084001C90043013C084001C800BD319A
:10089000C8258031400147084201D8004001460880
:1008A0004201D700400145084201D60040014408FA
:1008B0004201D50043016308FC006208FB006108A7
:1008C000FA006008F9000130C0313E2080317C0818
:1008D0004401C7007B08C6007A08C5007908C40037
:1008E000420158084001C700420157084001C600B4
:1008F000420156084001C500420155084001C400AC
:10090000420154084001CB00420153084001CA0093
:10091000420152084001C900420151084001C8008B
:10092000BD31C8258031400147084301BF00400167
:1009300046084301BE00400145084301BD00400197
:1009400044084301BC004401350885003408840094
:100950008435850D8435850D74308407D830853D08
:10096000003F4201A800013FA900023FAA00033F47
:10097000AB002B084001C70042012A084001C60015
:10098000420129084001C500420128084001C40075
:1009900043013F084001CB0043013E084001CA002B
:1009A00043013D084001C90043013C084001C80023
:1009B000BD31C8258031400147084201BC004001DB
:1009C00046084201BB00400145084201BA0040010F
:1009D00044084201B900440147084001C7004401EE
:1009E00046084001C600440145084001C5004401D5
:1009F00044084001C40042013C084001CB004201D0
:100A00003B084001CA0042013A084001C9004201C6
:100A100039084001C800BD31C82580314001470870
:100A20004301E700400146084301E6004001450854
:100A30004301E500400144084301E4006708440124
:100A4000CF00430166084401CE004301650844011C
:100A5000CD00430164084401CC004F08A7004E08B4
:100A6000A6004D08A5004C08A40000302405CC00C9
:100A7000F0302505CD00FF302605CE00FF302705DC
:100A8000CF004F084301E70044014E084301E60050
:100A900044014D084301E50044014C084301E400D2
:100AA000440147084001E800440146084001E700CE
:100AB000440145084001E600440144084001E500C6
:100AC000430167084001EC00430166084001EB0068
:100AD000430165084001EA00430164084001E90060
:100AE000D5312E258031400168084401AB0040011A
:100AF00067084401AA00400166084401A9004001BA
:100B000065084401A8003508850034088400843550
:100B1000850D8435850D74308407D830853D003FC0
:100B20004201A800013FA900023FAA00033FAB0019
:100B30002B084001E80042012A084001E700420179
:100B400029084001E600420128084001E50044016F
:100B50002B084001EC0044012A084001EB0044014D
:100B600029084001EA00440128084001E900D53184
:100B70002E258031400168084301A7004001670825
:100B80004301A600400166084301A5004001650835
:100B90004301A400420154084001E8004201530807
:100BA0004001E700420152084001E60042015108BD
:100BB0004001E500430127084001EC0043012608FD
:100BC0004001EB00430125084001EA0043012408ED
:100BD0004001E900D5312E258031400168084201ED
:100BE000C000400167084201BF00400166084201A1
:100BF000BE00400165084201BD0040084001E80018
:100C000042013F084001E70042013E084001E60082
:100C100042013D084001E500420158084001EC0056
:100C2000420157084001EB00420156084001EA002A
:100C3000420155084001E900D5312E25803140019F
:100C400068084201D000400167084201CF0040011E
:100C500066084201CE00400165084201CD00270828
:100C60004401CF00420126084401CE00420125087C
:100C70004401CD00420124084401CC004F08A700E4
:100C80004E08A6004D08A5004C08A400003024051D
:100C9000CC00F0302505CD00FF302605CE00FF301A
:100CA0002705CF004F084201DC0044014E084201F5
:100CB000DB0044014D084201DA0044014C084201C6
:100CC000D900430167084001DB0043016608400189
:100CD000DA00430165084001D9004301640840017E
:100CE000D80042015C084001E80042015B08400175
:100CF000E70042015A084001E6004201590840015C
:100D0000E500420127084001EC00420126084001AD
:100D1000EB00420125084001EA004201240840019D
:100D2000E900D5312E25803140016808DF006708D1
:100D3000DE006608DD006508DC00B531182580316D
:100D400040015B084201C40040015A084201C3004F
:100D5000400159084201C200400158084201C10047
:100D600050084001DB0042014F084001DA00420117
:100D70004E084001D90042014D084001D80042010F
:100D800027084001DF00420126084001DE00420141
:100D900025084001DD00420124084001DC00B53196
:100DA0001825803140015B08C7005A08C600590861
:100DB000C5005808C400420144084001CB0042016C
:100DC00043084001CA00420142084001C9004201F3
:100DD00041084001C800BD31C825803140014708A5
:100DE0004301CB00400146084301CA0040014508C9
:100DF0004301C900400144084301C800670840019D
:100E0000DB00430166084001DA0043016508400148
:100E1000D900430164084001D80042015C08400148
:100E2000DF0042015B084001DE0042015A08400138
:100E3000DD00420159084001DC00B5311825803140
:100E400040015B084401B30040015A084401B2006C
:100E5000400159084401B100400158084401B00064
:100E600033084001C700440132084001C600440174
:100E700031084001C500440130084001C40043016D
:100E80004B084001CB0043014A084001CA0043011E
:100E900049084001C900430148084001C800BD316C
:100EA000C8258031400147084401CB004001460875
:100EB0004401CA00400145084401C90040014408FA
:100EC0004401C8004B08CF004A08CE004908CD00B5
:100ED0004808CC004F08C3004E08C2004D08C100AE
:100EE0004C08C000C31B7F2F013040020030413B43
:100EF0000030423B4330433B031C7F2F812FC531E1
:100F00006F2D71304001DB004930DA00F230D9003A
:100F1000CA30D80043016F084001DF0043016E086A
:100F20004001DE0043016D084001DD0043016C0813
:100F30004001DC00B5311825803140015B084401D7
:100F4000BB0040015A084401BA004001590844015D
:100F5000B900400158084401B80071304001DB007D
:100F60004930DA00F230D900CA30D80044013B08D9
:100F70004001DF0044013A084001DE004401390825
:100F80004001DD00440138084001DC00B53118257E
:100F9000803140015B084201A30040015A08420130
:100FA000A200400159084201A10040015808420135
:100FB000A0008F31FF2F4201ED01EE01EF0144014E
:100FC000ED01EE014501ED01EE012030840003301A
:100FD00085003630B83100208731A03084000330DE
:100FE00085002830B831002087312030840004305B
:100FF00085005030B831002087314001CA31D12AF4
:1010020040019A01990196019701980107309500D4
:10101200FF309100BF309200FF309300FF30940008
:10102200FF307E01D900E730CE007F30C3000730A9
:10103200E400FF30B800DA01E501C401B901CF01D3
:10104200E601BA01C501D001DB01FF30BB00FF3070
:10105200C600FF30D100FF30DC000730E700FF3070
:10106200BC00FF30C700FF30D200FF30DD000F3080
:10107200E8000F307D01CB001330C50010307E0137
:101082009E001430A3001530A40014307D01C60068
:101092000800163044014206C330031943064004D7
:1010A2004104031D55285628F82833084001E8005A
:1010B200440132084001E700440131084001E600E2
:1010C200440130084001E50044014B084001EC00B6
:1010D20044014A084001EB00440149084001EA008A
:1010E200440148084001E900D5312E2588314001EC
:1010F20068084101B000400167084101AF004001AA
:1011020066084101AE00400165084101AD0043019E
:101112004B084101B40043014A084101B3004301B5
:1011220049084101B200430148084101B100CD31F3
:10113200B6258831031C9E289F28F8280D304001CF
:10114200DB00A230DA004230D9006030D80043011F
:101152006F084001DF0043016E084001DE004301D9
:101162006D084001DD0043016C084001DC00B5312F
:101172001825883140015B084401BB0040015A0830
:101182004401BA00400159084401B900400158081D
:101192004401B8000D304001DB00A230DA004230D9
:1011A200D9006030D80044013B084001DF0044010F
:1011B2003A084001DE00440139084001DD004401E3
:1011C20038084001DC00B5311825883140015B0840
:1011D2004201A30040015A084201A20040015908FD
:1011E2004201A100400158084201A000FF2FFF3038
:1011F200440140054201DD00FF3044014105420146
:10120200DE00FF30440142054201DF007F3044012D
:1012120043054201E0005D08A8005E08A9005F08DE
:10122200AA006008AB001730AC00AB37AA0CA90CBF
:10123200A80CAC0B1629813028074401B400FF30FA
:101242004201293D4401B500FF3042012A3D4401DB
:10125200B600FF3042012B3D4401B700003043018C
:10126200E3000030E2000030E1000030E000420123
:10127200E01B462901305D0200305E3B00305F3BDF
:101282003F30603B031C46294729792A4401400824
:101292004201A800440141084201A9004401420858
:1012A2004201AA00440143084201AB000030AC00F5
:1012B2000030AD008030AE000030AF004401340891
:1012C200013E890A42016929AF37AE0CAD0CAC0C64
:1012D200890B65292C08A8072D08A93D2E08AA3DCF
:1012E2002F08AB3D2B084301E30042012A084301CA
:1012F200E200420129084301E100420128084301BA
:10130200E000FF304201A8000030A9000030AA002E
:101312000030AB00430160084201AC0043016108A8
:101322004201AD00430162084201AE00430163087D
:101332004201AF001730B000AF37AE0CAD0CAC0CB1
:10134200B00B9D292C08A8052D08A9052E08AA0571
:101352002F08AB05813028074401B400FF30420159
:10136200293D4401B500FF3042012A3D4401B60047
:10137200FF3042012B3D4401B700FF304201A8007B
:10138200FF30A9007F30AA000030AB004401340ACC
:101392004201CF29AB37AA0CA90CA80C890BCB2987
:1013A200A809A909AA09AB09430160084201280555
:1013B2004401CC0043016108420129054401CD00EA
:1013C2004301620842012A054401CE004301630839
:1013D20042012B054401CF004F08C7004E08C6004A
:1013E2004D08C5004C08C40000304201A80000307E
:1013F200A9008030AA000030AB00FF304301600535
:101402004201AC00FF30430161054201AD007F3073
:10141200430162054201AE0000304301630542010F
:10142200AF002C08A8042D08A9042E08AA042F082E
:10143200AB0444013408173C890A4201242AAB3721
:10144200AA0CA90CA80C890B202A2B084301E30043
:1014520042012A084301E200420129084301E10056
:10146200420128084301E0004401C31F392A3A2AF5
:10147200462A4301E009E109E209E309E00A031906
:10148200E10A0319E20A0319E30A44014708400189
:10149200E800440146084001E700440145084001D4
:1014A200E600440144084001E500440133084001DC
:1014B200EC00440132084001EB00440131084001D4
:1014C200EA00440130084001E900D5312E25883177
:1014D200400168084401B300400167084401B200BA
:1014E200400166084401B100400165084401B000B2
:1014F200440133084001C700440132084001C600DC
:10150200440131084001C500440130084001C400D3
:1015120043014B084001CB0043014A084001CA0085
:10152200430149084001C900430148084001C8007D
:10153200BD31C8258831400147084401C700400138
:1015420046084401C600400145084401C500400167
:1015520044084401C4004708CF004608CE004508AD
:10156200CD004408CC004F08A7004E08A6004D0845
:10157200A5004C08A40000302405CC0080302505CD
:10158200CD00FF302605CE00FF302705CF004F08E3
:10159200C7004E08C6004D08C5004C08C4003F30C5
:1015A2004001DB003130DA007230D9000030D8005F
:1015B200440147084001DF00440146084001DE00C3
:1015C200440145084001DD00440144084001DC00BB
:1015D200B5311825883140015B084301DB00400129
:1015E2005A084301DA00400159084301D900400179
:1015F20058084301D800440133084001E80044017F
:1016020032084001E700440131084001E60044018C
:1016120030084001E500440147084001EC00440164
:1016220046084001EB00440145084001EA0044013C
:1016320044084001E900D5312E258831400168086F
:101642004401AB00400167084401AA00400166085A
:101652004401A900400165084401A8003F3040014F
:10166200DB003130DA007230D9001830D800440182
:101672002B084001E80044012A084001E700440128
:1016820029084001E600440128084001E500430121
:101692004B084001EC0043014A084001EB004301C2
:1016A20049084001EA00430148084001E900D531F8
:1016B2002E25883140016808DF006708DE006608D1
:1016C200DD006508DC00B5311825883140015B0872
:1016D2004201C80040015A084201C70040015908AE
:1016E2004201C600400158084201C50035304001A0
:1016F200DB00BF30DA00BE30D9008C30D8004401A4
:1017020047084001DF00440146084001DE00440171
:1017120045084001DD00440144084001DC00B531C8
:101722001825883140015B08C7005A08C6005908CD
:10173200C5005808C400420148084001CB004201DC
:1017420047084001CA00420146084001C90042015F
:1017520045084001C800BD31C8258831400147080D
:101762004301DF00400146084301DE004001450815
:101772004301DD00400144084301DC005F084001F1
:10178200C70043015E084001C60043015D084001F5
:10179200C50043015C084001C40043015B084001ED
:1017A200CB0043015A084001CA00430159084001D5
:1017B200C900430158084001C800BD31C82588311D
:1017C200400147084401CB00400146084401CA00D9
:1017D200400145084401C900400144084401C800D1
:1017E20043015B084001E80043015A084001E70059
:1017F200430159084001E600430158084001E50051
:1018020044014B084001EC0044014A084001EB004E
:10181200440149084001EA00440148084001E90046
:10182200D5312E258831400168084401AB004001C2
:1018320067084401AA00400166084401A90040016A
:1018420065084401A8002B084001E80044012A0869
:101852004001E700440129084001E600440128084C
:101862004001E50043015F084001EC0043015E08CE
:101872004001EB0043015D084001EA0043015C08BE
:101882004001E900D5312E25883140016808430125
:10189200AB00400167084301AA004001660843010A
:1018A200A900400165084301A80044014B0840011A
:1018B200DB0044014A084001DA00440149084001C2
:1018C200D900440148084001D80044014B084001B6
:1018D200DF0044014A084001DE004401490840019A
:1018E200DD00440148084001DC00B531182588318B
:1018F20040015B084401C70040015A084401C60088
:10190200400159084401C500400158084401C4007F
:10191200B5304001C700DD30C600EA30C5000E30E8
:10192200C4003330DB003130DA00BB30D9004C3038
:10193200D800440147084001DF0044014608400145
:10194200DE00440145084001DD0044014408400135
:10195200DC00B5311825883140015B08CB005A08FC
:10196200CA005908C9005808C800BD31C8258831C5
:10197200400147084401BB00400146084401BA0047
:10198200400145084401B900400144084401B8003F
:1019920038304001C7008A30C600B330C500553028
:1019A200C400440147084001DB00440146084001ED
:1019B200DA00440145084001D900440144084001CD
:1019C200D80044013B084001DF0044013A084001CD
:1019D200DE00440139084001DD00440138084001BD
:1019E200DC00B5311825883140015B08CB005A086C
:1019F200CA005908C9005808C800BD31C825883135
:101A0200400147084301BB00400146084301BA00B8
:101A1200400145084301B900400144084301B800B0
:101A2200BB304001C7003630C6000B30C500613004
:101A3200C400440147084001DB004401460840015C
:101A4200DA00440145084001D9004401440840013C
:101A5200D80043013B084001DF0043013A0840013E
:101A6200DE00430139084001DD004301380840012E
:101A7200DC00B5311825883140015B08CB005A08DB
:101A8200CA005908C9005808C800BD31C8258831A4
:101A9200400147084301AF00400146084301AE0040
:101AA200400145084301AD00400144084301AC0038
:101AB2003E304001C7002A30C600AA30C500AB3014
:101AC200C400440147084001DB00440146084001CC
:101AD200DA00440145084001D900440144084001AC
:101AE200D80043012F084001DF0043012E084001C6
:101AF200DE0043012D084001DD0043012C084001B6
:101B0200DC00B5311825883140015B08CB005A084A
:101B1200CA005908C9005808C800BD31C825883113
:101B2200400147084201EC00400146084201EB0037
:101B3200400145084201EA00400144084201E9002F
:101B4200440147084001DB00440146084001DA0035
:101B5200440145084001D900440144084001D8002D
:101B620042016C084001DF0042016B084001DE00C7
:101B720042016A084001DD00420169084001DC00BF
:101B8200B5311825883140015B08E8005A08E700A2
:101B92005908E6005808E50044014B084001EC00F2
:101BA20044014A084001EB00440149084001EA00AF
:101BB200440148084001E900D5312E258831400111
:101BC20068084301E700400167084301E60040015D
:101BD20066084301E500400165084301E4002B0863
:101BE2004001C70043012A084001C60043012908F9
:101BF2004001C500430128084001C40043012B08ED
:101C02004001DB0043012A084001DA0043012908B0
:101C12004001D900430128084001D80044014B0883
:101C22004001DF0044014A084001DE004401490846
:101C32004001DD00440148084001DC00B5311825AF
:101C4200883140015B08CB005A08CA005908C90014
:101C52005808C800BD31C8258831400147084301F2
:101C6200A300400146084301A20040014508430188
:101C7200A100400144084301A000C0304001C70058
:101C82000030C6000030C5000030C40043016708C0
:101C92004001CB00430166084001CA0043016508C8
:101CA2004001C900430164084001C800BD31C82594
:101CB200883140014708AD004608AC004508AB003A
:101CC2004408AA00430167084001DB00430166089B
:101CD2004001DA00430165084001D900430164086C
:101CE2004001D80044014B084001DF0044014A088A
:101CF2004001DE00440149084001DD00440148087A
:101D02004001DC00B5311825883140015B08B10083
:101D12005A08B0005908AF005808AE00BC3114246C
:101D2200883140012D084201CC0040012C084201BB
:101D3200CB0040012B084201CA0040012A0842019F
:101D4200C900430123084001E80043012208400181
:101D5200E700430121084001E60043012008400159
:101D6200E50042014C084001EC0042014B084001F1
:101D7200EB0042014A084001EA00420149084001E1
:101D8200E900D5312E258831400168084301B300AE
:101D9200400167084301B200400166084301B100F7
:101DA200400165084301B00044014B084001E800CE
:101DB20044014A084001E700440149084001E600A5
:101DC200440148084001E500430133084001EC00AA
:101DD200430132084001EB00430131084001EA00AF
:101DE200430130084001E900D5312E2588314001F8
:101DF20068084401AB00400167084401AA004001A1
:101E020066084401A900400165084401A8002B08A6
:101E12004001E80044012A084001E7004401290882
:101E22004001E600440128084001E5003F30EC0093
:101E32008030EB000030EA000030E900D5312E2579
:101E42008831400168084401CB0040016708440121
:101E5200CA00400166084401C90040016508440106
:101E6200C8004B08CF004A08CE004908CD004808F8
:101E7200CC004F08C3004E08C2004D08C1004C08F8
:101E8200C000430160084201A80043016108420109
:101E9200A900430162084201AA004301630842010A
:101EA200AB001730A835A90DAA0DAB0D890B532F26
:101EB20028084401C007420129084401C13D4201EA
:101EC2002A084401C23D42012B084401C33D400897
:101ED2004201A800440141084201A900440142080C
:101EE2004201AA00440143084201AB001730AC0092
:101EF200AB37AA0CA90CA80CAC0B792FAB1B902FFB
:101F02002B08031D8F2F2A08031D8F2F2908031D5D
:101F12008F2F0130280203188F2F902FBC2F4401DE
:101F22004B084001E80044014A084001E70044012F
:101F320049084001E600440148084001E500430128
:101F420061084001EA00430160084001E900BA313A
:101F52008E228831400168084401CB0040016708A5
:101F62004401CA00400166084401C90040016508F5
:101F72004401C800CD2F44014308CF004208CE00DF
:101F82004108CD004008CC004F08CB004E08CA00E3
:101F92004D08C9004C08C8004B084001DB00440151
:101FA2004A084001DA00440149084001D9004401CD
:101FB20048084001D80043016F084001DF00430197
:101FC2006E084001DE0043016D084001DD0043015F
:101FD2006C084001DC00B5311825883140015B08EE
:101FE2004201A30040015A084201A20040015908DF
:101FF2004201A100400158084201A00008007F30C0
:10200200F700FF30F600FF30F500FF30F4007708EC
:10201200F3007608F2007508F1007408F000080079
:102022005B084201E40040015A084201E30040011A
:1020320059084201E200400158084201E10043010F
:1020420043084001DB00430142084001DA0043013A
:1020520041084001D900430140084001D800430132
:1020620043084001DF00430142084001DE00430112
:1020720041084001DD00430140084001DC00B53168
:102082001825903140015B084401A30040015A0821
:102092004401A200400159084401A100400158082E
:1020A2004401A0003E304001C7006C30C60032300F
:1020B200C5005530C4003E30DB005330DA00F13049
:1020C200D9004230D800440123084001DF00440116
:1020D20022084001DE00440121084001DD004401E4
:1020E20020084001DC00B5311825903140015B0821
:1020F200CB005A08CA005908C9005808C800BD31A7
:10210200C8259031400147084401BB004001460800
:102112004401BA00400145084401B90040014408A5
:102122004401B8003E304001C7008B30C600A330E6
:10213200C5000530C400440123084001DB0044010E
:1021420022084001DA00440121084001D90044017B
:1021520020084001D80044013B084001DF0044014F
:102162003A084001DE00440139084001DD00440123
:1021720038084001DC00B531182590314001CE31DC
:10218200D02E4201BE00BA01BB0141013C0842010E
:10219200D00041013B084201CF0041013A0842010F
:1021A200CE00410139084201CD0050084101B00082
:1021B20042014F084101AF0042014E084101AE0009
:1021C20042014D084101AD000030B4000030B300BF
:1021D2000030B2000030B100CD31B6259031031885
:1021E200F328F4280D2901304201BA000030BB0067
:1021F2005008F3004F08F2004E08F1004D08F000BD
:10220200D3311B23903173084201D0007208CF00F2
:102212007108CE007008CD004201D301D4014501FE
:102222006E084201C10045016D084201C0003A0832
:102232003B04031D1D291E2922296D1D2129222946
:1022420040293A083B04031D272928292D292B3030
:10225200A4000030A50031292D30A4000030A500D3
:1022620024084101BE003E084801A000013042019D
:10227200D3070030D43DFF30C007FF30C13D5008C6
:10228200F3004F08F2004E08F1004D08F000CB3188
:10229200A823903170037104031D50295129A729E5
:1022A20041013D08BF3EBE00FF3003180030BF00B1
:1022B20000303F021A3003193E02031C61296329D0
:1022C200013064290030C000C10140084201A6006B
:1022D200410141084201A700260827040319722977
:1022E20073297D29F330F000D830F1005308203EE5
:1022F200D5316F2590318629FB30F000D830F100BE
:102302005308203ED5316F259031FD304201C00780
:10231200FF30C13D20304101BE003E084001A40013
:10232200420141084001A600420140084001A500C7
:1023320042013E08CA31192290314001250841016B
:10234200BA00400124084101B900FF2F42015008A0
:10235200F3004F08F2004E08F1004D08F000CB31B7
:10236200A823903170087104031DB829B9290F2AD6
:1023720041013D08BF3EBE00FF3003180030BF00E0
:1023820000303F021A3003193E02031CC929CB292F
:102392000130CC290030C000C10140084201A80030
:1023A200410141084201A900280829040319DA2938
:1023B200DB29E529F730F000D830F1005308203E40
:1023C200D5316F259031EE29FF30F000D830F10081
:1023D2005308203ED5316F259031FD304201C007B0
:1023E200FF30C13D20304101BE003E084001A40043
:1023F200420141084001A600420140084001A500F7
:1024020042013E08CA31192290314001250841019A
:10241200BA00400124084101B900FF2F3F304201B8
:10242200D8008030D7000030D6000030D500D1016E
:10243200D2015008F3004F08F2004E08F1004D0897
:10244200F0000030F7000030F6000030F5000030F8
:10245200F400C831752090310318302A312AFD2A40
:10246200622A41304001DB002030DA000030D9001E
:102472000030D800420158084001DF0042015708ED
:102482004001DE00420156084001DD0042015508CC
:102492004001DC00B5311825903140015B08420152
:1024A200D80040015A084201D700400159084201B0
:1024B200D600400158084201D5000130D107003052
:1024C200D23D420150084101B00042014F08410192
:1024D200AF0042014E084101AE0042014D084101E8
:1024E200AD0041304001DB002030DA000030D9007D
:1024F2000030D800420158084001DF00420157086D
:102502004001DE00420156084001DD00420155084B
:102512004001DC00B5311825903140015B084101D2
:10252200B40040015A084101B30040015908410179
:10253200B200400158084101B100CD31B6259031B9
:102542000318A42AA52A322AD62A41304001AD0016
:102552002030AC000030AB000030AA004201580825
:102562004001B100420157084001B0004201560843
:102572004001AF00420155084001AE00BC311424B5
:10258200903140012D084201D80040012C0842013F
:10259200D70040012B084201D60040012A0842011F
:1025A200D500FF30D107FF30D23D42015008410132
:1025B200B00042014F084101AF0042014E08410103
:1025C200AE0042014D084101AD00420158084101EF
:1025D200B400420157084101B300420156084101CB
:1025E200B200420155084101B100CD31B62590310A
:1025F200031CFC2AFD2AA62A41013D08BE00BF0198
:102602003E08F6003F08F700D531D625903176080E
:102612004101C00040084201C20042084101BE001F
:102622003E084201BF0067304206031D192B1A2BD8
:10263200432B44016D086E04031D202B212B252BF7
:102642000130ED000030EE006E08803A4101BE001C
:1026520080303E02031D302B013044016D0203180D
:10266200332B342B3A2B06304201BC000030BD0024
:10267200492B44016E084201BD0044016D0842012C
:10268200BC00492B4401EE1B472B482B342B3A2B21
:1026920067304206031D4E2B4F2B872B5208803A80
:1026A2004101BE007F303E02031D5A2BFC30420125
:1026B2005102031C5D2B5E2B812B42013C08FF3E25
:1026C2004101BE00FF3042013D3D4101BF003F08D4
:1026D200803AC00042015208803A41014002031D83
:1026E200762B4201510841013E02031C792B7A2BC1
:1026F200812B66304101BE003E084201BF00872B9C
:1027020065304101BE003E084201BF003D08B500F0
:102712003C08B40067304206031D902B912B9B2B83
:1027220066303F06031D962B972B9F2BD21F9A2BA9
:102732009B2B9F2B0130B4070030B53D66303F061E
:10274200031DA42BA52BBD2BD21FA82BA92BB32B6A
:102752003F30D8008030D7000030D6000030D5009E
:10276200D101D201673042060319B82BB92BBD2B18
:102772005108B4075208B53DCB01CC015008C60040
:102782004F08C5004E08C4004D08C3005808A300F6
:102792005708A2005608A1005508A0009D2C42012E
:1027A20058084001AD00420157084001AC00420107
:1027B20056084001AB00420155084001AA004201FF
:1027C20046084001B100420145084001B000420103
:1027D20044084001AF00420143084001AE00BC3151
:1027E2001424903140012D08C7002C08C6002B0884
:1027F200C5002A08C400C031EB20903140014708CF
:102802004201CA00400146084201C9004001450890
:102812004201C800400144084201C7004A08F300CF
:102822004908F2004808F1004708F000CB31342390
:10283200903171084201B9007008B8004A0840019D
:10284200DF00420149084001DE0042014808400120
:10285200DD00420147084001DC0042015808400106
:10286200DB00420157084001DA00420156084001EC
:10287200D900420155084001D800B53118259031E0
:1028820040015B08E8005A08E7005908E6005808CA
:10289200E500420146084001EC00420145084001C2
:1028A200EB00420144084001EA00420143084001B2
:1028B200E900D5312E259031400168084201C60059
:1028C200400167084201C500400166084201C40098
:1028D200400165084201C30041304001AD00203093
:1028E200AC000030AB000030AA00420158084001A1
:1028F200B100420157084001B000420156084001B0
:10290200AF00420155084001AE00BC3114249031A1
:1029120040012D084201D80040012C084201D70095
:1029220040012B084201D60040012A084201D5008D
:102932000130CB070030CC3D4C08803A4101BE004B
:1029420042013508803A41013E02031DAB2C42018F
:1029520034084B02031CAE2CAF2CD02B403040016C
:10296200DB00A030DA000030D9000030D80042018C
:1029720058084001DF00420157084001DE004201D1
:1029820056084001DD00420155084001DC00B53126
:102992001825903140015B084201CA0040015A08E3
:1029A2004201C900400159084201C80040015808CB
:1029B2004201C70046084101B000420145084101F9
:1029C200AF00420144084101AE0042014308410107
:1029D200AD0042014A084101B400420149084101E7
:1029E200B300420148084101B200420147084101D7
:1029F200B100CD31B62590310318002D012D0B2DDC
:102A020000304201CA000030C9000030C800003066
:102A1200C700302D42014608F3004508F200440881
:102A2200F1004308F0004A08F7004908F600480898
:102A3200F5004708F400C83175209031031C222D9F
:102A4200232D302D42013818272D282D302D00300E
:102A5200CA000030C9000030C8000030C70042017F
:102A62004A084001C700420149084001C60042012C
:102A720048084001C500420147084001C400420124
:102A820050084001CB0042014F084001CA004201F8
:102A92004E084001C90042014D084001C800BD3145
:102AA200C8259031400147084201C600400146084E
:102AB2004201C500400145084201C40040014408EA
:102AC2004201C3002308D8002208D7002108D600FB
:102AD2002008D50065303F060319702D712D762D23
:102AE2005208B7005108B600782DB601B701B201FD
:102AF200B301B001B101CB01CC01C22E4201580891
:102B02004001AD00420157084001AC0042015608A5
:102B12004001AB00420155084001AA0042014608AB
:102B22004001B100420145084001B00042014408A1
:102B32004001AF00420143084001AE00BC31142401
:102B4200903140012D08C7002C08C6002B08C50093
:102B52002A08C400C031EB209031400147084201ED
:102B6200CA00400146084201C9004001450842012D
:102B7200C800400144084201C7004A08F30049085E
:102B8200F2004808F1004708F000CB3134239031BD
:102B920071084201B9007008B8006D1AD12DD22D0A
:102BA200E72D38083904031DD72DD82DE72D6730BE
:102BB2004206031DDD2DDE2DE72DB71FE12DE22D8F
:102BC200E72D0130B0070030B13D402E320833040A
:102BD200031DEC2DED2D242EB71FF02DF12D242EEB
:102BE2002E304101BE0042015308203E86000430CF
:102BF200870041013E08810001304201D3070030C5
:102C0200D43DFF30C007FF30C13D0130B20000307B
:102C1200B300242E30304101BE0042015308203E51
:102C220086000430870041013E08810001304201E4
:102C3200D3070030D43DFF30C007FF30C13DFF3025
:102C4200B007FF30B13D30083104031D292E2A2E72
:102C52000B2E3808303E4101BE0042015308203E8F
:102C620086000430870041013E08810001304201A4
:102C7200D3070030D43DFF30C007FF30C13D4A08C2
:102C82004001DF00420149084001DE0042014808DC
:102C92004001DD00420147084001DC0042015808C2
:102CA2004001DB00420157084001DA0042015608A8
:102CB2004001D900420155084001D800B53118251C
:102CC200903140015B08E8005A08E7005908E60025
:102CD2005808E500420146084001EC00420145085F
:102CE2004001EB00420144084001EA00420143086E
:102CF2004001E900D5312E2590314001680842019A
:102D0200C600400167084201C50040016608420151
:102D1200C400400165084201C30041304001AD00DA
:102D22002030AC000030AB000030AA00420158084D
:102D32004001B100420157084001B000420156086B
:102D42004001AF00420155084001AE00BC311424DD
:102D5200903140012D084201D80040012C08420167
:102D6200D70040012B084201D60040012A08420147
:102D7200D500FF30B607FF30B73D0130CB0700303A
:102D8200CC3D4C08803A4101BE0042013508803AF0
:102D920041013E02031DD02E420134084B020318AA
:102DA200D32ED42EE42E42015408803A4101BE00B3
:102DB20080303E02031DE02E4B3042015302031CC1
:102DC200E32EE42E7F2D420132083304031DEA2E46
:102DD200EB2E002F6D1EEE2EEF2E002F2E30410116
:102DE200BE0042015308203E8600043087004101A4
:102DF2003E08810001304201D3070030D43D530820
:102E0200203E860004308700810165303F06031DA5
:102E12000B2F0C2FE42F4F30CB000030CC004B088F
:102E2200203E8600043087008101BA01BB01D21F17
:102E32001B2F1C2F252F0130BA000030BB00D109F7
:102E4200D209D10A0319D20A0230BC000030BD00F7
:102E5200602FFF304201CB07FF30CC3D0A30F0003B
:102E62000030F1005208F3005108F200C931152177
:102E720090317008303E4101BE0042014B08203EB5
:102E820086000430870041013E0881000A30F000CC
:102E92000030F10042015208F3005108F200CA3139
:102EA2007222903171084201D2007008D100FF30C5
:102EB200BC07FF30BD3DFF30C007FF30C13D5108A8
:102EC2005204031D652F662F2A2F3D08803A4101C7
:102ED200BE0080303E02031D712F013042013C02D0
:102EE2000318742F752F2A2FFF304201CB07FF30B2
:102EF200CC3D3A083B04031D7F2F802F852F2B30BA
:102F0200AA000030AB00892F2D30AA000030AB00A0
:102F12002A084101BE0042014B08203E86000430CF
:102F2200870041013E088100FF304201C007FF30A7
:102F3200C13DFF30CB07FF30CC3D41013D08BF3ED4
:102F4200BE00FF3003180030BF0000303F021A30CD
:102F520003193E02031CAE2FB02F0130B12F0030F7
:102F6200C000C10140084201AE00410141084201D6
:102F7200AF002E082F04031DBF2FC02FC52F6530B1
:102F8200AC000030AD00C92F4530AC000030AD00C0
:102F92002C084101BE0042014B08203E860004304D
:102FA200870041013E088100FF304201C007FF3027
:102FB200C13D4B08203EF0000430F1005308203E92
:102FC200D5316F25903120304101BE003E084001CD
:102FD200A400420141084001A6004201400840010C
:102FE200A50042013E08CA3119229031400125084C
:0E2FF2004101BA00400124084101B900080065
:103002007908F000FF39031D0030F1000230F200B0
:103012000030F300D331672398310030F500F60019
:10302200F701D33126239831023008005B084301AF
:10303200C30040015A084301C2004001590843013C
:10304200C100400158084301C0004308D3004208B0
:10305200D2004108D1004008D00053084401CF00FB
:10306200430152084401CE00430151084401CD00FE
:10307200430150084401CC004F08A7004E08A600A7
:103082004D08A5004C08A40000302405CC00F03007
:103092002505CD00FF302605CE00FF302705CF00E5
:1030A2004F084301D30044014E084301D2004401BA
:1030B2004D084301D10044014C084301D0000030C7
:1030C2004201A800F030A900FF30AA00FF30AB0097
:1030D20044013C084201AC0044013D084201AD00FC
:1030E20044013E084201AE0044013F084201AF00E4
:1030F2000130B000AF37AE0CAD0CAC0CB00B7B287E
:103102002C08A8052D08A9052E08AA052F08AB052D
:10311200003028044401A400003042012904440183
:10312200A500003042012A044401A60020304201D9
:103132002B044401A70024084201A80044012508E9
:103142004201A900440126084201AA0044012708BD
:103152004201AB00440134084201AC00440135088D
:103162004201AD00440136084201AE004401370875
:103172004201AF001530AC35AD0DAE0DAF0D890B70
:10318200BC282C08A8072D08A93D2E08AA3D2F0807
:10319200AB3D003028074401CC0000304201293DFC
:1031A2004401CD00403042012A3D4401CE000030AE
:1031B20042012B3D4401CF004F084301CF0044019F
:1031C2004E084301CE0044014D084301CD004401A5
:1031D2004C084301CC0044013508850034088400C2
:1031E2008435850D8435850D7C308407D830853D46
:1031F200003F4201A800013FA900023FAA00033F8D
:10320200AB002B084001E80042012A084001E70018
:10321200420129084001E600420128084001E50078
:1032220043014F084001EC0043014E084001EB000E
:1032320043014D084001EA0043014C084001E90006
:10324200D5312E2598314001CC31AA2C4501EC0014
:10325200C001C101EB0172304401E8006808FA00C4
:103262006830C8312E2099317B084501E9007A087F
:10327200E8000E30F0000030F1006908F300680841
:10328200F200D7313E27993170084401E8006808FE
:103292004501EB0000304401E8000030EA00003054
:1032A200EC000030EE0045016C08083E8600033059
:1032B200870044016808C03F6908C13F6A08C23FED
:1032C2006B08C33F45016C08043E8600033087004B
:1032D20044016808C03F6908C13F6A08C23F6B08E1
:1032E200C33F45016C08860003308700440168082B
:1032F200C03F6908C13F6A08C23F6B08C33F45012E
:103302006C08183E8600033087000030C03F003052
:10331200C13F0030C23F0030C33F00304401E800EB
:103322000030EA000030EC000030EE0045016C088D
:10333200143E86000330870044016808C03F6908D4
:10334200C13F6A08C23F6B08C33F45016C08103E8B
:1033520086000330870044016808C03F6908C13F06
:103362006A08C23F6B08C33F45016C080C3E8600E9
:103372000330870044016808C03F6908C13F6A08FA
:10338200C23F6B08C33F45016B080319C929CA290B
:10339200FF2FEA015D2C74304401E8006808FA004E
:1033A200C230E9006908FB000E30FC000030FD006D
:1033B2006830C03100209931450143084401E800DA
:1033C200E901450142084401EA00EB016A08EB0009
:1033D200EA0168086A04F90069086B04FA00FB0153
:1033E200FA1BFB037B08FC000130C0313E209931FF
:1033F2007C084001B1007B08B0007A08AF00790870
:10340200AE004630AD008030AC000030AB00003082
:10341200AA00BC311424993140012D08C7002C08A0
:10342200C6002B08C5002A08C40045016C088600A6
:1034320003308700403F4001C800413FC900423F7E
:10344200CA00433FCB00BD31C825993145016C0804
:1034520086000330870040014408C03F4508C13F51
:103462004608C23F4708C33F450145084401E800FA
:10347200E901450144084401EA00EB016A08EB0056
:10348200EA0168086A04F90069086B04FA00FB01A2
:10349200FA1BFB037B08FC000130C0313E2099314E
:1034A2007C084001B1007B08B0007A08AF007908BF
:1034B200AE004630AD008030AC000030AB000030D2
:1034C200AA00BC311424993140012D08C7002C08F0
:1034D200C6002B08C5002A08C40045016C08043E3A
:1034E200860003308700403F4001C800413FC900C9
:1034F200423FCA00433FCB00BD31C8259931450147
:103502006C08043E86000330870040014408C03F37
:103512004508C13F4608C23F4708C33F4501470827
:103522004401E800E901450146084401EA00EB01D3
:103532006A08EB00EA0168086A04F90069086B048A
:10354200FA00FB01FA1BFB037B08FC000130C031CF
:103552003E2099317C084001B1007B08B0007A0816
:10356200AF007908AE004630AD008030AC000030CC
:10357200AB000030AA00BC311424993140012D085F
:10358200C7002C08C6002B08C5002A08C400450144
:103592006C08083E860003308700403F4001C800A7
:1035A200413FC900423FCA00433FCB00BD31C8255D
:1035B200993145016C08083E8600033087004001BE
:1035C2004408C03F4508C13F4608C23F4708C33FC1
:1035D200450149084401E800E90145014808440160
:1035E200EA00EB016A08EB00EA0168086A04F200EB
:1035F20069086B04F3005430F0000130F100CA3165
:10360200722299317008F9007108FA00890D893B1C
:103612008909FB00FC000130C0313E2099317C0851
:103622004001CB007B08CA007A08C9007908C800AB
:103632004230C7001230C6001E30C500B830C40088
:10364200BD31C8259931400147084501D3004001E9
:1036520046084501D200400145084501D10040011C
:1036620044084501D00053084001C70045015208F3
:103672004001C600450151084001C50045015008FE
:103682004001C40045016C08183E860003308700E3
:10369200403F4001C800413FC900423FCA00433F8A
:1036A200CB00BD31C825993145016C08183E860012
:1036B2000330870040014408C03F4508C13F460827
:1036C200C23F4708C33F45014B084401E800E901F6
:1036D20045014A084401EA00EB016A08EB00EA01ED
:1036E20068086A04F20069086B04F3008330F00092
:1036F2000030F100CA31722299317008F900710864
:10370200FA00890D893B8909FB00FC000130C031B8
:103712003E2099317C084001C7007B08C6007A0828
:10372200C5007908C40045016C080C3E86000330D0
:103732008700403F4001C800413FC900423FCA00E4
:10374200433FCB00BD31C825993145016C080C3E81
:1037520086000330870040014408C03F4508C13F4E
:103762004608C23F4708C33F45014D084401E800EF
:10377200E90145014C084401EA00EB016A08EB004B
:10378200EA0168086A04F20069086B04F3008330F6
:10379200F0000030F100CA31722299317008F9004C
:1037A2007108FA00890D893B8909FB00FC00013090
:1037B200C0313E2099317C084001C7007B08C60019
:1037C2007A08C5007908C40045016C08103E8600DD
:1037D20003308700403F4001C800413FC900423FDB
:1037E200CA00433FCB00BD31C825993145016C0861
:1037F200103E86000330870040014408C03F450860
:10380200C13F4608C23F4708C33F45014F08440134
:10381200E800E90145014E084401EA00EB016A08AB
:10382200EB00EA0168086A04F20069086B04F3001D
:103832008330F0000030F100CA31722299317008F1
:10384200F9007108FA00890D893B8909FB00FC0027
:103852000130C0313E2099317C084001C7007B080D
:10386200C6007A08C5007908C40045016C08143EF8
:10387200860003308700403F4001C800413FC90035
:10388200423FCA00433FCB00BD31C82599314501B3
:103892006C08143E86000330870040014408C03F94
:1038A2004508C13F4608C23F4708C33F01304401B3
:1038B200E80068084501EA076B086A02031C622CEB
:1038C200632CCC296B084401E800E901EA01EB0111
:1038D2006B08FC006A08FB006908FA006808F90036
:1038E2000130C0313E2099317C084001AD007B0897
:1038F200AC007A08AB007908AA0045016C08860082
:1039020003308700403F4001AE00413FAF00423FDD
:10391200B000433FB100BC311424993145016C0819
:1039220086000330870040012A08C03F2B08C13FB0
:103932002C08C23F2D08C33F45016B084401E80033
:10394200E901EA01EB016B08FC006A08FB00690867
:10395200FA006808F9000130C0313E2099317C0834
:103962004001AD007B08AC007A08AB007908AA00E0
:1039720045016C08043E860003308700403F400149
:10398200AE00413FAF00423FB000433FB100BC3107
:103992001424993145016C08043E860003308700E7
:1039A20040012A08C03F2B08C13F2C08C23F2D0806
:1039B200C33F45016B084401E800E901EA01EB015C
:1039C2006B08FC006A08FB006908FA006808F90045
:1039D2000130C0313E2099317C084001AD007B08A6
:1039E200AC007A08AB007908AA0045016C08083ED1
:1039F200860003308700403F4001AE00413FAF00E8
:103A0200423FB000433FB100BC311424993145011B
:103A12006C08083E86000330870040012A08C03F38
:103A22002B08C13F2C08C23F2D08C33F45016B083C
:103A32004401E800E901EA01EB016B08FC006A08B5
:103A4200FB006908FA006808F9000130C0313E2025
:103A520099317C084001AD007B08AC007A08AB00CC
:103A62007908AA0045016C08183E860003308700D9
:103A7200403F4001AE00413FAF00423FB000433FF4
:103A8200B100BC311424993145016C08183E8600FE
:103A92000330870040012A08C03F2B08C13F2C0891
:103AA200C23F2D08C33F45016B084401E800E9010C
:103AB200EA01EB016B08FC006A08FB006908FA00E6
:103AC2006808F9000130C0313E2099317C0840017C
:103AD200AD007B08AC007A08AB007908AA0045016A
:103AE2006C080C3E860003308700403F4001AE0068
:103AF200413FAF00423FB000433FB100BC3114240C
:103B0200993145016C080C3E860003308700400164
:103B12002A08C03F2B08C13F2C08C23F2D08C33FD3
:103B220045016B084401E800E901EA01EB016B0879
:103B3200FC006A08FB006908FA006808F900013015
:103B4200C0313E2099317C084001AD007B08AC00B9
:103B52007A08AB007908AA0045016C08103E86007D
:103B620003308700403F4001AE00413FAF00423F7B
:103B7200B000433FB100BC311424993145016C08B7
:103B8200103E86000330870040012A08C03F2B0800
:103B9200C13F2C08C23F2D08C33F45016B084401B9
:103BA200E800E901EA01EB016B08FC006A08FB008E
:103BB2006908FA006808F9000130C0313E209931E5
:103BC2007C084001AD007B08AC007A08AB007908A4
:103BD200AA0045016C08143E860003308700403F6E
:103BE2004001AE00413FAF00423FB000433FB10051
:103BF200BC311424993145016C08143E860003300F
:103C0200870040012A08C03F2B08C13F2C08C23F51
:103C12002D08C33F40304201A7000030A60000300B
:103C2200A5000030A40045016C08083E8600033060
:103C32008700403F4201A000413FA100423FA20055
:103C4200433FA300A03132209931420123084501AC
:103C5200D700420122084501D60042012108450150
:103C6200D500420120084501D40040304201A7009E
:103C72000030A6000030A5000030A40045016C0809
:103C8200043E860003308700403F4201A000413FCE
:103C9200A100423FA200433FA300A031322099314C
:103CA200420123084501DB00420122084501DA00F6
:103CB200420121084501D900420120084501D800EE
:103CC20057084001C700450156084001C60045019A
:103CD20055084001C500450154084001C400450192
:103CE2005B084001CB0045015A084001CA0045016A
:103CF20059084001C900450158084001C800BD31BA
:103D0200C8259931400147084501DF0040014608B6
:103D12004501DE00400145084501DD00400144083F
:103D22004501DC005F084101BC0045015E0841011C
:103D3200BB0045015D084101BA0045015C08410133
:103D4200B900B2319422993141013C084401D700B3
:103D520041013B084401D60041013A084401D50023
:103D6200410139084401D40045016C088600033042
:103D72008700403F4401D000413FD100423FD20082
:103D8200433FD300AB31F02399314401530845013D
:103D9200E300440152084501E20044015108450193
:103DA200E100440150084501E0003D304001DB00E4
:103DB200CC30DA00CC30D900CD30D80045016C08C7
:103DC2000C3E860003308700403F4001DC00413F4B
:103DD200DD00423FDE00433FDF00B5311825993157
:103DE20040015B08C7005A08C6005908C5005808B8
:103DF200C4004230DB006530DA002E30D900E130F9
:103E0200D800450163084001DF0045016208400116
:103E1200DE00450161084001DD0045016008400106
:103E2200DC00B5311825993140015B08CB005A08F6
:103E3200CA005908C9005808C800BD31C8259931BF
:103E420045016C08203E860003308700400144088B
:103E5200C03F4508C13F4608C23F4708C33F45012E
:103E62006C08083E860003308700403F4401D400BE
:103E7200413FD500423FD600433FD70045016C0881
:103E8200043E860003308700403F4401D000413F9A
:103E9200D100423FD200433FD300AB31F0239931EE
:103EA200440153084501E700440152084501E60078
:103EB200440151084501E500440150084501E40070
:103EC2003D304001DB00CC30DA00CC30D900CD30BF
:103ED200D80045016C08103E860003308700403F41
:103EE2004001DC00413FDD00423FDE00433FDF0096
:103EF200B5311825993140015B08C7005A08C60040
:103F02005908C5005808C4004230DB006530DA00A9
:103F12002E30D900E130D800450167084001DF00AA
:103F2200450166084001DE00450165084001DD00EB
:103F3200450164084001DC00B53118259931400182
:103F42005B08CB005A08CA005908C9005808C800C3
:103F5200BD31C825993145016C08243E86000330E5
:103F6200870040014408C03F4508C13F4608C23FA0
:103F72004708C33F45016C081C3E8600033087009A
:103F8200403F4001C400413FC500423FC600433F9D
:103F9200C7003D30DB00CC30DA00CC30D900CD3068
:103FA200D80045016C08143E860003308700403F6C
:103FB2004001DC00413FDD00423FDE00433FDF00C5
:103FC200B5311825993140015B08CB005A08CA0067
:103FD2005908C9005808C800BD31C82599314501A2
:103FE2006C081C3E86000330870040014408C03F35
:103FF2004508C13F4608C23F4708C33F08004E017B
:104002000F1408004601BD151328D231A622A03193
:104012003128A0310020A03103303128D231AB2227
:10402200A03131282C08F0007008F90021088A001C
:1040320020080A00A031F100F2017208003A0319C7
:1040420023280F287108013A03190F28033A03198C
:104052000628013A03190628073A03190A280F28E5
:104062000800420123084401CF0042012208440112
:10407200CE00420121084401CD0042012008440142
:10408200CC004F084301C70044014E084301C6005B
:1040920044014D084301C50044014C084301C400DA
:1040A200420127084401CF00420126084401CE0004
:1040B200420125084401CD00420124084401CC00FC
:1040C2004F084301EB0044014E084301EA0044015A
:1040D2004D084301E90044014C084301E800FF3068
:1040E20044054401BC00FF30430145054401BD00C5
:1040F200FF30430146054401BE007F3043014705BE
:104102004401BF00FF30430168054401AC00FF30A9
:10411200430169054401AD00FF3043016A054401D2
:10412200AE007F3043016B054401AF002F082E041F
:104132002D042C04031D9E289F28AA283F304201EB
:10414200A3008030A2000030A1000030A0008F3117
:10415200FF2F8030430146063F30031947064404CF
:104162004504031DB528B628C0283F304201A300EC
:104172008030A2000030A1000030A000A828440135
:10418200BF1BCF2801303C0200303D3B80303E3B1C
:104192007F303F3B0318CE28CF28DD28AF1BDC2819
:1041A20001302C0200302D3B80302E3B7F302F3BE4
:1041B200031CDC28DD281129420127084001C70021
:1041C200420126084001C600420125084001C500FF
:1041D200420124084001C400420123084001CB00EF
:1041E200420122084001CA00420121084001C900DF
:1041F200420120084001C800BD31C825A03140015C
:1042020047084201A300400146084201A2004001C2
:1042120045084201A100400144084201A000A8282B
:1042220000304301B7000030B6000030B500003066
:10423200B400C71F1D291E29FA294401AF1B2829D2
:1042420080302E024B302F3B031C28292929332989
:1042520000304301B7000030B6000030B500023034
:10426200B400FA29AF1B3C2980302E023F302F3B8D
:10427200031C3C293D29FA292C084201A8004401CB
:104282002D084201A90044012E084201AA0044015E
:104292002F084201AB001730AC00AB37AA0CA90CB7
:1042A200A80CAC0B4E29813028074401B400FF3022
:1042B2004201293D4401B500FF3042012A3D44013B
:1042C200B600FF3042012B3D4401B7002C084201E9
:1042D200A80044012D084201A90044012E08420110
:1042E200AA0044012F084201AB0044013408173CE4
:1042F200890A42018029AB37AA0CA90CA80C890BA8
:104302007C292B084401C30042012A084401C2004F
:10431200420129084401C100420128084401C000A9
:1043220040084201A800440141084201A900440199
:1043320042084201AA00440143084201AB00440181
:104342003408173C890A4201AA29A835A90DAA0DE9
:10435200AB0D890BA62944012F0842012B06031D30
:10436200C22944012E0842012A06031DC229440122
:104372002D0842012906031DC22944012C084201CD
:104382002806031DC529C629FA2901304401400522
:104392004201A8000030440141054201A900003059
:1043A200440142054201AA00003044014305420192
:1043B200AB000230AC000030AD000030AE00003087
:1043C200AF002808AC022908AD3B2A08AE3B2B08F7
:1043D200AF3B2F084301B70042012E084301B6004C
:1043E20042012D084301B50042012C084301B400EB
:1043F200FA29803044012E067F3003192F062C043F
:104402002D04031D062AB8310628B8316728410158
:104412003008BC002F08BB002E08BA002D08B900D6
:104422003C08EA003B08E9003A08E8003908E700DE
:104432006708B1006808B2006908B3006A08B400EE
:104442001F30B436B30CB20CB10C890B222A3408DB
:10445200D4003308D3003208D2003108D100FF3033
:10446200E705FF30E805FF30E9057F30EA058030D7
:1044720069024C306A3B031C3F2A402AB02A3008AA
:10448200F3002F08F2002E08F1002D08F000CB31C6
:10449200A823A23170087104031D502A512A522AFE
:1044A200FF2F03304001C7008030C6000030C50036
:1044B2000030C40068308400D8308500003F4101DC
:1044C200B100013FB200023FB300033FB400340821
:1044D2004001CB00410133084001CA0041013208CA
:1044E2004001C900410131084001C800BD31C82561
:1044F200A231400147084101E6004001460841015E
:10450200E500400145084101E40040014408410141
:10451200E3005408530452045104031D912A922AC1
:104522009B2A6608B0006508AF006408AE00630805
:10453200AD00FF2F6608F3006508F2006408F10081
:104542006308F000D3311B23A23173084101B0008C
:104552007208AF007108AE007008AD00FF2FE030A6
:1045620069023E306A3B0318B72AB82AC62A80304D
:10457200690239306A3B0318BF2AC02AC12A512A6C
:10458200FF30E100FF30E200772C30084001C70025
:1045920041012F084001C60041012E084001C5001B
:1045A20041012D084001C400D6312026A23140012C
:1045B20047084101B000400146084101AF004001F7
:1045C20045084101AE00400144084101AD00983068
:1045D20069023F306A3B0318EF2AF02ACC2B3030B5
:1045E20069023F306A3B0318F72AF82A6B2BE10174
:1045F200E20140304001C7000030C6000030C50073
:104602000030C400410130084001CB0041012F08B5
:104612004001CA0041012E084001C90041012D0894
:104622004001C800BD31C825A23140014708AD0094
:104632004608AC004508AB004408AA00BF30C700DA
:104642008030C6000030C5000030C4004030DB00BE
:104652000030DA000030D9000030D80041013008C3
:104662004001DF0041012F084001DE0041012E0818
:104672004001DD0041012D084001DC00B531182563
:10468200A23140015B08CB005A08CA005908C90090
:104692005808C800BD31C825A23140014708B10001
:1046A2004608B0004508AF004408AE00BC311424EF
:1046B200A23140012D084101B00040012C08410106
:1046C200AF0040012B084101AE0040012A08410120
:1046D200AD00772C0130E1000030E2003F304001B4
:1046E200C7008030C6000030C5000030C400410160
:1046F20030084001CB0041012F084001CA004101AE
:104702002E084001C90041012D084001C800BD31F9
:10471200C825A23140014708AD004608AC00450853
:10472200AB004408AA00BF30C7008030C60000308A
:10473200C5000030C400410130084001CB004101F6
:104742002F084001CA0041012E084001C900410161
:104752002D084001C800BD31C825A23140014708DB
:10476200B1004608B0004508AF004408AE00BC31B5
:104772001424A23140012D084101B00040012C084F
:104782004101AF0040012B084101AE0040012A085F
:104792004101AD00772C1C30690240306A3B03189E
:1047A200D32BD42B492C0230E1000030E2003F3001
:1047B2004001C7008030C6000030C5000030C40090
:1047C2003F30DB00C030DA000030D9000030D800C2
:1047D200410130084001DF0041012F084001DE00A5
:1047E20041012E084001DD0041012D084001DC009D
:1047F200B5311825A23140015B08CB005A08CA0026
:104802005908C9005808C800BD31C825A231400165
:104812004708AD004608AC004508AB004408AA00B2
:10482200BF30C700C030C6000030C5000030C40031
:10483200410130084001CB0041012F084001CA006C
:1048420041012E084001C90041012D084001C80064
:10485200BD31C825A23140014708B1004608B00069
:104862004508AF004408AE00BC311424A231400117
:104872002D084101B00040012C084101AF00400168
:104882002B084101AE0040012A084101AD00772CFE
:104892000330E1000030E20030084001AD00410188
:1048A2002F084001AC0041012E084001AB0041013C
:1048B2002D084001AA00BF30B1008030B0000030A6
:1048C200AF000030AE00BC311424A23140012D08EB
:1048D2004101B00040012C084101AF0040012B080A
:1048E2004101AE0040012A084101AD0030084001FB
:1048F200DB0041012F084001DA0041012E0840018E
:10490200D90041012D084001D80041013008400181
:10491200DF0041012F084001DE0041012E08400165
:10492200DD0041012D084001DC00B5311825A2311E
:1049320040015B084101E60040015A084101E500DF
:10494200400159084101E400400158084101E300D7
:1049520066084001DB00410165084001DA004101BF
:1049620064084001D900410163084001D8004101B7
:1049720066084001DF00410165084001DE00410197
:1049820064084001DD00410163084001DC00B531EB
:104992001825A23140015B084101E00040015A089C
:1049A2004101DF00400159084101DE004001580881
:1049B2004101DD0040308400D8308500003FB10065
:1049C200013FB200023FB300033FB400340840018C
:1049D200C700410133084001C600410132084001CD
:1049E200C500410131084001C40041016008400195
:1049F200DB0041015F084001DA0041015E0840012D
:104A0200D90041015D084001D80048308400D83007
:104A12008500003F4101B500013FB600023FB700EB
:104A2200033FB80038084001DF0041013708400168
:104A3200DE00410136084001DD0041013508400138
:104A4200DC00B5311825A23140015B08CB005A08C1
:104A5200CA005908C9005808C800BD31C825A2318A
:104A6200400147084101D800400146084101D700F2
:104A7200400145084101D600400144084101D500EA
:104A820038308400D8308500003FB100013FB200C9
:104A9200023FB300033FB40034084001C7004101A4
:104AA20033084001C600410132084001C5004101FE
:104AB20031084001C400410160084001DB004101AE
:104AC2005F084001DA0041015E084001D90041015E
:104AD2005D084001D800410158084001DF00410152
:104AE20057084001DE00410156084001DD00410146
:104AF20055084001DC00B5311825A23140015B08A0
:104B0200CB005A08CA005908C9005808C800BD316C
:104B1200C825A231400147084101C00040014608B2
:104B22004101BF00400145084101BE004001440867
:104B32004101BD0066084001DB00410165084001FA
:104B4200DA00410164084001D900410163084001D3
:104B5200D800410140084001DF0041013F08400107
:104B6200DE0041013E084001DD0041013D084001F7
:104B7200DC00B5311825A23140015B084101CC00AF
:104B820040015A084101CB00400159084101CA00C5
:104B9200400158084101C9003C308400D8308500EA
:104BA200003FB100013FB200023FB300033FB40037
:104BB20034084001C700410133084001C6004101E9
:104BC20032084001C500410131084001C4004101E1
:104BD20060084001DB0041015F084001DA00410149
:104BE2005E084001D90041015D084001D80044300F
:104BF2008400D8308500003F4101B500013FB60076
:104C0200023FB700033FB80038084001DF0041010E
:104C120037084001DE00410136084001DD00410154
:104C220035084001DC00B5311825A23140015B088E
:104C3200CB005A08CA005908C9005808C800BD313B
:104C4200C825A231400147084101D8004001460869
:104C52004101D700400145084101D6004001440806
:104C62004101D50060084001DB0041015F084001BD
:104C7200DA0041015E084001D90041015D084001AE
:104C8200D800410158084001DF00410157084001A6
:104C9200DE00410156084001DD0041015508400196
:104CA200DC00B5311825A23140015B084101D0007A
:104CB20040015A084101CF00400159084101CE008C
:104CC200400158084101CD00E21F682E692EEA2EEC
:104CD20030084001DB0041012F084001DA004101A8
:104CE2002E084001D90041012D084001D8004101A0
:104CF20050084001C70041014F084001C600410170
:104D02004E084001C50041014D084001C400410167
:104D12004C084001CB0041014B084001CA0041014F
:104D22004A084001C900410149084001C800BD319B
:104D3200C825A23140014708DF004608DE004508C9
:104D4200DD004408DC00B5311825A23140015B08C2
:104D52004101DC0040015A084101DB0040015908D1
:104D62004101DA00400158084101D9005C084001C4
:104D7200E80041015B084001E70041015A08400197
:104D8200E600410159084001E500410130084001B7
:104D9200EC0041012F084001EB0041012E084001C7
:104DA200EA0041012D084001E900D5312E25A2314A
:104DB200400168084101B000400167084101AF00AD
:104DC200400166084101AE00400165084101AD00A5
:104DD200FF2F30084001DB0041012F084001DA00BB
:104DE20041012E084001D90041012D084001D8009F
:104DF200410150084001C70041014F084001C6006F
:104E020041014E084001C50041014D084001C40066
:104E120041014C084001CB0041014B084001CA004E
:104E220041014A084001C900410149084001C80046
:104E3200BD31C825A23140014708DF004608DE0027
:104E42004508DD004408DC00B5311825A2314001D7
:104E52005B084101DC0040015A084101DB004001CE
:104E620059084101DA00400158084101D90062089D
:104E72008500610884008435850D8435850D4C30AC
:104E82008407D830853D003FB100013FB200023FA8
:104E9200B300033FB40034084001E8004101330885
:104EA2004001E700410132084001E60041013108BA
:104EB2004001E50041015C084001EC0041015B0852
:104EC2004001EB0041015A084001EA004101590842
:104ED2004001E900D5312E25A23140016808410187
:104EE200C400400167084101C30040016608410156
:104EF200C200400165084101C10030084001E800DC
:104F020041012F084001E70041012E084001E6005F
:104F120041012D084001E500410144084001EC0037
:104F2200410143084001EB00410142084001EA000F
:104F3200410141084001E900D5312E25A23140014D
:104F420068084101C800400167084101C7004001EB
:104F520066084101C600400165084101C5004808D4
:104F62004001E800410147084001E70041014608CD
:104F72004001E600410145084001E50041016208A7
:104F82008500610884008435850D8435850D5C308B
:104F92008407D830853D003FB100013FB200023F97
:104FA200B300033FB40034084001EC004101330870
:104FB2004001EB00410132084001EA0041013108A1
:104FC2004001E900D5312E25A23140016808410196
:104FD200E600400167084101E50040016608410121
:104FE200E400400165084101E300540853045204FF
:104FF2005104031DFD2FFE2F9B2A922A0800003028
:10500200D431D324A83108004001A701A801A0018E
:10501200A1010F280130F6070030F73DA601A60ACC
:1050220076088400770885001200203A03191A28AE
:105032001B28302876088400770885000008F73E90
:10504200F800FF3003180030F90000307902053013
:1050520003197802031C2E282F283028A6012608BF
:10506200F800F9017808A2007908A30022082304B5
:10507200031D3C283D280B2847280130A0000030A2
:10508200A1000130F6070030F73D7B287608840046
:10509200770885000008F800F9017908003A031939
:1050A20053287B2878082B3A03194228063A031919
:1050B2003E287B2876088400770885000008F800DF
:1050C2002808F1002708F0000A30F2000030F3004F
:1050D200D5310F25A8317108FA0078087002F9005D
:1050E200031CFA037908303E4001A70000307A3DE4
:1050F200A800422876088400770885000008D03E80
:10510200F800FF3003180030F900003079020A304D
:1051120003197802031C8E28902801309128003050
:10512200FA00FB017A08A4007B08A50024082504E4
:10513200031D9C289D285B2820082104031DA2280A
:10514200A328AF282709F8002809F900F80A03194B
:10515200F90A7808F6007908F700B3282808F7005A
:105162002708F60008004101DE0040016D088600B4
:105172008701403F4101C200413FC3004208840011
:10518200430885001200253A031DC828C928CA2BE6
:1051920040016D0886008701013081074131031803
:1051A200810A4501ED01EE014201ED01EE01FF3000
:1051B2004401ED00FF30EE004101D001D10124296C
:1051C20042016D1440016D0886008701013081079C
:1051D20041310318810A24294201ED14E3284201D6
:1051E2006D15E3284201ED15E32842016D16E3280F
:1051F2000130D0000030D100242940016D08860022
:105202008701403F4101C200413FC3004208840080
:10521200430885000008C400C5014508003A031987
:105222001329F9284408203A0319F328033A0319E9
:10523200F628083A0319F028063A0319E1281D3A1C
:105242000319ED28F92841015008510403192A29AC
:105252002B29FE2842016D1C2F2930293429FD30CB
:10526200ED05FF30EE0540016D0886008701403FE5
:105272004101C200413FC300420884004308850047
:1052820012002E3A031D46294729C2294401ED0185
:10529200EE0140016D08860087010130810741312E
:1052A2000318810A6D0886008701403F4101C20050
:1052B200413FC300420884004308850012002A3A95
:1052C200031D642965297D2940016D088600870137
:1052D2000130810741310318810A6E088600870177
:1052E200010884000130850002308107003F44013B
:1052F200ED00013FEE00C22940016D0886008701E2
:10530200403FF600413FF700A8310520A831770859
:105312004401EE007608ED00972940016D088600F1
:1053220087010130810741310318810A40016D086C
:1053320086008701403F4101C200413FC30042084D
:105342008400430885000008D03EC400FF300318E3
:105352000030C500003045020A3003194402031C24
:10536200B329B5290130B6290030C600C701460865
:10537200D2004708D30052085304031DC129C22991
:105382008E2940016D0886008701403F4101C2001D
:10539200413FC30042088400430885000008C4005E
:1053A200C5014408F6004508F700D531D625A831D5
:1053B20076084101C6004608DA005A080319E229B4
:1053C200E329262A40016D0886008701403F4101FA
:1053D200C200413FC3000130420784004308031862
:1053E200430A85000008C400C5014408F6004508C8
:1053F200F700D531D625A83176084101C600460806
:10540200DB005B080319062A072A262A40016D08D9
:1054120086008701403F4101C200413FC300023084
:105422004207840043080318430A85000008C400A9
:10543200C5014408F6004508F700D531D625A83144
:1054420076084101C6004608DC0066305A06031D94
:105452002B2A2C2A712A40016D0886008701403FC1
:105462004101C200413FC300420884004308850055
:105472000008C4004408DD0040016D088600870171
:105482000130810741310318810A6E0886008701C5
:10549200010884000130850004308107003F41018A
:1054A200D600013FD700023FD800033FD900590878
:1054B200BC005808BB005708BA005608B9005D087E
:1054C200C2004208BD005E089031C220A8314101ED
:1054D2003A084001EE00410139084001ED00EF2B8E
:1054E2000330F000D930F1000230F2000030F30056
:1054F200DA30C9316821A83170087104031D822A8B
:10550200832A0C2B40016D0886008701403F410130
:10551200C200413FC3000130420784004308031820
:10552200430A85000008C4004408DD0040016D08FC
:1055320086008701403F4101C200413FC30042084B
:105542008400430885000008BF3EC400FF300318F2
:105552000030C500003045021A3003194402031C12
:10556200B32AB52A0130B62A0030C600C701460860
:10557200D4004708D500540855040319C12AC22A89
:10558200D62A40016E088600870101088400013096
:10559200850004308107003F4101D600013FD7005A
:1055A200023FD800033FD900E92A40016E08860075
:1055B2008701010884000130850004308107003F23
:1055C2004101D600013FD700023FD800033FD90076
:1055D20040016D08860087010230810741310318BE
:1055E200810A41015908BC005808BB005708BA009B
:1055F2005608B9005D08C2004208BD005E0890313D
:10560200C220A83141013A084001EE0041013908A7
:105612004001ED00EF2B40016D0886008701403FFD
:105622004101C200413FC300420884004308850093
:105632001200783A03191E2B1F2B322B40016D08E2
:1056420086008701403F4101C200413FC30042083A
:105652008400430885001200583A031D312B322B77
:10566200902B40016D0886008701403F4101C20036
:10567200413FC30042088400430885000008C4007B
:105682004408DD0040016D08860087010130810772
:1056920041310318810A6E088600870101088400DF
:1056A2000130850002308107003F4101C800013FFF
:1056B200C900CA01CB01CC01CD01CE01CF014808FE
:1056C2004001AD00410149084001AE0041014A08D4
:1056D2004001AF0041014B084001B00041014C08BC
:1056E2004001B10041014D084001B20041014E08A4
:1056F2004001B30041014F084001B40041015D087F
:10570200C20042084001B50041015E08B9311521CD
:10571200A83140012E08EE002D08ED00EF2B4001CC
:105722006D0886008701403F4101C200413FC3002E
:1057320042088400430885001200253A031DA22B6B
:10574200A32BBE2B40016D08860087010130810723
:1057520041310318810A2530F2000030F300410183
:105762005E08C2004208F400D7317A27A83101301E
:105772004001ED000030EE00EF2B40016D08860085
:1057820087010130810741310318810AED01EE01E1
:10579200EF2B40016D0886008701403F4101C200A6
:1057A200413FC30042088400430885000008C4004A
:1057B200C5014408F2004508F3005E08C600460829
:1057C200F400D7317A27A83140016D08860087019D
:1057D2000130810741310318810AB82B08004401C6
:1057E2005708F3005608F2005508F1005408F0007B
:1057F200CB31A823AB31700871040319012C022CA0
:10580200142C44015308F3005208F2005108F1002D
:105812005008F000CB31A823AB3170087104031D8E
:10582200132C142C482C440153084001C700440196
:1058320052084001C600440151084001C50044011C
:1058420050084001C400440157084001CB00440104
:1058520056084001CA00440155084001C9004401EC
:1058620054084001C800BD31C825AB31400147088A
:105872004401D300400146084401D20040014508DA
:105882004401D100400144084401D000FF2F4401EB
:1058920057084501AF00440156084501AE004401D6
:1058A20055084501AD00440154084501AC002F08DC
:1058B200B7002E08B6002D08B5002C08B40044012C
:1058C20053084501AF00440152084501AE004401AE
:1058D20051084501AD00440150084501AC002F08B4
:1058E200BB002E08BA002D08B9002C08B800803081
:1058F20036063F300319370634043504031D822C63
:10590200832CA72C440153084101B00044015208E2
:105912004101AF00440151084101AE004401500869
:105922004101AD00A2310822AB31410130084401EE
:10593200D30041012F084401D20041012E08440145
:10594200D10041012D084401D000FF2F0230440153
:10595200D8000030D9000030DA000030DB00450109
:1059620034084401DC00450135084401DD004501ED
:1059720036084401DE00450137084401DF001E30CD
:10598200DF36DE0CDD0CDC0C890BC12C5C08D80583
:105992005D08D9055E08DA055F08DB050130E00025
:1059A2000030E1000030E2000030E3004501380839
:1059B2004401E400450139084401E50045013A0883
:1059C2004401E60045013B084401E7001F30E73689
:1059D200E60CE50CE40C890BE82C6408E00565088C
:1059E200E1056608E2056708E30558086004450119
:1059F200BC004401590861044501BD0044015A0834
:105A020062044501BE0044015B0863044501BF0016
:105A1200FF30B405FF30B505FF30B6057F30B7055E
:105A2200FF30B805FF30B905FF30BA057F30BB053E
:105A32003B083A0439043804031D202D212D542D2E
:105A4200372DFF2F40304401D3004930D2000F30B0
:105A5200D100DB30D000FF2FC0304401D3004930E9
:105A6200D2000F30D100DB30D000FF2F3F08003AC8
:105A720003194F2D542D3D08003A0319412D542D81
:105A82003C08003A0319222D013A0319222D033A48
:105A92000319232D013A03192D2D542D3E08003AE6
:105AA20003193C2D542D3708360435043404031DE4
:105AB2005B2D5C2D742D3C185F2D602D6A2D3F30BF
:105AC2004401D300C930D2000F30D100DB30D00006
:105AD200FF2FBF304401D300C930D2000F30D100B4
