:020000040000FA
:1000000080311428053008007E1480314E01961E80
:100010000A280B2812288C1E0E280F2812288D3132
:100020006D2580317E10090080311628F701F80116
:10003000F901FA01FB01FC01563084000030850013
:1000400012308D319D258031A03084000030850034
:100050001D308D319D2580317E1040018331E32B91
:10006000400131088039B6003608BB003135B60092
:100070003608C100B01F3D283E283F2841144108E2
:100080000319432844285328410A031D48284928B6
:1000900051280030B1000030B0000030AF00003017
:1000A000AE00B0175B280030B1000030B000003067
:1000B000AF000030AE0035088039B6003608BB0608
:1000C0003535B6003608BC00B41F67286828692893
:1000D0003C143C0803196D286E287D283C0A031D3A
:1000E000722873287B280030B5000030B40000303F
:1000F000B3000030B200B41785280030B5000030DE
:10010000B4000030B3000030B2003C080319892865
:100110008A288F284108031D8E288F2898280030B0
:10012000B1000030B0000030AF000030AE00862AD1
:100130002E08B6003608A00034088F319027803191
:1001400040012108C7002008C6004608B600B701D4
:10015000B801B9013908C0003808BF003708BE002F
:100160003608BD004708B600B701B801B901390823
:10017000C5003808C4003708C3003608C2002F087D
:10018000B6003608A00033088F3190278031400137
:100190002108C7002008C6004608B600B701B8010C
:1001A000B9013608BD073708BE3D3808BF3D3908DC
:1001B000C03D4708B600B701B801B9013608C2070B
:1001C0003708C33D3808C43D3908C53D3008B6007E
:1001D0003608A00032088F31902780314001210875
:1001E000C7002008C6004608B600B701B801B9012B
:1001F0003608BD073708BE3D3808BF3D3908C03D49
:100200004708B600B701B801B9013608C207370878
:10021000C33D3808C43D3908C53D0830BD35BE0D65
:10022000BF0DC00D890B0E292F08B6003608A0009F
:1002300032088F319027803140012108C700200803
:10024000C6004608BD074708BE3D0030BF3DC03D63
:100250002E08B6003608A00033088F319027803171
:1002600040012108C7002008C6004608BD0747080E
:10027000BE3D0030BF3DC03D0830BD35BE0DBF0D99
:10028000C00D890B3D292E08B6003608A0003208A3
:100290008F319027803140012108C7002008C60017
:1002A0004608BD074708BE3D0030BF3DC03D2F0892
:1002B000B6003608A00034088F3190278031400105
:1002C0002108C7002008C6004608C2074708C33DEA
:1002D0000030C43DC53D3008B6003608A0003308E4
:1002E0008F319027803140012108C7002008C600C7
:1002F0004608C2074708C33D0030C43DC53D30082D
:10030000B6003608A00034088F31902780314001B4
:100310002108C7002008C6004608B6004708B700F5
:10032000B801B9010830B635B70DB80DB90D890B54
:1003300093293608C2073708C33D3808C43D390839
:10034000C53D3D08B6003E08B7003F08B80040086C
:10035000B9001830B936B80CB70CB60C890BAA29FD
:100360003608C2073708C33D3808C43D3908C53DC3
:100370000830BD35BE0DBF0DC00D890BB929410830
:100380003C07B600B701B70D3608823EC600FF3005
:10039000373DC700E2290130C235C30DC40DC50D7C
:1003A000890BCC29C01FD529D629D7294214013061
:1003B000BD35BE0DBF0DC00D890BD829FF30C60756
:1003C000FF30C73DC41FE529E629CB29BC01C01F6A
:1003D000EA29EB29072AFF303D05B600FF303E052C
:1003E000B700FF303F05B8007F304005B90039083D
:1003F0003804370436040319FE29FF29022ABC01F8
:10040000BC0A072A421C052A062A072AFF293C089B
:1004100003190B2A0C2A342A0130C2070030C33DCD
:100420000030C43D0030C53D451C172A182A342A27
:100430004208B6004308B7004408B8004508B900B0
:100440000130BA00B937B80CB70CB60CBA0B222A77
:100450003908C5003808C4003708C3003608C20090
:100460000130C6070030C73D4708803AB6008030EB
:100470003602031D3D2AFF304602031C402A412A52
:100480004B2A7F304001C5008030C4000030C300DB
:100490000030C2007A2A40014708803AB600803016
:1004A0003602031D552A013046020318582A592ADC
:1004B000642A00304001C5000030C4000030C30091
:1004C0000030C200BB017A2A40014608B600360857
:1004D000C100FF30C205FF30C3057F30C4050030C6
:1004E000C505411C742A752A762AC4174136B60000
:1004F0003608C5003B08B6003608C5044508B100FB
:100500004408B0004308AF004208AE0008004E01A6
:100510009612E8304001A0000330A1002E08A3008D
:100520002D08A2008631B026823140012008B0009B
:100530003008B4006430A0000030A1002E08A300F1
:100540002D08A2008631B026823140012008B0007B
:100550003008B600F630B0003008A9003608B10007
:10056000B2013108A2003208A3000A30A000003016
:10057000A1008431E8248231400120088E31C82650
:10058000823140013607B3003308B6000A30A000BC
:100590000030A1002E08A3002D08A2008631B0264D
:1005A000823140012008B0003008B700F630B000BA
:1005B0003008A9003708B100B2013108A2003208A2
:1005C000A3000A30A0000030A1008431E824823169
:1005D000400120088E31C826823140013707B30020
:1005E0003308B700F630B0003008A9002E08A30089
:1005F0002D08A2000A30A0000030A1008631B026EC
:100600008231400120088E31C826823140012D07F9
:10061000B1003108B5003408B0002F08860087010A
:10062000300881000130B0003008AF073608B00054
:100630002F0886008701300881000130B0003008A3
:10064000AF073708B0002F08860087013008810007
:100650000130B0003008AF073508B0002F08860021
:100660008701300881004E01961608004001A8005D
:10067000280803193C2B3D2B512BA31F402B412B4A
:10068000512B2009AA002109AB002209AC00230943
:10069000AD00AA0A0319AB0A0319AC0A0319AD0A83
:1006A000592B2308AD002208AC002108AB0020081C
:1006B000AA002308220421042004031D602B612BBF
:1006C0006A2B0030A3000030A2000030A1000030EF
:1006D000A000E22B9630A4002408A9007A2B013058
:1006E000A4002408A9070130AD36AC0CAB0CAA0C51
:1006F000890B742BFE302D05031D7F2B802B6F2B58
:10070000942B0130A4002408A9070130AA07003067
:10071000AB3D0030AC3D0030AD3D0130AD36AC0CF2
:10072000AB0CAA0C890B8E2BFF302D05031D992BCA
:100730009A2B812BA42B0130A9020130AA35AB0DD5
:10074000AC0DAD0D890B9E2BAC1BA72BA82BAE2B94
:10075000023029020318AD2BAE2B9B2B2918B12B8D
:10076000B22BBA2BFF30AA05FF30AB057F30AC05AA
:10077000FF30AD050310A90C2908A400A501A601AE
:10078000A7011830A435A50DA60DA70D890BC22B06
:100790002408AA042508AB042608AC042708AD04E5
:1007A00028080319D42BD52BDA2BA31FD82BD92B30
:1007B000DA2BAD172D08A3002C08A2002B08A100EE
:1007C0002A08A00008008E311B2683318B170B17D7
:1007D00040019901E201E301E401E5016230D30047
:1007E0005308D6006330D3005308D7006430D300D9
:1007F0005308D8006530D3005308D9004001AA013E
:100800006630D3005308AB000230AC000030AD00BE
:10081000483086317326833140016608D300D40105
:100820005308D400D30153086704DA005408DB00EE
:100830005B08D4005A08D3000530D500540DD40C01
:10084000D30CD50B1E2C5308DA005408DB005A08D1
:10085000A0005B08A100890D893B8909A200A300C3
:10086000013083313623833140012308B50022084B
:10087000B4002108B3002008B2003E30B1000030BF
:10088000B0000030AF000030AE0080313020833146
:1008900040013108CB003008CA002F08C9002E08DB
:1008A000C80084317324833140014908DB004808C3
:1008B000DA005B08B9005A08B8006230D300530868
:1008C000BA0087312727833129304001D400963080
:1008D000D3007F30890B6A2CD30B6A2CD40B6A2C83
:1008E000FE2B80311428031040014A0D4B0DCC0023
:1008F0004C08D2005208031D7E2C7F2C882C00301F
:10090000CB000030CA000030C9000030C800E72C1E
:100910004808CC004908CD004A08CE004B08CF005B
:100920001F30CF36CE0CCD0CCC0C890B912C4C0843
:10093000D0005008D100CA17FF30C805FF30C905E4
:10094000FF30CA050030CB059630D202D21FA92C49
:10095000AA2CC22C5208803A973E0318B02CB12C16
:10096000B22C7F2C0130CB36CA0CC90CC80C890BB9
:10097000B32C0130CC004C08D207031DC02CC12C75
:10098000B22CD72C20305202031CC72CC82CD22CDE
:100990007F2C0130C835C90DCA0DCB0D890BCA2C6F
:1009A0000130D2025208031DD62CD72CC92C510875
:1009B0000319DB2CDC2CE72CC809C909CA09CB09AF
:1009C000C80A0319C90A0319CA0A0319CB0A08007D
:1009D0004001A601A11FED2CEE2CF52CA009A109C8
:1009E000A00A0319A10AA601A60AA31FF82CF92C34
:1009F000022DA209A309A20A0319A30A0130A40027
:100A00002408A606A701A801200821040319092D1E
:100A10000A2D392DA501A50A162D0130A035A10DED
:100A2000890B0E2D0130A4002408A507A11F192D44
:100A30001A2D0D2D0130A735A80D890B1B2D21086E
:100A40002302031D252D20082202031C282D292DF9
:100A50002E2D2008A2022108A33B27140130A13625
:100A6000A00C890B2F2D0130A502031D382D392D27
:100A70001A2D260803193D2D3E2D432DA709A8093F
:100A8000A70A0319A80A2808A1002708A00008003F
:100A90008D3191258531003A03194F2D502D822D2E
:100AA0005D2D8D31402585319E2D8D31452585313A
:100AB0009E2D8D314F2585319E2D41012F084001FE
:100AC000A1002108A9000630A03E86008701413F11
:100AD0008A00403F0A0085314001A200A30123089B
:100AE000003A0319742D592D2208013A0319592D82
:100AF000033A0319512D013A0319552D073A0319E9
:100B0000592D592D41013C101730A03E8600870118
:100B1000403F84008501810A00088D318B25853195
:100B200001304101B8020030B93B38083904031DD7
:100B30009A2D9B2D9D2D06309E2D033008008D3162
:100B40002D2585314001A00041013708860087012D
:100B50004001200881000130A00020084101B707B2
:100B60000130B8020030B93B380839040319B92DF7
:100B7000BA2DBF2D8D31372585310530EA2DBC15B5
:100B8000C92D8D315E258531EA2D8D31592585316F
:100B9000EA2D2C084001A0002008A90041012108ED
:100BA0008A0020080A0085314001A100A201220824
:100BB000003A0319DC2DC52D2108013A0319C52D72
:100BC000033A0319C12D013A0319C12D073A03193C
:100BD000C52DC52D080040019A0199019601970184
:100BE000980107309500FF309100BF309200FF3030
:100BF000930094017E01D901E730CE007E30C3001E
:100C00000730E400FF30B800DA01E501C401B901A2
:100C1000CF01E601BA01C501D001DB01FF30BB0005
:100C2000FF30C600FF30D100FF30DC000730E700A6
:100C3000FF30BC00FF30C700FF30D200FF30DD00C6
:100C40000F30E8000F307D01CB001330C5001030AD
:100C50007E019E001430A3001530A40014307D01E5
:100C6000C60008004001A100A201A20A41013C19EE
:100C70003A2E3B2E702E40012108A0002008410191
:100C8000B600BC103C153C100E304001A0002008FE
:100C90004101BA00F430B4000130B500BC15163083
:100CA000A0000D30A100AC011630A2000D30A30051
:100CB000AD011630A4000D30A500AE011630A6001F
:100CC0000D30A700AF010230A8000030A900B0012C
:100CD0008D31182586318D31F22586314001A201F2
:100CE0004001220808004001AF002B08AE002E088A
:100CF000B2002D08B1002C08B00040012F08863149
:100D000032268631003A0319862E872E7D2E0F302B
:100D10004001A5000F30A6003030AE002E08A7001D
:100D20008D31FF25863101304001A0000030A10047
:100D30002A308E31DE26863100304001A500A60023
:100D4000A7018E310D2686318D31682586318F3190
:100D500029278631013A0319AE2EAF2EA72E08009F
:100D60004001A601A701200821040319B82EB92EBD
:100D7000E82EA501A50AC52E0130A035A10D890BCD
:100D8000BD2E0130A4002408A507A11FC82EC92E1E
:100D9000BC2E0130A635A70D890BCA2E21082302CF
:100DA000031DD42E20082202031CD72ED82EDD2EA0
:100DB0002008A2022108A33B26140130A136A00C72
:100DC000890BDE2E0130A502031DE72EE82EC92E69
:100DD0002708A1002608A00008007C08563E8600CF
:100DE00087010108860087010108203E84009030B9
:100DF0000318013E85000008FF3A8F314A278631EB
:100E00000130F4007C08033E890A072FF435890B72
:100E1000062F7408F039400199000130F40074087D
:100E2000FC077C08033EF400003003180130F50095
:100E30007508803AF60080307602031D212F0830B5
:100E40007402031C242F252F262FFC0108004001CB
:100E50003908AE003808AD003C30BB003B08AF009D
:100E600082318722873140013E08BB003A08860064
:100E700087013B0881000130BB003B08BA073F08EF
:100E8000BB003A08860087013B0881000130BB00A7
:100E90003B08BA070A30BB003A08860087013B08C6
:100EA00081000130BB003B08BA070B30BB003A0899
:100EB000860087013B08810008004101BC156D2FA9
:100EC0008D314A2587318E2F8D3130258731033082
:100ED0008E2F8D314F2587318E2F2C084001A00099
:100EE0002008A900410121088A0020080A00873152
:100EF0004001A100A2012208003A0319802F692FA6
:100F00002108013A0319692F033A0319602F013AA6
:100F10000319602F073A0319642F692F0800410154
:100F20003C1002304001A00020084101BB00A02F6E
:100F30008D314A258731BE2F8D314F258731BE2F08
:100F40002E084001A0002008A9000430A03E860021
:100F50008701413F8A00403F0A0087314001A100DC
:100F6000A2012208003A0319B62F9C2F2108023A49
:100F70000319982F013A0319982F9C2F08008D31DF
:100F80001825873141013C1CC62FC72FD52F8D3125
:100F900091258731003A0319CE2FCF2FD52F0F304F
:100FA0004001A40024084101BA0041013A0840016F
:100FB000A400A501A435A50D0030240784009030BD
:100FC000253D8500013F8A00003F0A00873140012E
:100FD000A60026084101BA00080002304001A00026
:100FE0000030A10029088E31DE2687310030400113
:100FF000A500A600A7018D31FF258731023008002A
:101A2C00013008004E010F1008004301901208000D
:101A3C004E011910080043011114080043019114C0
:101A4C0008004301111508004301911508004301DA
:101A5C000C0808004E010F140800430191161116D2
:101A6C00080043019112111608004101BC10BB0182
:101A7C000E3008008D3124258D31013008008D3158
:101A8C0024258D31023008008D3124258D31013013
:101A9C0008008D3127258D31003008008D31372518
:101AAC008D31053008008D3133258D310A30080019
:101ABC008D3133258D31093008004101BC10BB013B
:101ACC000E30080000308F316D278D3108004E012B
:101ADC008C128D31CC258D31080040012108DF009E
:101AEC002008DE00080040012108F8002008F7005B
:101AFC00080040012108E1002008E0000800400136
:101B0C002108FA002008F90008004001A000200874
:101B1C0043018C0008004301110E890C890C01391A
:101B2C0008004E010F1C9B2D9C2D972D0800640066
:101B3C0080010131890B9E2D003441013C108D3107
:101B4C002A258D31043008004F0196019701980128
:101B5C0099019A019B01080041013C1436358D31E5
:101B6C008B258D310330080043018F010830900024
:101B7C0091014F308D009012080041013C14031468
:101B8C00360D8D318B258D310530080079087A049E
:101B9C000319D12DD22DD72D7A088A0079080A0085
:101BAC008D310800103051018D008F0191010530ED
:101BBC0093009201101CE32DE42DE02D0800EC2D78
:101BCC008D3197258D318731BF278D314101BC185F
:101BDC00F02DF12DE62D08004301901AF62DF72D6E
:101BEC00FE2D8F010830900091014F308D00901622
:101BFC00080040012608A1002508A0002708A8001D
:101C0C002808A20000308F31D9278D3108004001FF
:101C1C002608A1002508A0002708A8002808A20073
:101C2C0002308F31D9278E3108008D31AA258E31A3
:101C3C008D31BA258E318531EB258E318D31D825FC
:101C4C008E318E31B3268E318F31B4278E31080010
:101C5C0002304001A0000030A10029088E31DE26A0
:101C6C008E3100304001A500A600A7018D31FF2563
:101C7C008E310430080001304001A0000030A1007A
:101C8C0029088E31DE268E3100304001A500A600D9
:101C9C00A7018D31FF258E31023008000230400142
:101CAC00A0000030A10029088E31DE268E310030D4
:101CBC004001A500A600A7018D31FF258E31023011
:101CCC00080001304001A0000030A10029088E312D
:101CDC00DE268E3100304001A500A600A7018D3113
:101CEC00FF258E310430080002304001A000003086
:101CFC00A10029088E31DE268E3100304001A5006E
:101D0C00A600A7018D31FF258E310430080001306B
:101D1C004001A0000030A10029088E31DE268E3152
:101D2C0000304001A500A600A7018D31FF258E31A2
:101D3C000430080001304001A0000030A100290847
:101D4C008E31DE268E3100304001A500A600A701A1
:101D5C008D31FF258E3102300800493040019F0043
:101D6C004D309D009C014E018C129616ED304001B9
:101D7C00A0000630A1008D3185258E3180304001C8
:101D8C009E0008004001AC00AB012C1CCE2ECF2EC7
:101D9C00D32E2908AA002A08AB070310A90D03109B
:101DAC00AC0C2C08031DDB2EDC2ECB2E2B080800D4
:101DBC004001A3004101BC1DE42EE52EF42E400190
:101DCC002308A20022084101B7004001210841016B
:101DDC00B900400120084101B800BC1108004001C5
:101DEC00290886008701403FA000413FA100290837
:101DFC00023E8600870101088E31DE268E310030CE
:101E0C004001A500A600A7018D31FF258E310230BF
:101E1C0008004001290886008701403FA000413F8F
:101E2C00A1002908023E8600870101088E31DE26BA
:101E3C008F3100304001A500A600A7018D31FF2590
:101E4C008F31023008004001A101A10A4101BC18E8
:101E5C00302F312F472F3C11FF304001A0002008BC
:101E6C004101B6008D3118258F318D311E258F31F2
:101E7C008D311B258F3141013B084001A00020080A
:101E8C00A100400121080800F20040011915F301DE
:101E9C007208F000F101730A552FF035F10D890B22
:101EAC00532FF01B5A2F5D2F40018F145F2F4001D1
:101EBC008F10191419100130F0007008F307083056
:101ECC007302031C6A2F6B2F4E2F1911080040014F
:101EDC00A800A901A90A4101BC18752F762F8D2FD6
:101EEC00BC144001A901280803197D2F7E2F822FD5
:101EFC004101BA01BA0A872F0230A7002708410115
:101F0C00BA008D3121258F318D31E5258F3140017E
:101F1C00290808004001A800A401A5012008A2007E
:101F2C00A3012208A6002308A700281C9E2F9F2F80
:101F3C00A32F2608A4072708A53D0130A635A70D19
:101F4C00890BA42F0310A80C2808031DAE2FAF2F4C
:101F5C009B2F2508A1002408A0000800083042018E
:101F6C009F0090309D0024309E0040309B00033039
:101F7C009C0000304001A0000030A1008D3179257B
:101F8C008F3100304001A0000030A1008D317F2541
:101F9C008F3100304001A0000030A1008D3173253D
:101FAC008F31FB0108004001A40020082104031913
:101FBC00E02FE12FF22F2435A03E86008701200868
:101FCC00C03F2108C13F2208A3002408AC3E860074
:101FDC00870123088100FF2F2435A03E860087014E
:101FEC001630C03F0D30C13F2408AC3E860087013F
:101FFC00810108003B340D34C3340D34B2340D343C
:10200C00483405349F340534A3340D345D3407341F
:10201C0040340D3445340D344A340D344F340D34C2
:10202C0054340D3459340D345E340D3463340D3462
:10203C008F3407343F3406345B344F3466346D349C
:10204C007D3407347F346F34633439343234203484
:10205C00253475342C34253475342C3425347534AE
:10206C002C342534753425340D340A34003434348E
:10207C002034253475342C34253475342C342534E3
:0E208C0075342C34253475340D340A34003488
:020000040001F9
:0A000E009C3FFD3F9F3FFF1FFF3F97
:00000001FF
