:020000040000FA
:10000000803102288731EA2F640080010131890B99
:10001000052800340130F4000030F50041014D089E
:10002000FF3E890A1528F435F50D890B1328F201D6
:10003000F3012C28701C1D281E2822287408F204A5
:100040007508F3040130F536F40C890B23280130D0
:10005000F136F00C890B282870087104031D312833
:1000600032281A287308F1007208F00008004101D4
:10007000BC1547288C31F424803165288C31D0247C
:100080008031033065288C31F924803165282C08B3
:10009000F0007008F90021088A0020080A00803169
:1000A000F100F2017208003A031957284328710839
:1000B000013A03194328033A03193A28013A03196C
:1000C0003A28073A03193E28432808004001E30074
:1000D0005F08E5005E08E4004101BD01BE0184281F
:1000E0006430E1006108CE006008E2006208CF00E1
:1000F00063088331B623803140014E084101BD07BA
:1001000040014F084101BE3D40016408840065087C
:1001100085001200031D8D288E28702841013E089D
:100120004001DF0041013D084001DE000800FB0006
:100130004801980199018C31B52480317B088600F3
:10014000870101088D315B2580310130FA007A0882
:10015000FB078C31DB248031003A031DB028B12825
:10016000A9287B088600870101088D315B25803135
:100170008C31DB248031003A031DBF28C028B82809
:1001800048011E130030F600F70000308131832152
:10019000803177084001A6007608A5000800F1002C
:1001A000F201F20A41013C19D628D7280729710823
:1001B000F0007008B600BC103C153C100E30F0008A
:1001C0007008BA00F430B4000130B500BC15B1308D
:1001D000A0000C30A100AC01B130A2000C30A30093
:1001E000AD01B130A4000C30A500AE01B130A600C5
:1001F0000C30A700AF01B330A8000C30A900B0014B
:100200008C31B82480318D319E258031F201720805
:1002100008004001A1007B08A0002008A4007D0880
:10022000A3007C08A200400121088031CF20813149
:10023000003A03191C291D2913298D30F5000E30B1
:10024000F60022304001A0002008F7008D318425FF
:1002500081310130F0000030F1007A308D31B82565
:1002600081310030F500F600F7018D31AB25813189
:100270008D31122581318E31D9268131013A031910
:10028000422943293B2908007408031948294929B0
:100290004E297408031D4D294E29532972088D31AA
:1002A0003525813182297408033E860087011600B6
:1002B000010403195C295D297A297408033E86002C
:1002C0008701403FF500413FF600740A8600870130
:1002D000403FF700413FF8007808803AF90076087F
:1002E000803A7902031D7629750877020318792967
:1002F0007A298229740A86008701013081074131F9
:100300000318810A08004001A200480119084001B1
:10031000A400480118084001A300103041014D021B
:10032000031893299429A9290130F8000030F90015
:100330004D0A9C29F835F90D890B9A297808FF3E5A
:100340004001A000FF30793DA1002008A30521084D
:10035000A405400122080319AE29AF29BB292408AE
:10036000F1002308F00080310A208131710840013A
:10037000A4007008A3007608A3067708A406240842
:10038000F7002308F60008008C31CD248131F000FD
:100390004101370886008701700881000130F000B4
:1003A0007008B7070130B8020030B93B380839048B
:1003B0000319DB29DC29E1298C31D724813105306F
:1003C000092ABC15EB298D3108258131092A8D3187
:1003D00003258131092A2C08F0007008F900210852
:1003E0008A0020080A008131F100F2017208003A07
:1003F0000319FB29E7297108013A0319E729033A90
:100400000319E329013A0319E329073A0319E729F4
:10041000E729080040019A01990196019701980186
:1004200007309500FF309100BF309200FF309300FD
:10043000FF309400FF307E01D900E730CE007F30DE
:10044000C3000730E400FF30B800DA01E501C40161
:10045000B901CF01E601BA01C501D001DB01FF30CE
:10046000BB00FF30C600FF30D100FF30DC0007309A
:10047000E700FF30BC00FF30C700FF30D200FF3084
:10048000DD000F30E8000F307D01CB001330C500D8
:1004900010307E019E001430A3001530A4001430EB
:1004A0007D01C60008008D3129258231003A0319EB
:1004B0005A2A5B2A8B2A682A8C31EA248231A72A9D
:1004C0008C31EF248231A72A8C31F9248231A72A7A
:1004D00041012F08F1007108F9000630A03E8600A6
:1004E0008701413F8A00403F0A008231F200F30158
:1004F0007308003A03197D2A642A7208013A031925
:10050000642A033A03195C2A013A0319602A073A5C
:100510000319642A642A41013C101730A03E86006A
:100520008701403F84008501810A00088C31E02466
:10053000823101304101B8020030B93B380839043A
:10054000031DA32AA42AA62A0630A72A03300800DE
:100550004001AC006E1CAD2AAE2AB62A2C08A700BA
:100560002708FA0024088F31802782314001A61B1A
:10057000BA2ABB2AC02A2608AB002508AA00C22A2C
:10058000AA01AB01A801A901D62A2030F20000304F
:10059000F30040012C08A7002708F4008131442112
:1005A000823101304001A8070030A93D2908803A76
:1005B000A7002B08803A2702031DE02A2A082802F8
:1005C000031CE32AE42AC52A40016E18E82AE92A16
:1005D000F12A2C08A7002708FA0024088F31802769
:1005E0008231400124088E31BF26823140012A0821
:1005F0007007A4002B08713DA50008008E3162260B
:100600008231F1304101D2005208FA00CF30D300DC
:100610005308FB000330FC000030FD004030813106
:100620000921823141015008D200D3014F08D40082
:10063000D5015408D500D40152085404C900530808
:100640005504CA00CF3080319720823141015108D2
:10065000400125062604031D2E2B2F2B472B20306F
:10066000E6008830E7003C30F0000030F100410146
:100670004A08F3004908F200833157238231710898
:100680004001E9007008E8008E31502682310B30BD
:100690004101D3002630D2005D30890B4D2BD20BA7
:1006A0004D2BD30B4D2B0032012B80310228F6014C
:1006B000F11F5B2B5C2B632BF009F109F00A031986
:1006C000F10AF601F60AF31F662B672B702BF2096D
:1006D000F309F20A0319F30A0130F4007408F6066C
:1006E000F701F801700871040319772B782BA72BF9
:1006F000F501F50A842B0130F035F10D890B7C2BC7
:100700000130F4007408F507F11F872B882B7B2B31
:100710000130F735F80D890B892B71087302031D21
:10072000932B70087202031C962B972B9C2B70083E
:10073000F2027108F33B77140130F136F00C890BAB
:100740009D2B0130F502031DA62BA72B882B7608C5
:100750000319AB2BAC2BB12BF709F809F70A0319D6
:10076000F80A7808F1007708F00008004001DD0081
:100770004E0886008701403FD000413FD10050081D
:100780008400510885001200253A031DC82BC92B8F
:100790006F2C4E0886008701013081074131031814
:1007A000810A4101BF01C0014001EE01EF01FF30AC
:1007B0004101C100FF30C20040014E0886008701A0
:1007C000403FD000413FD1005008840051088500CF
:1007D0001200643A0319ED2BEE2BFF2B4E08860016
:1007E0008701403FD000413FD100500884005108AC
:1007F00085001200693A031DFE2BFF2B3A2C4E0890
:10080000860087010130810741310318810A4F08B2
:100810008600870101088400850102308107003FBE
:10082000D000013FD1005008D5005108D600890DF5
:10083000893B8909D700D800D900DA00DB00DC0049
:100840005508B0005608B1005708B2005808B30068
:100850005908B4005A08B5005B08B6005C08B70038
:100860005D0886317E26833140013108CF00300893
:10087000CE00922C4E0886008701403FD000413FB9
:10088000D10050088400510885001200253A031D4C
:100890004A2C4B2C642C4E088600870101308107BE
:1008A00041310318810A2530F2000030F3005D0861
:1008B000D0005008F40081314421833101304001DF
:1008C000CE000030CF00922C4E0886008701013008
:1008D000810741310318810ACE01CF01922C4E08C5
:1008E00086008701403FD000413FD100500884007E
:1008F000510885000008D200D3015208F2005308C5
:10090000F3005D08D4005408F400813144218331A0
:1009100040014E08860087010130810741310318EC
:10092000810A5E2C0800F201283086000030870022
:10093000473FF000F01F9D2C9E2CBF2C4001A809C2
:10094000A909AA09AB09AC09AD09AE09AF09A80A02
:10095000031DBD2CA90A031DBD2CAA0A031DBD2C15
:10096000AB0A031DBD2CAC0A031DBD2CAD0A031D33
:10097000BD2CAE0A031DBD2CAF0AF201F20A2030D5
:10098000860000308700473FF000F01FC82CC92CBC
:10099000E82C4001A009A109A209A309A409A509FD
:1009A000A609A709A00A031DE82CA10A031DE82C2B
:1009B000A20A031DE82CA30A031DE82CA40A031DA8
:1009C000E82CA50A031DE82CA60A031DE82CA70A9B
:1009D00040012008210422042304240425042604C1
:1009E00027040319F42CF52C482DF101F10A042DEC
:1009F000A035A10DA20DA30DA40DA50DA60DA70D4B
:100A00000130F0007008F107A71F072D082DF82C02
:100A100027082F02031D262D26082E02031D262D32
:100A200025082D02031D262D24082C02031D262D2A
:100A300023082B02031D262D22082A02031D262D22
:100A400021082902031D262D20082802031C292D18
:100A50002A2D3A2D2008A8022108A93B2208AA3BEA
:100A60002308AB3B2408AC3B2508AD3B2608AE3B36
:100A70002708AF3BA736A60CA50CA40CA30CA20C10
:100A8000A10CA00C0130F102031D472D482D082DAB
:100A9000720803194C2D4D2D6B2DA809A909AA091F
:100AA000AB09AC09AD09AE09AF09A80A031D6B2D4E
:100AB000A90A031D6B2DAA0A031D6B2DAB0A031D8A
:100AC0006B2DAC0A031D6B2DAD0A031D6B2DAE0AF9
:100AD000031D6B2DAF0A40012808A0002908A100C2
:100AE0002A08A2002B08A3002C08A4002D08A500AA
:100AF0002E08A6002F08A7000800F201203086006B
:100B000000308700473FF000F01F872D882DA92D6A
:100B10004001A009A109A209A309A409A509A609E0
:100B2000A709A00A031DA72DA10A031DA72DA20A2C
:100B3000031DA72DA30A031DA72DA40A031DA72D7E
:100B4000A50A031DA72DA60A031DA72DA70AF201BA
:100B5000F20A2830860000308700473FF000F01F7F
:100B6000B22DB32DD62D4001A809A909AA09AB09B8
:100B7000AC09AD09AE09AF09A80A031DD22DA90A17
:100B8000031DD22DAA0A031DD22DAB0A031DD22D9F
:100B9000AC0A031DD22DAD0A031DD22DAE0A031DD2
:100BA000D22DAF0A0130F0007008F20673308600D3
:100BB000003087000830F00000301E00F00BDD2D03
:100BC00040012008210422042304240425042604CF
:100BD00027040319EC2DED2D492EF101F10AFC2D0E
:100BE000A035A10DA20DA30DA40DA50DA60DA70D59
:100BF0000130F0007008F107A71FFF2D002EF02D27
:100C0000F335F40DF50DF60DF70DF80DF90DFA0DA0
:100C100027082F02031D262E26082E02031D262E2E
:100C200025082D02031D262E24082C02031D262E26
:100C300023082B02031D262E22082A02031D262E1E
:100C400021082902031D262E20082802031C292E14
:100C50002A2E3B2E2008A8022108A93B2208AA3BE5
:100C60002308AB3B2408AC3B2508AD3B2608AE3B34
:100C70002708AF3B7314A736A60CA50CA40CA30C35
:100C8000A20CA10CA00C0130F102031D482E492E2C
:100C9000002E720803194D2E4E2E6C2EF309F40906
:100CA000F509F609F709F809F909FA09F30A031D24
:100CB0006C2EF40A031D6C2EF50A031D6C2EF60A29
:100CC000031D6C2EF70A031D6C2EF80A031D6C2EF3
:100CD000F90A031D6C2EFA0A73084001A00074087B
:100CE000A1007508A2007608A3007708A400780880
:100CF000A5007908A6007A08A70008004001BF00F7
:100D00003008C4003108C5003208C6003308C700E7
:100D10003408C8003508C9003608CA003708CB00B7
:100D20004430860000308700473FB800B81B992E3A
:100D30009B2E01309C2E00304001B900BA013908C9
:100D4000C2003A08C300420843040319A82EA92E82
:100D5000C72EC409C509C609C709C809C909CA09EE
:100D6000CB09C40A031DC72EC50A031DC72EC60A18
:100D7000031DC72EC70A031DC72EC80A031DC72E91
:100D8000C90A031DC72ECA0A031DC72ECB0A41017B
:100D9000C21BCB2ECC2ED12EFD304001EE05FF30F4
:100DA000EF0541014208803A4001B8008030380226
:100DB000031DDD2E0130410141020318E02EE12E1A
:100DC000E72E01304001BD000030BE00EF2E410192
:100DD00042084001BE00410141084001BD004101FF
:100DE00040084001C10041013F084001C0004208E5
:100DF0004304031DFC2EFD2E012F6E1D002F012F1D
:100E0000052FFF30C007FF30C13D1F30CC00003040
:100E1000CD004201BF01752FFF304001CC07FF30EC
:100E2000CD3D0A30A000A101A201A301A401A501AA
:100E3000A601A7014408A8004508A9004608AA0081
:100E40004708AB004808AC004908AD004A08AE00AE
:100E50004B08AF0084319324863140012108F4000F
:100E60002008F3008E31A52686317308303E4001FC
:100E7000B8004C08203E8600013087003808810009
:100E8000FF30BD07FF30BE3DFF30C007FF30C13D22
:100E90000A30A000A101A201A301A401A501A6019D
:100EA000A7014408A8004508A9004608AA00470869
:100EB000AB004808AC004908AD004A08AE004B083A
:100EC000AF0085317D25863140012008C40021080E
:100ED000C5002208C6002308C7002408C80025084A
:100EE000C9002608CA002708CB0040014D08803AF7
:100EF000B80080303802031D7F2F01304C02031CE4
:100F0000822F832FB02F4001440845044604470434
:100F1000480449044A044B04031D8F2F902F0C2FC3
:100F20003E08803AB80080303802031D992F013006
:100F30003D0203189C2F9D2F0C2F40014108803A41
:100F4000B80080303802031DA72F01304002031C77
:100F5000AA2FAB2FB02F4001EE18AF2FB02F0C2FC0
:100F6000400142084304031DB62FB72FBB2F6E1D4F
:100F7000BA2FBB2FD72FFF30CC07FF30CD3D420813
:100F80004304031DC42FC52FCA2F2B30BB000030D4
:100F9000BC00CE2F2D30BB000030BC003B08B80099
:100FA0004C08203E860001308700380881004C083C
:100FB000203EB8003808A4004108A6004008A5005B
:100FC0003F088231A822863140012508B10024085B
:100FD000B00008004001EE01EF01A03084000030B5
:100FE0008500323080310420873120308400013088
:100FF0008500203080310420873140018231FE2A73
:10100000E5340C3464340D344A340D345334023432
:10101000C43401343B340D3437340034EA340C34F6
:10102000EF340C34F4340C34F9340C34FE340C3416
:1010300003340D3408340D340D340D34D4340F34EE
:1010400050347234653473347334753472346534A7
:1010500020343D3420342534693420340D340A34AE
:0210600000345A
:10196200013008000530080048011E1708004E012A
:101972000F1008004301901208004E0119100800D0
:101982004301111408004301911408004301111589
:10199200080043019115080043010C0808004E019C
:1019A2000F14080043019116111608004301911209
:1019B2001116080048011E0E890C01390800F000BA
:1019C200700843018C0008004101BC10BB010E30BD
:1019D20008008C31C4248C31013008008C31C424BD
:1019E2008C31023008008C31C4248C310130080063
:1019F2008C31C7248C31003008008C31D7248C31D3
:101A0200053008008C31D3248D310A3008008C3126
:101A1200D3248D31093008004101BC10BB010E30C6
:101A2200080000308E31F5268D3108007108410121
:101A3200C4007008C300080071084101C8007008A2
:101A4200C700080071084101C6007008C5000800FF
:101A52004301110E890C890C013908004E010F1C3B
:101A6200332D342D2F2D0800F10071088D316D2595
:101A72008D31080041013C108C31CA248D31043073
:101A820008004F0196019701980199019A019B0163
:101A9200080041013C1436358C31E0248D3103308D
:101AA200080043018F010830900091014F308D00F2
:101AB20090120800F00048011E18602D612D632D60
:101AC20070089600080041013C140314360D8C3155
:101AD200E0248D3105300800F0004E010F1E722DFA
:101AE200732D6E2D700842019A00080010305101CA
:101AF2008D008F019101053093009201101C822DFF
:101B0200832D7F2D08007608F1007508F000770814
:101B1200F8007808F20000308F315A278D31080022
:101B2200982D8D312F258D318F31A9278D3141018E
:101B3200BC189C2D9D2D922D08004301901AA22DB8
:101B4200A32DAA2D8F010830900091014F308D00F6
:101B5200901608007608F1007508F0007708F80082
:101B62007808F20002308F315A278D310800F300D5
:101B72004101BC1DBD2DBE2DC72D7308F200720898
:101B8200B7007108B9007008B800BC110800023033
:101B9200F0000030F10079088D31B8258D31003028
:101BA200F500F600F7018D3184258D3104300800EF
:101BB2000130F0000030F10079088D31B8258D3107
:101BC2000030F500F600F7018D3184258D310230A9
:101BD20008000230F0000030F10079088D31B8259C
:101BE2008D310030F500F600F7018D3184258D31FD
:101BF200023008000130F0000030F10079088D3128
:101C0200B8258D310030F500F600F7018D318425BD
:101C12008D31043008000230F0000030F100790804
:101C22008D31B8258E310030F500F600F7018D3187
:101C320084258E31043008000130F0000030F100BC
:101C420079088D31B8258E310030F500F600F701A4
:101C52008D3184258E31043008000130F0000030CF
:101C6200F10079088D31B8258E310030F500F6008B
:101C7200F7018D3184258E31023008000230F000E8
:101C82000030F10079088D31B8258E310030F50031
:101C9200F600F7018D3184258E310230080068305C
:101CA2004001EA006A08ED006708DF006608DE000E
:101CB2006D30EA006A08E0000030803166208E3123
:101CC20008008D3142258E318D3152258E3182317F
:101CD2000A228E318D3177258E318F3136278E3122
:101CE2008F3113278E310800790886008701403F23
:101CF200F000413FF1007908023E860087010108A9
:101D02008D31B8258E310030F500F600F7018D31A6
:101D120084258E3102300800790886008701403F11
:101D2200F000413FF1007908023E86008701010878
:101D32008D31B8258E310030F500F600F7018D3176
:101D420084258E31023008007408803AF500803014
:101D52007502031DAE2E013073020318B12EB22E8E
:101D6200BE2E7309F5007409F600F50A0319F60A86
:101D72007508F3007608F400BE2E0800F40074081B
:101D8200F2007208F300C92E0130F2007208F40763
:101D920074088600013087000108031DD12ED22E5F
:101DA200C52E73087402F000F101F01BF103080064
:101DB200F101F10A4101BC18DF2EE02EF32E3C1195
:101DC200FF30F0007008B6008C31B8248E318C31AF
:101DD200BE248E318C31BB248E3141013B08F00090
:101DE2007008F10071080800F800F901F90A4101D0
:101DF200BC18FC2EFD2E112FBC14F9017808031912
:101E0200032F042F072FBA01BA0A0B2F0230F70053
:101E12007708BA008C31C1248E318D3191258E31F3
:101E220079080800083042019F0090309D0024305C
:101E32009E0040309B0003309C000030F0000030D8
:101E4200F1008D311D258F310030F0000030F1009E
:101E52008D3123258F310030F0000030F1008D31BB
:101E620017258F314101CB010800903048019E00B7
:101E720077309F009801990190018D018C01FF300C
:101E82008F00FF308E0091019D0131309C0099013D
:101E920098011F0E0F39013EF00070084101CC007D
:101EA20048011F080F39013EF00070084101CD00C2
:101EB2000800F400700871040319602F612F722F5B
:101EC2007435A03E860087017008C03F7108C13F8B
:101ED2007208F3007408AC3E860087017308810023
:101EE2007F2F7435A03E86008701B130C03F0C3091
:101EF200C13F7408AC3E86008701810108004001A1
:101F0200A300A101A201982F2008FB00FC017B087D
:101F1200F2007C08F3007A08FD007D08F4008131AC
:101F220044218F3101304001A1070030A23D210838
:101F32002307FB007B088600013087000108FC00B4
:101F42007C08A0002008031DA72FA82F852F0800BA
:101F52008C31B8248F3141013C1CB02FB12FBE2FE0
:101F62008D3129258F31003A0319B82FB92FBE2F91
:101F72000F30F40074084101BA0041013A08F4003C
:101F8200F501F435F50D0030740784008830753D95
:101F92008500013F8A00003F0A008F31F600760873
:101FA2004101BA00080041013C100230F000700803
:101FB200BB00E32F8C31F4248F31FF2F8C31F924B5
:101FC2008F31FF2F2E08F0007008F9000430A03E78
:101FD20086008701413F8A00403F0A008F31F100AD
:101FE200F2017208003A0319F72FDF2F7108023A43
:0E1FF2000319DB2F013A0319DB2FDF2F080044
:020000040001F9
:0A000E009C3FFD3F9F3FFF1FFF3F97
:00000001FF
