:020000040000FA
:08000000803102288731E42F52
:10000C004001EB006708ED006608EC004201B4010A
:10001C00B50124286C30E9006908CF006808EA00B3
:10002C006A08D0006B088D317725803140014F086C
:10003C004201B407400150084201B53D40016C0833
:10004C0084006D0885001200031D2D282E28102811
:10005C00420135084001E700420134084001E60046
:10006C000800420123084001C0004201220840015F
:10007C00BF00420121084001BE004201200840019E
:10008C00BD003008C0002F08BF002E08BE002D0890
:10009C00BD003D08B1003E08B2003F08B300400867
:1000AC00B4001730B436B30CB20CB10C890B582811
:1000BC00FF303105B50000303205B6003508813E01
:1000CC00BB00FF30363DBC003C08803AB1008030AC
:1000DC003102031D732817303B02031C7628772846
:1000EC00782821294001BC1B7C287D28DA28FF3088
:1000FC00B100FF30B2007F30B3000030B4003B0AD7
:10010C008B28B437B30CB20CB10C890B872834088C
:10011C00BA003308B9003208B8003108B7003D08FE
:10012C003705B1003E083805B2003F083905B30069
:10013C0040083A05B4003408330432043104031D7A
:10014C00A828A928AA2877283D08B1003E08B200A3
:10015C003F08B3004008B4001F30B436B30CB20CE7
:10016C00B10C890BB328340833043204310403195D
:10017C00C028C128C9283708BD073808BE3D390832
:10018C00BF3D3A08C03D3709B1003809B200390902
:10019C00B3003A09B4003108BD053208BE05330876
:1001AC00BF053408C00519293D08B1003E08B2004E
:1001BC003F08B3004008B4001F30B436B30CB20C87
:1001CC00B10C890BE3283408330432043104031DC9
:1001DC00F028F128FA280030C0000030BF000030B1
:1001EC00BE000030BD0019293D08B1003E08B20028
:1001FC003F08B3004008B4000130B135B20DB30D67
:10020C00B40D890B03293408330432043104031967
:10021C00102911291929BF30C0008030BF000030CF
:10022C00BE000030BD004008B0003F08AF003E08E3
:10023C00AE003D08AD0008004101BE00BA01BB0193
:10024C00400149084101D000400148084101CF005C
:10025C00400147084101CE00400146084101CD0054
:10026C0050084001BD0041014F084001BC00410154
:10027C004E084001BB0041014D084001BA0000305E
:10028C00C1000030C0000030BF000030BE0095310E
:10029C00152581310318532954296D290130410149
:1002AC00BA000030BB005008F3004F08F2004E08B3
:1002BC00F1004D08F0009F31C427813173084101D2
:1002CC00D0007208CF007108CE007008CD0041013B
:1002DC00D301D401420137084101C1004201360863
:1002EC004101C0003A083B04031D7D297E29822967
:1002FC006C1D81298229A0293A083B04031D8729FA
:10030C0088298D292B30A4000030A50091292D308F
:10031C00A4000030A50024084001CB004B08430189
:10032C00A00001304101D3070030D43DFF30C0079D
:10033C00FF30C13D5008F3004F08F2004E08F100A9
:10034C004D08F00094310D24813170037104031DAC
:10035C00B029B129032A40014A08BF3ECB00FF3027
:10036C0003180030CC0000304C021A3003194B0239
:10037C00031CC129C3290130C4290030CD00CE0192
:10038C004D084101A60040014E084101A700260876
:10039C0027040319D229D329DD290030F000A0301D
:1003AC00F1005308A03E9031DD208131E629083060
:1003BC00F000A030F1005308A03E9031DD208131D7
:1003CC00FD304101C007FF30C13DA0304001CB00E2
:1003DC004B08A400410141084001A600410140081E
:1003EC004001A50041013E089231E12281314001DA
:1003FC002508C7002408C600E32F41015008F3006C
:10040C004F08F2004E08F1004D08F00094310D2415
:10041C00813170087104031D142A152A672A4001C2
:10042C004A08BF3ECB00FF3003180030CC00003030
:10043C004C021A3003194B02031C252A272A0130BF
:10044C00282A0030CD00CE014D084101A800400102
:10045C004E084101A900280829040319362A372A15
:10046C00412A0430F000A030F1005308A03E903136
:10047C00DD2081314A2A0C30F000A030F100530805
:10048C00A03E9031DD208131FD304101C007FF30AD
:10049C00C13DA0304001CB004B08A40041014108F4
:1004AC004001A600410140084001A50041013E0861
:1004BC009231E122813140012508C7002408C60091
:1004CC00E32F3F304101D8008030D7000030D600F8
:1004DC000030D500D101D2015008F3004F08F200D2
:1004EC004E08F1004D08F0000030F7000030F60027
:1004FC000030F5000030F4009131E821813103180F
:10050C00882A892A3E2BBA2A41304001A300203088
:10051C00A2000030A1000030A000410158084001A9
:10052C00A700410157084001A600410156084001AF
:10053C00A500410155084001A4008B3120238131D5
:10054C00400123084101D800400122084101D70095
:10055C00400121084101D600400120084101D5008D
:10056C000130D1070030D23D410150084001BD009F
:10057C0041014F084001BC0041014E084001BB0045
:10058C0041014D084001BA004130A3002030A200C7
:10059C000030A1000030A000410158084001A70024
:1005AC00410157084001A600410156084001A50031
:1005BC00410155084001A4008B31202381314001B9
:1005CC002308C1002208C0002108BF002008BE007B
:1005DC009531152581310318F42AF52A8A2A172B0F
:1005EC004130F3002030F2000030F1000030F00018
:1005FC0041015808F7005708F6005608F500550851
:10060C00F40096314C26813173084101D8007208F0
:10061C00D7007108D6007008D500FF30D107FF3025
:10062C00D23D410150084001BD0041014F0840013D
:10063C00BC0041014E084001BB0041014D08400186
:10064C00BA00410158084001C1004101570840015E
:10065C00C000410156084001BF004101550840014E
:10066C00BE00953115258131031C3D2B3E2BF62AFE
:10067C0040014A08CB00CC014B08F6004C08F700AF
:10068C0091314421813176084001CD004D08410162
:10069C00C20042084001CB004B084101BF0067304B
:1006AC004206031D5A2B5B2B802B6A086B04031D1F
:1006BC00602B612B652B0130EA000030EB006B08DE
:1006CC00803A4001CB0080304B02031D702B01306F
:1006DC0041016A020318732B742B7A2B06304101EB
:1006EC00BC000030BD00852B41016B08BD006A08C1
:1006FC00BC00852BEB1B832B842B742B7A2B673044
:10070C004206031D8A2B8B2BC32B5208803A4001C7
:10071C00CB007F304B02031D962BFC304101510264
:10072C00031C992B9A2BBD2B41013C08FF3E400129
:10073C00CB00FF3041013D3D4001CC004C08803ADC
:10074C00CD0041015208803A40014D02031DB22BED
:10075C004101510840014B02031CB52BB62BBD2B9C
:10076C0066304001CB004B084101BF00C32B653004
:10077C004001CB004B084101BF003D08B5003C08CF
:10078C00B40067304206031DCC2BCD2BD72B663023
:10079C003F06031DD22BD32BDB2BD21FD62BD72BF3
:1007AC00DB2B0130B4070030B53D66303F06031D2E
:1007BC00E02BE12BF92BD21FE42BE52BEF2B3F3059
:1007CC00D8008030D7000030D6000030D500D101E1
:1007DC00D201673042060319F42BF52BF92B510883
:1007EC00B4075208B53DCB01CC015008C6004F08E8
:1007FC00C5004E08C4004D08C3005808A300570894
:10080C00A2005608A1005508A000BA2C41015808B6
:10081C00F3005708F2005608F1005508F00046089E
:10082C00F7004508F6004408F5004308F40096313B
:10083C004C26813173084001B0007208AF0071087A
:10084C00AE007008AD008031372081314001300896
:10085C004101CA0040012F084101C90040012E0886
:10086C004101C80040012D084101C7004A08F300AE
:10087C004908F2004808F1004708F0009331992329
:10088C00813171084101B9007008B8004A08400173
:10089C00A700410149084001A60041014808400158
:1008AC00A500410147084001A4004101580840013E
:1008BC00A300410157084001A20041015608400124
:1008CC00A100410155084001A0008B31202381314A
:1008DC0040012308BD002208BC002108BB002008F1
:1008EC00BA00410146084001C100410145084001E0
:1008FC00C000410144084001BF00410143084001D0
:10090C00BE0090319C20813140013D084101C60060
:10091C0040013C084101C50040013B084101C400B5
:10092C0040013A084101C3004130F3002030F2008D
:10093C000030F1000030F0005808F7005708F600BE
:10094C005608F5005508F40096314C268131730891
:10095C004101D8007208D7007108D6007008D50084
:10096C000130CB070030CC3D4C08803A4001CB0025
:10097C0041013508803A40014B02031DC82C41014E
:10098C0034084B02031CCB2CCC2C0C2C40304001DB
:10099C00A300A030A2000030A1000030A000410153
:1009AC0058084001A700410157084001A600410129
:1009BC0056084001A500410155084001A4008B31A7
:1009CC0020238131400123084101CA004001220843
:1009DC004101C900400121084101C8004001200823
:1009EC004101C70046084001BD00410145084001D6
:1009FC00BC00410144084001BB00410143084001D7
:100A0C00BA0041014A084001C100410149084001B6
:100A1C00C000410148084001BF00410147084001A6
:100A2C00BE0095311525813103181D2D1E2D282D45
:100A3C0000304101CA000030C9000030C80000304D
:100A4C00C7004D2D41014608F3004508F20044084B
:100A5C00F1004308F0004A08F7004908F60048087E
:100A6C00F5004708F4009131E8218131031C3F2D3A
:100A7C00402D4D2D41013818442D452D4D2D003064
:100A8C00CA000030C9000030C8000030C700410166
:100A9C004A08F3004908F2004808F1004708F00042
:100AAC005008F7004F08F6004E08F5004D08F4000A
:100ABC008831E120813173084101C6007208C500FC
:100ACC007108C4007008C3002308D8002208D7009E
:100ADC002108D6002008D50065303F060319772D74
:100AEC00782D7D2D5208B7005108B6007F2DB60128
:100AFC00B701B201B301B001B101CB01CC01AA2EF7
:100B0C0041015808F3005708F2005608F100550847
:100B1C00F0004608F7004508F6004408F5004308C5
:100B2C00F40096314C26813173084001B0007208F4
:100B3C00AF007108AE007008AD00803137208131F4
:100B4C00400130084101CA0040012F084101C90091
:100B5C0040012E084101C80040012D084101C70089
:100B6C004A08F3004908F2004808F1004708F00071
:100B7C0093319923813171084101B9007008B80093
:100B8C006C1AC92DCA2DDF2D38083904031DCF2D41
:100B9C00D02DDF2D67304206031DD52DD62DDF2D30
:100BAC00B71FD92DDA2DDF2D0130B0070030B13D44
:100BBC00382E32083304031DE42DE52D1C2EB71FEF
:100BCC00E82DE92D1C2E2E304001CB00410153089D
:100BDC00A03E86000130870040014B0881000130A7
:100BEC004101D3070030D43DFF30C007FF30C13D79
:100BFC000130B2000030B3001C2E30304001CB006D
:100C0C0041015308A03E86000130870040014B088B
:100C1C00810001304101D3070030D43DFF30C007C3
:100C2C00FF30C13DFF30B007FF30B13D300831041B
:100C3C00031D212E222E032E3808303E4001CB00FE
:100C4C0041015308A03E86000130870040014B084B
:100C5C00810001304101D3070030D43DFF30C00783
:100C6C00FF30C13D4A084001A7004101490840013D
:100C7C00A600410148084001A50041014708400178
:100C8C00A400410158084001A3004101570840014C
:100C9C00A200410156084001A10041015508400144
:100CAC00A0008B312023813140012308BD00220894
:100CBC00BC002108BB002008BA00410146084001D5
:100CCC00C100410145084001C000410144084001F8
:100CDC00BF00410143084001BE0090319C2081318E
:100CEC0040013D084101C60040013C084101C500DE
:100CFC0040013B084101C40040013A084101C300D6
:100D0C004130F3002030F2000030F1000030F000F0
:100D1C005808F7005708F6005608F5005508F40077
:100D2C0096314C26813173084101D8007208D700E6
:100D3C007108D6007008D500FF30B607FF30B73DFC
:100D4C000130CB070030CC3D4C08803A4001CB0041
:100D5C0041013508803A40014B02031DB82E410178
:100D6C0034084B020318BB2EBC2ECC2E4101540868
:100D7C00803A4001CB0080304B02031DC82E4B3013
:100D8C0041015302031CCB2ECC2E862D410132087F
:100D9C003304031DD22ED32EE82E6C1ED62ED72E46
:100DAC00E82E2E304001CB0041015308A03E8600B6
:100DBC000130870040014B08810001304101D3070D
:100DCC000030D43D5308A03E8600013087008101DD
:100DDC0065303F06031DF32EF42ECC2F4F30CB0085
:100DEC000030CC004B08A03E86000130870081010A
:100DFC00BA01BB01D21F032F042F0D2F0130BA00F3
:100E0C000030BB00D109D209D10A0319D20A023031
:100E1C00BC000030BD00482FFF304101CB07FF3034
:100E2C00CC3D0A30F0000030F1005208F3005108BC
:100E3C00F2009231362281317008303E4001CB00F5
:100E4C0041014B08A03E86000130870040014B0851
:100E5C0081000A30F0000030F10041015208F3002B
:100E6C005108F20093313A23813171084101D200CB
:100E7C007008D100FF30BC07FF30BD3DFF30C0070C
:100E8C00FF30C13D51085204031D4D2F4E2F122F20
:100E9C003D08803A4001CB0080304B02031D592F96
:100EAC00013041013C0203185C2F5D2F122FFF30E3
:100EBC004101CB07FF30CC3D3A083B04031D672FA3
:100ECC00682F6D2F2B30AA000030AB00712F2D3006
:100EDC00AA000030AB002A084001CB0041014B08AE
:100EEC00A03E86000130870040014B088100FF3096
:100EFC004101C007FF30C13DFF30CB07FF30CC3D77
:100F0C0040014A08BF3ECB00FF3003180030CC0034
:100F1C0000304C021A3003194B02031C962F982FE9
:100F2C000130992F0030CD00CE014D084101AE00AB
:100F3C0040014E084101AF002E082F04031DA72FBE
:100F4C00A82FAD2F6530AC000030AD00B12F45306F
:100F5C00AC000030AD002C084001CB0041014B0827
:100F6C00A03E86000130870040014B088100FF3015
:100F7C004101C007FF30C13D4B08A03EF0000130DD
:100F8C00F1005308A03E9031DD208131A0304001AA
:100F9C00CB004B08A400410141084001A6004101CF
:100FAC0040084001A50041013E089231E122813107
:100FBC0040012508C7002408C60008004001EF01C5
:100FCC004101EA01EB01EC01ED01EE01EF012030F2
:100FDC008400013085001E309F31B4278731A0304A
:100FEC0084000130850050309F31B4278731400197
:040FFC0094318C2C74
:101002004F0196019701980199019A019B010800ED
:101012004001A300A101A20121282008FB00FC013C
:101022007B08F2007C08F3007A08FD007D08F400DA
:1010320091316921883101304001A1070030A23D80
:1010420021082307FB007B08860001308700010886
:10105200FC007C08A0002008031D302831280E283F
:1010620008004001A701A801A001A1013C2801300C
:10107200F6070030F73DA601A60A76088400770835
:1010820085001200203A0319472848285D2876086F
:101092008400770885000008F73EF800FF30031847
:1010A2000030F90000307902053003197802031C80
:1010B2005B285C285D28A6012608F800F90178085B
:1010C200A2007908A30022082304031D69286A28C4
:1010D200382874280130A0000030A1000130F60742
:1010E2000030F73DA82876088400770885000008BC
:1010F200F800F9017908003A03198028A82878082D
:101102002B3A03196F28063A03196B28A828760888
:101112008400770885000008F8002808F1002708F5
:10112200F0000A30F2000030F30090317D20883167
:101132007108FA0078087002F900031CFA037908B2
:10114200303E4001A70000307A3DA8006F287608A3
:101152008400770885000008D03EF800FF300318AD
:101162000030F900003079020A3003197802031CBA
:10117200BB28BD280130BE280030FA00FB017A08E6
:10118200A4007B08A50024082504031DC928CA2839
:10119200882820082104031DCF28D028DC2827090D
:1011A200F8002809F900F80A0319F90A7808F60084
:1011B2007908F700E0282808F7002708F600080059
:1011C200730880394001A0002008F8007335A000A0
:1011D2002008FA00F21FEE28EF28F0287A147A0885
:1011E2000319F428F52805297A0A031DF928FA2893
:1011F20002290030F3000030F2000030F10000302C
:10120200F000F217F3010D290030F3000030F20074
:101212000030F1000030F00077088039A00020088B
:10122200F900790878060319172918291929781756
:101232007735A0002008F900F61F2029212922294C
:10124200791479080319262927293729790A031DD0
:101252002B292C2934290030F7000030F600003009
:10126200F5000030F400F617F7013F290030F700CF
:101272000030F6000030F5000030F4007A08790200
:101282000318442945298929781F482949294D29C4
:101292008030A0002008F8067A08A0002008FB0091
:1012A2007908A0002008FA007B08A0002008F900B5
:1012B2007008A0002008FB007408A0002008F000BD
:1012C2007B08A0002008F4007108A0002008FB00A1
:1012D2007508A0002008F1007B08A0002008F50096
:1012E2007208A0002008FB007608A0002008F20087
:1012F2007B08A0002008F6007308A0002008FB006D
:101302007708A0002008F3007B08A0002008F7005F
:10131200FB017908A000A1012108A3007A0820029C
:10132200A200031CA3032308803AA40080302402F5
:10133200031D9D291A302202031CA029A129DB29A1
:101342007308720471047004031DA829AA290130CC
:10135200AB2900304001A0002008FB000030F30060
:101362000030F2000030F1000030F0007908A000F7
:101372002008FA00E1297B1CBF29C029C7297B3636
:1013820001384001A0002008FB00C9290310FB0C12
:10139200701CCC29CD29CE29FB1701304001A000B9
:1013A200F337F20CF10CF00CA00BD1290130A000A4
:1013B2002008FA0779087A02031CE029E129BC29EE
:1013C200781BE429E5291F2A7A08031DE929EA295D
:1013D200F3290030F3000030F2000030F100003059
:1013E200F0001F2B7408F0077508F13D7608F23DF6
:1013F2007708F33D731CFE29FF29AC2A7B1C022AC5
:10140200032A0A2A7B3601384001A0002008FB008B
:101412000C2A0310FB0C701C0F2A102A112AFB172E
:1014220001304001A000F337F20CF10CF00CA00BDC
:10143200142A0130A0002008FA07AC2A7308803A67
:101442004001A0007708803A2002031D322A760864
:101452007202031D322A75087102031D322A7408B2
:1014620070020318352A362A6E2AFF30A000FF3098
:10147200A100FF30A200FF30A30070087402A40094
:101482007108753BA5007208763BA6007308773B8E
:10149200A7002408A0072508A13D2608A23D270889
:1014A200A33D2308F3002208F2002108F1002008DE
:1014B200F0008030A0002008F806FB09FB0A7B0838
:1014C200031D642A652A762A0130F0070030F13DB7
:1014D2000030F23D0030F33D762A7408F0027508C0
:1014E200F13B7608F23B7708F33B73087204710410
:1014F2007004031D7D2A7E2AA82A7B08031D822AE6
:10150200832AA82A0030F3000030F2000030F100F4
:101512000030F0001F2B0130F035F10DF20DF30D0C
:10152200890B8D2AFB1F962A972A982A70147B1CF6
:101532009B2A9C2A9F2A0314FB0DA12A0310FB0D50
:101542007A080319A52AA62AA82A0130FA02F21F4C
:10155200AB2AAC2A8C2AF901FB1FB02AB12ABF2A76
:101562007B087F390319B62AB72ABA2AF901F90A80
:10157200BF2A701CBD2ABE2ABF2AB72A79080319BE
:10158200C32AC42AF22A0130F0070030F13D0030AC
:10159200F23D0030F33D731CCF2AD02AF22A7008A4
:1015A2004001A0007108A1007208A2007308A30004
:1015B2000130A400A337A20CA10CA00CA40BDB2ABF
:1015C2002308F3002208F2002108F1002008F000AD
:1015D2007A0A0319ED2AEE2AF22A0130A000200825
:1015E200FA077A0A0319F62AF72AFC2A7A08031D4F
:1015F200FB2AFC2A0A2B0030F3000030F2000030F4
:10160200F1000030F0007A08031D082B092B0A2B89
:10161200F8017A1C0D2B0E2B102BF217152B7F3095
:101622004001A0002008F2057A364001A0002008FF
:10163200F300F81F1D2B1E2B1F2BF3170800400170
:1016420023088039A8002808AD002335A8002808FF
:10165200B300A21F2D2B2E2B2F2B3314330803196B
:10166200332B342B432B330A031D382B392B412BBD
:101672000030A3000030A2000030A1000030A00022
:10168200A2174B2B0030A3000030A2000030A100B3
:101692000030A00027088039A8002808AD062735A9
:1016A200A8002808B200A61F572B582B592B32141A
:1016B200320803195D2B5E2B6D2B320A031D622B40
:1016C200632B6B2B0030A7000030A6000030A50072
:1016D2000030A400A617752B0030A7000030A6002A
:1016E2000030A5000030A40032080319792B7A2BB0
:1016F2007F2B3308031D7E2B7F2B882B0030A3000A
:101702000030A2000030A1000030A000762D200899
:10171200A8002808F0002608913121218B31710898
:101722004001B9007008B8003808A800A901AA0150
:10173200AB012B08B1002A08B0002908AF00280825
:10174200AE003908A800A901AA01AB012B08B70015
:101752002A08B6002908B5002808B4002108A80004
:101762002808F0002508913121218B3171084001B0
:10177200B9007008B8003808A800A901AA01AB0195
:101782002808AE072908AF3D2A08B03D2B08B13D15
:101792003908A800A901AA01AB012808B407290841
:1017A200B53D2A08B63D2B08B73D2208A8002808F7
:1017B200F0002408913121218B3171084001B900D8
:1017C2007008B8003808A800A901AA01AB012808CE
:1017D200AE072908AF3D2A08B03D2B08B13D3908B4
:1017E200A800A901AA01AB012808B4072908B53D40
:1017F2002A08B63D2B08B73D0830AE35AF0DB00D07
:10180200B10D890BFE2B2108A8002808F00024083E
:10181200913121218B3171084001B9007008B80063
:101822003808AE073908AF3D0030B03DB13D200861
:10183200A8002808F0002508913121218B31710878
:101842004001B9007008B8003808AE073908AF3D4A
:101852000030B03DB13D0830AE35AF0DB00DB10D29
:10186200890B2D2C2008A8002808F00024089131AB
:1018720021218B3171084001B9007008B800380885
:10188200AE073908AF3D0030B03DB13D2108A80098
:101892002808F0002608913121218B31710840017E
:1018A200B9007008B8003808B4073908B53D0030EF
:1018B200B63DB73D2208A8002808F000250891315E
:1018C20021218B3171084001B9007008B800380835
:1018D200B4073908B53D0030B63DB73D2208A8002F
:1018E2002808F0002608913121218B31710840012E
:1018F200B9007008B8003808A8003908A900AA0180
:10190200AB010830A835A90DAA0DAB0D890B832CAC
:101912002808B4072908B53D2A08B63D2B08B73D6B
:101922002E08A8002F08A9003008AA003108AB0031
:101932001830AB36AA0CA90CA80C890B9A2C2808D3
:10194200B4072908B53D2A08B63D2B08B73D083033
:10195200AE35AF0DB00DB10D890BA92C330832078E
:10196200A800A901A90D2808823EB800FF30293D30
:10197200B900D22C0130B435B50DB60DB70D890BB7
:10198200BC2CB11FC52CC62CC72C34140130AE356B
:10199200AF0DB00DB10D890BC82CFF30B807FF3069
:1019A200B93DB61FD52CD62CBB2CB201B11FDA2CF7
:1019B200DB2CF72CFF302E05A800FF302F05A900E5
:1019C200FF303005AA007F303105AB002B082A0416
:1019D200290428040319EE2CEF2CF22CB201B20ACE
:1019E200F72C341CF52CF62CF72CEF2C32080319AB
:1019F200FB2CFC2C242D0130B4070030B53D003007
:101A0200B63D0030B73D371C072D082D242D340874
:101A1200A8003508A9003608AA003708AB00013033
:101A2200AC00AB37AA0CA90CA80CAC0B122D2B08DE
:101A3200B7002A08B6002908B5002808B40001300A
:101A4200B8070030B93D3908803AA8008030280232
:101A5200031D2D2DFF303802031C302D312D3B2D5F
:101A62007F304001B7008030B6000030B500003052
:101A7200B4006A2D40013908803AA800803028025B
:101A8200031D452D013038020318482D492D542DD0
:101A920000304001B7000030B6000030B500003021
:101AA200B400AD016A2D40013808A8002808B3002F
:101AB200FF30B405FF30B5057F30B6050030B705FD
:101AC200331C642D652D662DB6173336A800280801
:101AD200B7002D08A8002808B7043708A300360865
:101AE200A2003508A1003408A00008004001E5006A
:101AF2004F0886008701403FD100413FD200510884
:101B02008400520885001200253A031D892D8A2D72
:101B1200DC2F4F088600870101308107413103180D
:101B2200810A4201B601B7014101EC01ED01FF302A
:101B3200EA00FF30EB004001D701D801E12D41015D
:101B42006C1440014F088600870101308107413142
:101B52000318810AE12D4101EC14A22D41016C15FB
:101B6200A22D4101EC15A22D41016C16A22D0130CE
:101B7200D7000030D800E12D4F0886008701403F92
:101B8200D100413FD200510884005208850000086C
:101B9200D300D4015408003A0319D02DB82D5308AC
:101BA200203A0319B22D033A0319B52D083A031945
:101BB200AF2D063A0319A02D1D3A0319AC2DB82DED
:101BC200570858040319E62DE72DBD2D41016C1C61
:101BD200EB2DEC2DF02DFD30EC05FF30ED05400135
:101BE2004F0886008701403FD100413FD200510893
:101BF20084005208850012002E3A031D012E022E87
:101C0200772E4101EA01EB0140014F08860087016E
:101C12000130810741310318810A4F08860087018C
:101C2200403FD100413FD200510884005208850054
:101C320012002A3A031D1E2E1F2E352E4F08860033
:101C420087010130810741310318810A500886005B
:101C5200870101088400850102308107003F4101AC
:101C6200EA00013FEB00772E4F0886008701403FD4
:101C7200F600413FF700883132208D31770841016B
:101C8200EB007608EA004D2E4F08860087010130EE
:101C9200810741310318810A40014F0886008701FC
:101CA200403FD100413FD2005108840052088500D4
:101CB2000008D03ED300FF3003180030D4000030BB
:101CC20054020A3003195302031C682E6A2E013093
:101CD2006B2E0030D500D6015508D9005608DA001F
:101CE20059085A04031D762E772E452E40014F08BF
:101CF20086008701403FD100413FD2005108840055
:101D0200520885000008D300D4015308F600540895
:101D1200F700913144218D3176084001D5005508F4
:101D2200E10061080319962E972ED62E4F088600E1
:101D32008701403FD100413FD2000130510784006A
:101D420052080318520A85000008D300D401530830
:101D5200F6005408F700913144218D317608400194
:101D6200D5005508E20062080319B82EB92ED62E06
:101D72004F0886008701403FD100413FD200023028
:101D82005107840052080318520A85000008D30044
:101D9200D4015308F6005408F700913144218D31E3
:101DA20076084001D5005508E30066306106031D40
:101DB200DB2EDC2E192F4F0886008701403FD10011
:101DC200413FD20051088400520885000008D30028
:101DD2005308E4004F088600870101308107413132
:101DE2000318810A500886008701010884008501D2
:101DF20004308107003FDD00013FDE00023FDF00CB
:101E0200033FE0006008C9005F08C8005E08C70021
:101E12005D08C6006408D1005108CA006508813116
:101E220022218D3140014708D0004608CF00FF2F04
:101E32001030F000A030F1000230F2000030F30068
:101E42006130923189228D3170087104031D2A2F6D
:101E52002B2FA62F40014F0886008701403FD1005B
:101E6200413FD20001305107840052080318520A40
:101E720085000008D3005308E4004F08860087015C
:101E8200403FD100413FD2005108840052088500F2
:101E92000008BF3ED300FF3003180030D4000030EA
:101EA20054021A3003195302031C582F5A2F0130BF
:101EB2005B2F0030D500D6015508DB005608DC0048
:101EC2005B085C040319662F672F782F5008860081
:101ED200870101088400850104308107003FDD008D
:101EE200013FDE00023FDF00033FE000882F500881
:101EF2008600870101088400850104308107003FC4
:101F0200DD00013FDE00023FDF00033FE0004F083B
:101F1200860087010230810741310318810A600877
:101F2200C9005F08C8005E08C7005D08C6006408F3
:101F3200D1005108CA006508813122218D3140014A
:101F42004708D0004608CF00FF2F40014F08860007
:101F52008701403FD100413FD2005108840052081E
:101F620085001200253A031DB72FB82FD12F4F0835
:101F7200860087010130810741310318810A25302B
:101F8200F2000030F3006508D1005108F4009131ED
:101F920069218D3101304001CF000030D000FF2F88
:101FA2004F08860087010130810741310318810AF9
:101FB200CF01D001FF2F4F0886008701403FD1009B
:101FC200413FD20051088400520885000008D30026
:101FD200D4015308F2005408F3006508D5005508EF
:101FE200F400913169218D3140014F08860087014B
:101FF2000130810741310318810ACB2F0800DB3001
:102002004001EE006E084101E1005A084001E7007C
:10201200410159084001E600E130EE006E08E80097
:10202200003080310620903108007008D03EF20066
:10203200FF30713DF300003073020A30031972025F
:10204200031C24282628013027280030F400F5013B
:102052007408F0007508F10008007008BF3EF20035
:10206200FF30713DF300003073021A30031972021F
:10207200031C3C283E2801303F280030F400F501C3
:102082007408F0007508F1000800F4007408F2000A
:102092007208F30050280130F2007208F407740845
:1020A2008600013087000108031D582859284C2852
:1020B20073087402F000F101F01BF1030800400103
:1020C2001C08F2007208F9001D08F2007208FA00FA
:1020D2007908F200F3017A08F400F5017408F500BA
:1020E200F40172087407F7007308753DF800780868
:1020F200F1007708F0000800F401F501701C822855
:10210200832887287208F4077308F53D0130F235F9
:10211200F30D890B88280130F136F00C890B8D28DC
:1021220070087104031D962897287F287508F1000E
:102132007408F000080080304001BD064108F30039
:102142004008F2003F08F1003E08F0003D08F700A9
:102152003C08F6003B08F5003A08F4008831E1201B
:10216200903173084001BD007208BC007108BB00C9
:102172007008BA000800F401F40A203070067104F5
:102182000319C428C528D5287008F73EF200FF308D
:10219200713DF30000307302053003197202031C13
:1021A200D328D428D528F4017408F200F301720868
:1021B200F0007308F1000800F7007108F5007008DC
:1021C200F4007708F2007208F60076088600013003
:1021D2008700F60A7508F3007408F200F40A03197E
:1021E200F50A72088400730885000008C03F890858
:1021F200031DFC28FD28E6280800083042019F0044
:1022020090309D0024309E0040309B0003309C00A3
:102212000030F0000030F1009F31A22790310030F1
:10222200F0000030F1009F31A82790310030F0001B
:102232000030F1009F319C2790314001EF010800EE
:10224200F800F401F5017008F200F3017208F600DB
:102252007308F700781C2E292F2933297608F407F2
:102262007708F53D0130F635F70D890B3429031057
:10227200F80C7808031D3E293F292B297508F10027
:102282007408F00008007608BF3EF800FF30773D82
:10229200F900003079021A3003197802031C52291E
:1022A2005429013055290030FA00FB017A08FC005C
:1022B2007B08FD007C087D040319602961296829D7
:1022C20020307604F60000307704F7006829080011
:1022D200740803196D296E2973297408031D722964
:1022E2007329782972089F31AE279131A729740882
:1022F200033E860087011600010403198129822901
:102302009F297408033E86008701403FF500413F44
:10231200F600740A86008701403FF700413FF8004B
:102322007808803AF9007608803A7902031D9B29E1
:102332007508770203189E299F29A729740A860027
:1023420087010130810741310318810A08004001E9
:102352009A01990196019701980107309500FF3083
:102362009100BF309200FF309300FF309400FF30A5
:102372007E01D900FF30CE007F30C3000730E40079
:10238200FF30B800DA01E501C401B901CF01E6016D
:10239200BA01C501D001DB01FF30BB00FF30C6002E
:1023A200FF30D100FF30DC000730E700FF30BC0017
:1023B200FF30C700FF30D200FF30DD000F30E800F1
:1023C2000F307D01CB0010307E019E0008000030EE
:1023D2007005F80000307105F90080307205FA00CE
:1023E2007F307305FB007B087A0479047804031DAF
:1023F200FB29FC29042A0030F3000030F2000030EF
:10240200F1000030F00000307405F800003075056E
:10241200F90080307605FA007F307705FB007B08F3
:102422007A0479047804031D172A182A202A003016
:10243200F7000030F6000030F5000030F4007708B5
:102442007306031D2E2A76087206031D2E2A7508AE
:102452007106031D2E2A740870060319312A322AC6
:10246200342A0310352A03140800F601F31F3A2A0E
:102472003B2A422AF209F309F20A0319F30AF60186
:10248200F60AF11F452A462A4B2AF009F109F00AF9
:102492000319F10A700871040319502A512A7A2A81
:1024A200F501F50A5D2A0130F035F10D890B552A47
:1024B2000130F4007408F507F11F602A612A542ADA
:1024C20071087302031D672A70087202031C6A2ACC
:1024D2006B2A6F2A7008F2027108F33B0130F13661
:1024E200F00C890B702A0130F502031D792A7A2A31
:1024F200612A760803197E2A7F2A842AF209F309BF
:10250200F20A0319F30A7308F1007208F0000800D6
:10251200F5007508F4007408F8007108F7007008F7
:10252200F6000130F2020030F33B720A031D9D2ACD
:10253200730A031D9D2A9E2AAD2AF001F101E02AA9
:102542000130F4007408F8070130F6070030F73D57
:102552000130F2020030F33B78088600870101085F
:102562000319B42AB52AD32A76088400770885008D
:1025720012000319BD2ABE2AD32A72087304031952
:10258200C32AC42AD32A7608840077088500000863
:10259200F400780886008701010874060319D22A1C
:1025A200D32AA12A78088600870176088400770852
:1025B200850000080102F000F101031CF10308008C
:1025C2004001AC0041016C1CE72AE82AF12A4001D3
:1025D2002C08A7002708FA00240888310920923124
:1025E2004001A61BF52AF62AFB2A2608AB0025087D
:1025F200AA00FD2AAA01AB01A801A901112B2030D2
:10260200F2000030F30040012C08A7002708F40074
:1026120091316921923101304001A8070030A93D72
:102622002908803AA7002B08803A2702031D1B2B9A
:102632002A082802031C1E2B1F2B002B41016C1899
:10264200232B242B2D2B40012C08A7002708FA004E
:102652002408883109209231400124089031462013
:10266200923140012A087007A4002B08713DA50091
:102672000800F601F11F3E2B3F2B462BF009F10912
:10268200F00A0319F10AF601F60AF31F492B4A2B45
:10269200532BF209F309F20A0319F30A0130F40089
:1026A2007408F606F701F8017008710403195A2B31
:1026B2005B2B8A2BF501F50A672B0130F035F10D02
:1026C200890B5F2B0130F4007408F507F11F6A2BA8
:1026D2006B2B5E2B0130F735F80D890B6C2B7108D3
:1026E2007302031D762B70087202031C792B7A2B5E
:1026F2007F2B7008F2027108F33B77140130F13638
:10270200F00C890B802B0130F502031D892B8A2BDB
:102712006B2B760803198E2B8F2B942BF709F80954
:10272200F70A0319F80A7808F1007708F0000800A0
:102732000310720D730DF4007408FA007A08031D79
:10274200A32BA42BAD2B0030F3000030F20000309D
:10275200F1000030F0000C2C7008F4007108F50054
:102762007208F6007308F7001F30F736F60CF50C06
:10277200F40C890BB62B7408F8007808F900F217EC
:10278200FF30F005FF30F105FF30F2050030F305B0
:102792009630FA02FA1FCE2BCF2BE72B7A08803A1B
:1027A200973E0318D52BD62BD72BA42B0130F3360B
:1027B200F20CF10CF00C890BD82B0130F4007408E8
:1027C200FA07031DE52BE62BD72BFC2B20307A02D0
:1027D200031CEC2BED2BF72BA42B0130F035F10D64
:1027E200F20DF30D890BEF2B0130FA027A08031D6B
:1027F200FB2BFC2BEE2B79080319002C012C0C2C43
:10280200F009F109F209F309F00A0319F10A0319AF
:10281200F20A0319F30A0800420127084001A50041
:10282200420126084001A400420125084001A300FC
:10283200420124084001A2007308A5007208A40006
:102842007108A3007008A2002208F4002308F50012
:102852002408F6002508F7001730F736F60CF50CB9
:10286200F40C890B2E2CFF307405A0000030750586
:10287200A10020082104031D3F2C402C612C2208BA
:10288200F4002308F5002408F6002508F7000130BB
:10289200F435F50DF60DF70D890B492C7708760402
:1028A20075047404031D562C572C5C2C0230F00066
:1028B2000030F1008B2C0330F0000030F1008B2C43
:1028C200200A2104031D662C672C872C2208F400A1
:1028D2002308F5002408F6002508F7000930F4352E
:1028E200F50DF60DF70D890B702C7708760475043B
:1028F200740403197D2C7F2C0130802C0030F800E9
:10290200F9017808F0007908F1008B2C0430F0000E
:102912000030F10008009F31DC27943190316020B3
:10292200943170084201A8007108A900AA01AB0104
:10293200300828024101E20042013108293B4101ED
:10294200E300420132082A3B4101E400420133081C
:102952002B3B4101E50065084201AF0041016408DB
:102962004201AE00410163084201AD00410162082B
:102972004201AC003F304001A3008330A20012307C
:10298200A1006F30A00042012F08F3002E08F200D0
:102992002D08F1002C08F00000309531A02594316B
:1029A20073084001A7007208A6007108A50070080C
:1029B200A4008B3120239431400123084101E90016
:1029C200400122084101E800400121084101E700DD
:1029D200400120084101E6000030D9009830DA00B9
:1029E2006908DE006808DD006708DC006608DB00B5
:1029F20090310020943152304101E3002B30E2004B
:102A02000030890B022DE20B022DE30B022D000098
:102A120042012B08B3002A08B2002908B100280895
:102A2200B0008F2C80310228003040013A05C200EC
:102A320000303B05C30080303C05C4007F303D05BB
:102A4200C5004508440443044204031D292D2A2DD0
:102A5200322D0030BD000030BC000030BB00003021
:102A6200BA0000303E05C20000303F05C30080308E
:102A72004005C4007F304105C500450844044304B5
:102A82004204031D452D462D4E2D0030C10000305D
:102A9200C0000030BF000030BE00BD1F512D522DBE
:102AA2006A2D0030C2000030C3000030C400803004
:102AB200C5003A08C2023B08C33B3C08C43B3D0880
:102AC200C53B4508BD004408BC004308BB004208A2
:102AD200BA00C11F6D2D6E2D862D0030C200003050
:102AE200C3000030C4008030C5003E08C2023F0867
:102AF200C33B4008C43B4108C53B4508C1004408EC
:102B0200C0004308BF004208BE008030BD068030CE
:102B1200C10641083D02031D982D40083C02031DD9
:102B2200982D3F083B02031D982D3E083A020318D8
:102B32009B2D9C2D9E2D03109F2D03140800F80041
:102B420078080319A52DA62DBA2DF31FA92DAA2D9C
:102B5200BA2D7009FA007109FB007209FC007309B1
:102B6200FD00FA0A0319FB0A0319FC0A0319FD0AFC
:102B7200C22D7308FD007208FC007108FB0070088A
:102B8200FA007308720471047004031DC92DCA2D62
:102B9200D32D0030F3000030F2000030F10000309D
:102BA200F0004B2E9630F4007408F900E32D01304A
:102BB200F4007408F9070130FD36FC0CFB0CFA0C2A
:102BC200890BDD2DFE307D05031DE82DE92DD82D65
:102BD200FD2D0130F4007408F9070130FA070030C6
:102BE200FB3D0030FC3D0030FD3D0130FD36FC0C6C
:102BF200FB0CFA0C890BF72DFF307D05031D022E0D
:102C0200032EEA2D0D2E0130F9020130FA35FB0DAB
:102C1200FC0DFD0D890B072EFC1B102E112E172EFD
:102C2200023079020318162E172E042E79181A2E46
:102C32001B2E232EFF30FA05FF30FB057F30FC05EB
:102C4200FF30FD050310F90C7908F400F501F601D7
:102C5200F7011830F435F50DF60DF70D890B2B2E13
:102C62007408FA047508FB047608FC047708FD046E
:102C7200780803193D2E3E2E432EF31F412E422E7D
:102C8200432EFD177D08F3007C08F2007B08F1005B
:102C92007A08F000080077088039F80078084001C7
:102CA200A4007735F8007808AB00F61F592E5A2E8B
:102CB2005B2E2B142B0803195F2E602E702E2B0A0D
:102CC200031D642E652E6D2E0030F7000030F600D5
:102CD2000030F5000030F400F617F701782E0030CE
:102CE200F7000030F6000030F5000030F400730801
:102CF2008039F8007808A4067335F8007808AC002B
:102D0200F21F842E852E862E2C142C0803198A2E4F
:102D12008B2E9B2E2C0A031D8F2E902E982E003068
:102D2200F3000030F2000030F1000030F000F21742
:102D3200F301A32E0030F3000030F2000030F10066
:102D42000030F0007308720471047004031DAA2E8F
:102D5200AB2EC42E0030F7000030F6000030F50034
:102D62000030F4008030F6047F30F7042408F800C5
:102D72007808F7047708F3007608F2007508F10086
:102D82007408F000FF2F2B08031DC82EC92ED22E67
:102D92000030F3000030F2000030F1000030F000AB
:102DA200FF2F2B08F800F9017908FB002C087802A4
:102DB200FA00031CFB037A087F3EA50000307B3D2E
:102DC200A6007708A3007608A2007508A10074087F
:102DD200A0000030F7000030F6000030F5000030AF
:102DE200F4000030AA000030A9000030A800003032
:102DF200A700AC013A2F2C080319002F012F1B2F1B
:102E02000130A035A10DA20DA30D890B022F0130B7
:102E1200F435F50DF60DF70D890B092FAA1F122FA8
:102E2200132F142F74140130A735A80DA90DAA0D64
:102E3200890B152F73082302031D292F7208220202
:102E4200031D292F71082102031D292F700820025A
:102E5200031C2C2F2D2F362F2A177008A002710861
:102E6200A13B7208A23B7308A33B0130F80078082B
:102E7200AC071A302C02031C3F2F402FFC2E2308D4
:102E82002204210420040319472F482F612F2714FD
:102E9200612F0130F435F50DF60DF70D890B4B2F2F
:102EA200AA1F542F552F562F74140130A735A80D81
:102EB200A90DAA0D890B572FFF30A507FF30A63D9C
:102EC200F61F642F652F4A2FAC01AA1F692F6A2FA4
:102ED200862FFF302705F800FF302805F900FF3064
:102EE2002905FA007F302A05FB007B087A04790461
:102EF200780403197D2F7E2F812FAC01AC0A862F17
:102F0200741C842F852F862F7E2F2C0803198A2F5D
:102F12008B2FB32F0130F4070030F53D0030F63D22
:102F22000030F73D771C962F972FB32F7408F800C7
:102F32007508F9007608FA007708FB000130FC00FA
:102F4200FB37FA0CF90CF80CFC0BA12F7B08F700ED
:102F52007A08F6007908F5007808F4000130A50730
:102F62000030A63D2608803AF80080307802031D22
:102F7200BC2FFF302502031CBF2FC02FCD2FFF30E7
:102F82004001A5000030A6000030F7000030F60036
:102F92000030F5000030F40040012608803AF800C5
:102FA20080307802031DD72F013025020318DA2F53
:102FB200DB2FE72F4001A501A6010030F70000300A
:102FC200F6000030F5000030F400A40140012508AD
:102FD200F8007808AB002B1CEF2FF02FF22FF6171A
:102FE200F62F7F30F8007808F6052B36F8007808BF
:102FF200F7002408F8007808F704BB2E08005434C0
:1030020069346D34653472342034303420343D34C4
:103012002034253430342E343134663420346D3447
:0830220053340D340A3400346C
:103F380071084201B9007008B80008007108420110
:103F4800BD007008BC00080071084201BB00700881
:103F5800BA000800F10071089F31BA279F310800A4
:103F6800640080010131890BB52F0034F0004E0147
:103F78000F1EBF2FC02FBB2F700842019A000800E8
:103F880073087204710470040319CB2FCC2FCE2F41
:103F98008030F3060800103051018D008F01910127
:103FA800053093009201101CDA2FDB2FD72F080061
:103FB800883101209F319131A8219F319F31CF272E
:103FC8009F319F31EC279F319031FE209F310800AF
:103FD8004D3040019F00FF309D00FF309C001D08C0
:103FE8004101EF0040011C084101EE004E018C1216
:103FF800903040019E00080049344E344634003465
:104008004E3441344E34003469346E3466340034EE
:0E4018006E3461346E3400346C34663400341F
:020000040001F9
:0A000E009C3FFD3F9F3FFF1FFF3F97
:00000001FF
