:020000040000FA
:04000000803114280F
:100008007E1480314E01161E0A280B2812280C1E59
:100018000E280F2812289131572180317E100900AF
:1000280080311628A0308400003085002B309031B4
:10003800BB20803120308400013085004A30903167
:10004800BB208031A0308400013085002C309031F5
:10005800BB2080317E1040019731162F323041018C
:10006800E2006208F00061089131A22180314E3E21
:1000780086000130870093312F23803140014808E2
:10008800C03F4908C13F4A08C23F4B08C33F32300E
:100098004101E2006208F00061089131A22180313B
:1000A800463E86000130870032304101E300630894
:1000B800F00061089131A22180314A3E840001306C
:1000C8008500003F4001DC00013FDD00023FDE000B
:1000D800033FDF0032304101E4006408F0006108AA
:1000E8009131A22180314E3E840001308500003FCD
:1000F8004001E000013FE100023FE200033FE3006E
:1001080092316F22803140015C08C03F5D08C13FD9
:100118005E08C23F5F08C33F32304101E200620817
:10012800F00061089131A22180312E3E8600013015
:10013800870041015D085F024001A00041015E089F
:10014800603B4001A100A201A11BA2032208A30059
:10015800013095317F25803140012008C03F2108BA
:10016800C13F2208C23F2308C33F32304101E200A9
:100178006208F00061089131A2218031363E860084
:100188000130870032304101E3006308F000610864
:100198009131A22180312E3E840001308500003F3C
:1001A8004001AE00013FAF00023FB000033FB10085
:1001B80032304101E4006408F00061089131A22165
:1001C8008031223E840001308500003F4001B200AA
:1001D800013FB300023FB400033FB50083310E2353
:1001E800803140012E08C03F2F08C13F3008C23F70
:1001F8003108C33F32304101E2006208F000610873
:100208009131A22180313A3E860001308700323098
:100218004101E3006308F00061089131A2218031B7
:100228003A3E840001308500003F4001C800013F8C
:10023800C900023FCA00033FCB0032304101E4004D
:100248006408F00061089131A2218031463E8400A3
:1002580001308500003F4001AE00013FAF00023F82
:10026800B000033FB10032304101E5006508F000FD
:1002780061089131A22180312E3E84000130850031
:10028800003F4001B200013FB300023FB400033F0A
:10029800B50083310E23803140013108CF0030088A
:1002A800CE002F08CD002E08CC0085316525803181
:1002B80040014808C03F4908C13F4A08C23F4B08AF
:1002C800C33F32304101E2006208F0006108913119
:1002D800A22180313E3E8600013087003230410144
:1002E800E3006308F00061089131A2218031463EA5
:1002F800840001308500003F4001E400013FE50033
:10030800023FE600033FE70032304101E4006408A1
:10031800F00061089131A2218031323E8400013021
:100328008500003F4001DC00013FDD00023FDE00A8
:10033800033FDF0032304101E5006508F000610845
:100348009131A22180312E3E840001308500003F8A
:100358004001E000013FE100023FE200033FE3000B
:1003680092316F22803140015F08EB005E08EA009D
:100378005D08E9005C08E8008D31F6258031400110
:100388006408C03F6508C13F6608C23F6708C33FAD
:1003980032304101E2006208F00061089131A22187
:1003A8008031363E860001308700403F4001C8005A
:1003B800413FC900423FCA00433FCB0032304101B0
:1003C800E3006308F00061089131A22180313A3ED0
:1003D800860001308700403F4001AE00413FAF003A
:1003E800423FB000433FB10032304101E4006408AD
:1003F800F00061089131A2218031263E860001304B
:100408008700403F4001B200413FB300423FB40083
:10041800433FB50083310E23803140013108CF00BE
:100428003008CE002F08CD002E08CC008531652578
:10043800803140014B08EF004A08EE004908ED0002
:100448004808EC0032304101E2006208F00061081F
:100458009131A2218031423E86000130870032303E
:100468004101E3006308F00061089131A221803165
:100478003E3E840001308500003F4001AE00013F50
:10048800AF00023FB000033FB10032304101E40049
:100498006408F00061089131A22180312A3E84006D
:1004A80001308500003F4001B200013FB300023F28
:1004B800B400033FB50083310E2380314001310879
:1004C800CB003008CA002F08C9002E08C8006F08E2
:1004D800CF006E08CE006D08CD006C08CC008531C9
:1004E8006525803140014808C03F4908C13F4A0896
:1004F800C23F4B08C33F32304101E2006208F000BE
:1005080061089131A22180312E3E8600013087009A
:10051800403F4101E300413FE400423FE500433FE3
:10052800E6003230E7006708F00061089131A22147
:100538008031323E86000130870041016308C03FA8
:100548006408C13F6508C23F6608C33F3230E20015
:100558006208F00061089131A22180314E3E860088
:1005680001308700403F4101E300413FE400423F42
:10057800E500433FE6003230E7006708F000610815
:100588009131A22180314A3E860001308700410125
:100598006308C03F6408C13F6508C23F6608C33F9F
:1005A8003230E2006208F00061089131A221803106
:1005B800423E860001308700403F4001E400413F51
:1005C800E500423FE600433FE7008A31642280317C
:1005D80032304101E2006208F00061089131A22145
:1005E8008031423E860001308700403FF400413FA1
:1005F800F500423FF600433FF7009331FC2380317A
:1006080077084101E0007608DF007508DE0074080D
:10061800DD000800400131088039B6003608BB000B
:100628003135B6003608C100B01F1B2B1C2B1D2B03
:10063800411441080319212B222B312B410A031D98
:10064800262B272B2F2B0030B1000030B0000030B4
:10065800AF000030AE00B017392B0030B1000030C9
:10066800B0000030AF000030AE0035088039B60069
:100678003608BB063535B6003608C000B41F452B12
:10068800462B472B4014400803194B2B4C2B5B2B54
:10069800400A031D502B512B592B0030B500003058
:1006A800B4000030B3000030B200B417632B003040
:1006B800B5000030B4000030B3000030B20040088C
:1006C8000319672B682B6D2B4108031D6C2B6D2BB1
:1006D800762B0030B1000030B0000030AF000030A1
:1006E800AE00642D2E08B6003608F00034089231AA
:1006F800B222833171084001C7007008C60046085D
:10070800B600B701B801B9013908BF003808BE0002
:100718003708BD003608BC004708B600B701B80165
:10072800B9013908C5003808C4003708C3003608BD
:10073800C2002F08B6003608F00033089231B22202
:10074800833171084001C7007008C6004608B6002A
:10075800B701B801B9013608BC073708BD3D3808EC
:10076800BE3D3908BF3D4708B600B701B801B90119
:100778003608C2073708C33D3808C43D3908C53DA7
:100788003008B6003608F00032089231B2228331C0
:1007980071084001C7007008C6004608B600B701D6
:1007A800B801B9013608BC073708BD3D3808BE3D59
:1007B8003908BF3D4708B600B701B801B901360886
:1007C800C2073708C33D3808C43D3908C53D08305D
:1007D800BC35BD0DBE0DBF0D890BEC2B2F08B60027
:1007E8003608F00032089231B22283317108400194
:1007F800C7007008C6004608BC074708BD3D003062
:10080800BE3DBF3D2E08B6003608F00033089231D1
:10081800B222833171084001C7007008C60046083B
:10082800BC074708BD3D0030BE3DBF3D0830BC3564
:10083800BD0DBE0DBF0D890B1B2C2E08B60036084A
:10084800F00032089231B222833171084001C700AA
:100858007008C6004608BC074708BD3D0030BE3DCD
:10086800BF3D2F08B6003608F00034089231B22296
:10087800833171084001C7007008C6004608C207E6
:100888004708C33D0030C43DC53D3008B6003608B2
:10089800F00033089231B222833171084001C70059
:1008A8007008C6004608C2074708C33D0030C43D6B
:1008B800C53D3008B6003608F00034089231B2223F
:1008C800833171084001C7007008C6004608B600A9
:1008D8004708B700B801B9010830B635B70DB80DEB
:1008E800B90D890B712C3608C2073708C33D380883
:1008F800C43D3908C53D3C08B6003D08B7003E0870
:10090800B8003F08B9001830B936B80CB70CB60CA7
:10091800890B882C3608C2073708C33D3808C43D00
:100928003908C53D0830BC35BD0DBE0DBF0D890B5E
:10093800972C41084007B600B701B70D3608823E2C
:10094800C600FF30373DC700C02C0130C235C30D8B
:10095800C40DC50D890BAA2CBF1FB32CB42CB52C04
:1009680042140130BC35BD0DBE0DBF0D890BB62C30
:10097800FF30C607FF30C73DC41FC32CC42CA92CA9
:10098800C001BF1FC82CC92CE52CFF303C05B600A0
:10099800FF303D05B700FF303E05B8007F303F050A
:1009A800B90039083804370436040319DC2CDD2C67
:1009B800E02CC001C00AE52C421CE32CE42CE52CF9
:1009C800DD2C40080319E92CEA2C122D0130C2074E
:1009D8000030C33D0030C43D0030C53D451CF52CFA
:1009E800F62C122D4208B6004308B7004408B80098
:1009F8004508B9000130BA00B937B80CB70CB60CC5
:100A0800BA0B002D3908C5003808C4003708C300E0
:100A18003608C2000130C6070030C73D4708803A93
:100A2800B60080303602031D1B2DFF304602031C22
:100A38001E2D1F2D292D7F304001C5008030C40098
:100A48000030C3000030C200582D40014708803AEA
:100A5800B60080303602031D332D013046020318DC
:100A6800362D372D422D00304001C5000030C4001E
:100A78000030C3000030C200BB01582D40014608B9
:100A8800B6003608C100FF30C205FF30C3057F300D
:100A9800C4050030C505411C522D532D542DC417D3
:100AA8004136B6003608C5003B08B6003608C5040E
:100AB8004508B1004408B0004308AF004208AE0042
:100AC800080040014B088039D0005008D8004B3549
:100AD800D0005008DA00CA1F722D732D742D5A14D5
:100AE8005A080319782D792D892D5A0A031D7D2D51
:100AF8007E2D862D0030CB000030CA000030C900A2
:100B08000030C800CA17CB01912D0030CB0000304F
:100B1800CA000030C9000030C8004F088039D00032
:100B28005008D9005908580603199B2D9C2D9D2D56
:100B380058174F35D0005008D900CE1FA42DA52D29
:100B4800A62D591459080319AA2DAB2DBB2D590AE6
:100B5800031DAF2DB02DB82D0030CF000030CE00D2
:100B68000030CD000030CC00CE17CF01C32D0030AF
:100B7800CF000030CE000030CD000030CC005A0845
:100B880059020318C82DC92D0D2E581FCC2DCD2D57
:100B9800D12D8030D0005008D8065A08D00050080F
:100BA800DB005908D0005008DA005B08D000500874
:100BB800D9004808D0005008DB004C08D000500885
:100BC800C8005B08D0005008CC004908D000500885
:100BD800DB004D08D0005008C9005B08D000500861
:100BE800CD004A08D0005008DB004E08D00050085D
:100BF800CA005B08D0005008CE004B08D00050084F
:100C0800DB004F08D0005008CB005B08D00050082C
:100C1800CF00DB015908D000D1015108D3005A0890
:100C28005002D200031CD3035308803AD40080300A
:100C38005402031D212E1A305202031C242E252E85
:100C48005D2E40014B084A0449044804031D2D2E1B
:100C58002F2E0130302E0030D0005008DB0000303D
:100C6800CB000030CA000030C9000030C800590865
:100C7800D0005008DA00642E5B1C432E442E4A2E06
:100C88005B360138D0005008DB004C2E0310DB0C1B
:100C9800481C4F2E502E512EDB170130D000CB3779
:100CA800CA0CC90CC80CD00B532E0130D000500808
:100CB800DA07400159085A02031C632E642E402E9D
:100CC800581B672E682EA02E5A08031D6C2E6D2EF9
:100CD800762E0030CB000030CA000030C90000304A
:100CE800C8009C2F4C08C8074D08C93D4E08CA3D8E
:100CF8004F08CB3D4B1C812E822E2C2F5B1C852E42
:100D0800862E8C2E5B360138D0005008DB008E2EE4
:100D18000310DB0C481C912E922E932EDB1701300A
:100D2800D000CB37CA0CC90CC80CD00B952E01309B
:100D3800D0005008DA072C2F4B08803AD0004F0813
:100D4800803A5002031DB22E4E084A02031DB22EED
:100D58004D084902031DB22E4C0848020318B52E4F
:100D6800B62EEE2EFF30D000FF30D100FF30D2007B
:100D7800FF30D30048084C02D40049084D3BD50049
:100D88004A084E3BD6004B084F3BD7005408D007C3
:100D98005508D13D5608D23D5708D33D5308CB00DE
:100DA8005208CA005108C9005008C8008030D00055
:100DB8005008D806DB09DB0A5B08031DE42EE52E84
:100DC800F62E0130C8070030C93D0030CA3D00305A
:100DD800CB3DF62E4C08C8024D08C93B4E08CA3B0D
:100DE8004F08CB3B4B084A0449044804031DFD2E19
:100DF800FE2E282F5B08031D022F032F282F0030FB
:100E0800CB000030CA000030C9000030C8009C2F59
:100E18000130C835C90DCA0DCB0D890B0D2FDB1F4D
:100E2800162F172F182F48145B1C1B2F1C2F1F2F32
:100E38000314DB0D212F0310DB0D5A080319252F8E
:100E4800262F282F0130DA02CA1F2B2F2C2F0C2F08
:100E5800D901DB1F302F312F3F2F5B087F39031952
:100E6800362F372F3A2FD901D90A3F2F481C3D2F4B
:100E78003E2F3F2F372F59080319432F442F712F27
:100E88000130C8070030C93D0030CA3D0030CB3DB5
:100E98004B1C4F2F502F712F4808D0004908D10004
:100EA8004A08D2004B08D3000130D400D337D20C03
:100EB800D10CD00CD40B5A2F5308CB005208CA00BF
:100EC8005108C9005008C8005A0A03196C2F6D2F21
:100ED800712F0130D0005008DA075A0A0319752F0C
:100EE800762F7B2F5A08031D7A2F7B2F892F0030EE
:100EF800CB000030CA000030C9000030C8005A08D2
:100F0800031D872F882F892FD8015A1C8C2F8D2FCE
:100F18008F2FCA17932F7F30D0005008CA055A3632
:100F2800D0005008CB00D81F9A2F9B2F9C2FCB178F
:100F3800080040019A01990196019701980107302C
:100F48009500FF309100BF309200FC309300FC30D8
:100F58009400FC307E01D900FC30CE003C30C30048
:100F68000730E400FF30B800DA01E501C401B90137
:100F7800CF01E601BA01C501D001DB01FF30BB009A
:100F8800FF30C600FF30D100FF30DC000730E7003B
:100F9800FF30BC00FF30C700FF30D200FF30DD005B
:100FA8000F30E8004A10CA104910C9104814C81474
:100FB8000C30F0001130F1009031A92087312A302F
:100FC800F0001130F1009031AF2087314E01161634
:100FD80009307E01A0000F307D01CB0010307E016A
:100FE8009E000A30A1000B30A8000C30A9000800B0
:101006004001200821042204230424042504260484
:10101600270403190F2810286328F101F10A1F2855
:10102600A035A10DA20DA30DA40DA50DA60DA70D0E
:101036000130F0007008F107A71F22282328132883
:1010460027082F02031D412826082E02031D4128CA
:1010560025082D02031D412824082C02031D4128C2
:1010660023082B02031D412822082A02031D4128BA
:1010760021082902031D412820082802031C4428B0
:10108600452855282008A8022108A93B2208AA3B82
:101096002308AB3B2408AC3B2508AD3B2608AE3BFA
:1010A6002708AF3BA736A60CA50CA40CA30CA20CD4
:1010B600A10CA00C0130F102031D6228632823282D
:1010C6002808A0002908A1002A08A2002B08A300CE
:1010D6002C08A4002D08A5002E08A6002F08A7009E
:1010E60008004001BB004101B91B7A287B287F28F4
:1010F600FD30BA05FF30BB053908803A4001B8001B
:1011060080303802031D8A28013041013802031855
:101116008D288E28942801304001B9000030BA008D
:101126009C28410139084001BA00410138084001B4
:10113600B900410137084001BD00410136084001B0
:10114600BC003008BE003108BF003208C0003308BA
:10115600C1003408C2003508C3003608C400370889
:10116600C5001F30C6000030C7004301CB011C2953
:10117600FF304001C607FF30C73D0A30A000A1017D
:10118600A201A301A401A501A601A7013E08A8008A
:101196003F08A9004008AA004108AB004208AC007D
:1011A6004308AD004408AE004508AF00883103206F
:1011B600883140012008303EB8004608AC3E860023
:1011C6000130870038088100FF30B907FF30BA3D8B
:1011D600FF30BC07FF30BD3D0A30A000A101A201CF
:1011E600A301A401A501A601A7013E08A8003F0886
:1011F600A9004008AA004108AB004208AC00430819
:10120600AD004408AE004508AF0094317124883122
:1012160040012008BE002108BF002208C0002308A4
:10122600C1002408C2002508C3002608C4002708F8
:10123600C5004001460847040319222923294F29DE
:101246003E083F0440044104420443044404450468
:10125600031D2E292F29BB283A08803AB800803072
:101266003802031D38290130390203183B293C296D
:10127600BB2840013D08803AB80080303802031D83
:10128600462901303C02031C49294A294F294101BC
:10129600BA184E294F29BB2840014608AC3EB80073
:1012A6003808A4003D08A6003C08A5003B08933179
:1012B600A323883140012508B1002408B0000800A6
:1012C600F2012030860000308700473FF000F01F13
:1012D6006D296E298F294001A009A109A209A30938
:1012E600A409A509A609A709A00A031D8D29A10A13
:1012F600031D8D29A20A031D8D29A30A031D8D290D
:10130600A40A031D8D29A50A031D8D29A60A031DFE
:101316008D29A70AF201F20A2830860000308700DC
:10132600473FF000F01F98299929BC294001A809D8
:10133600A909AA09AB09AC09AD09AE09AF09A80A02
:10134600031DB829A90A031DB829AA0A031DB8292D
:10135600AB0A031DB829AC0A031DB829AD0A031D43
:10136600B829AE0A031DB829AF0A0130F00070088B
:10137600F20673308600003087000830F000003037
:101386001E00F00BC3294001200821042204230477
:1013960024042504260427040319D229D3292F2A35
:1013A600F101F10AE229A035A10DA20DA30DA40DAC
:1013B600A50DA60DA70D0130F0007008F107A71FB7
:1013C600E529E629D629F335F40DF50DF60DF70DC9
:1013D600F80DF90DFA0D27082F02031D0C2A260811
:1013E6002E02031D0C2A25082D02031D0C2A240893
:1013F6002C02031D0C2A23082B02031D0C2A22088B
:101406002A02031D0C2A21082902031D0C2A200882
:101416002802031C0F2A102A212A2008A8022108C4
:10142600A93B2208AA3B2308AB3B2408AC3B250872
:10143600AD3B2608AE3B2708AF3B7314A736A60C78
:10144600A50CA40CA30CA20CA10CA00C0130F1025B
:10145600031D2E2A2F2AE62972080319332A342A55
:10146600522AF309F409F509F609F709F809F90901
:10147600FA09F30A031D522AF40A031D522AF50A31
:10148600031D522AF60A031D522AF70A031D522A81
:10149600F80A031D522AF90A031D522AFA0A73088A
:1014A6004001A0007408A1007508A2007608A300F8
:1014B6007708A4007808A5007908A6007A08A7008E
:1014C600080043304001CB00FF30CA008030C9001D
:1014D6000030C8006708CF006608CE006508CD005A
:1014E6006408CC00853165258A3140014B084101ED
:1014F600A70040014A084101A600400149084101F0
:10150600A500400148084101A40040016708DF002A
:101516006608DE006508DD006408DC004330E30091
:10152600FF30E2008030E1000030E00092316F22AF
:101536008A3140015F084101A30040015E08410174
:10154600A20040015D084101A10040015C08410183
:10155600A0002708F3002608F2002508F100240859
:10156600F0004330F700FF30F6008030F500003021
:10157600F4009431F5248A31031CC22AC32ACD2AE9
:1015860043304101A700FF30A6008030A50000309F
:10159600A400EE2A4330F300FF30F2008030F10061
:1015A6000030F00041012708F7002608F60025085C
:1015B600F5002408F4009431F5248A31031CE42A4A
:1015C600E52AEE2A00304101A7000030A6000030CF
:1015D600A5000030A40041012308F3002208F20010
:1015E6002108F1002008F0004330F700FF30F60034
:1015F6008030F5000030F4009431F5248A31031C64
:10160600052B062B102B43304101A300FF30A2000F
:101616008030A1000030A000312B0030F3000030F4
:10162600F2000030F1000030F00041012308F7001D
:101636002208F6002108F5002008F4009431F5246C
:101646008A31031C272B282B312B00304101A300A4
:101656000030A2000030A1000030A00041012708A0
:10166600F7002608F6002508F5002408F400933153
:10167600FC238A3175084001A3007408A200913149
:10168600CD218A310030F000F100913168218A3194
:1016960041012308F7002208F6002108F50020087A
:1016A600F4009331FC238A3175084001A3007408C5
:1016B600A2009131E6218A310030F000F10091312B
:1016C6007B218A3108004001E5004E08860087012B
:1016D600403FD000413FD1005008840051088500AA
:1016E6001200253A031D782B792B622C4E088600B2
:1016F60087010130810741310318810A4101B60192
:10170600B701BA01BB01FF30B800FF30B900400194
:101716004E0886008701403FD000413FD100500867
:101726008400510885001200643A03199B2B9C2BF8
:10173600AD2B4E0886008701403FD000413FD100C7
:1017460050088400510885001200693A031DAC2B2D
:10175600AD2BE82B4E088600870101308107413109
:101766000318810A4F088600870101088400850155
:1017760002308107003FD000013FD1005008D5005C
:101786005108D600890D893B8909D700D800D900B0
:10179600DA00DB00DC005508B0005608B100570837
:1017A600B2005808B3005908B4005A08B5005B08DF
:1017B600B6005C08B70065088C3186248B31400181
:1017C6003108CF003008CE00852C4E0886008701F0
:1017D600403FD000413FD1005008840051088500A9
:1017E6001200753A031DF82BF92B2D2C4E08860096
:1017F60087010130810741310318810A4F088600AD
:10180600870101088400850102308107003FDD0061
:10181600013FDE00DF01E001E101E201E301E40155
:101826005D08B0005E08B1005F08B2006008B30052
:101836006108B4006208B5006308B6006408B70022
:101846006508883174208B3140013108CF0030089B
:10185600CE00852C4E0886008701403FD000413FD0
:10186600D10050088400510885001200253A031D56
:101876003D2C3E2C572C4E088600870101308107EF
:1018860041310318810A2530F2000030F300650863
:10189600D0005008F400933164238B3101304001AD
:1018A600CE000030CF00852C4E088600870101301F
:1018B600810741310318810ACE01CF01852C4E08DC
:1018C60086008701403FD000413FD1005008840088
:1018D600510885000008D200D3015208F2005308CF
:1018E600F3006508D4005408F400933164238B3167
:1018F60040014E08860087010130810741310318F7
:10190600810A512C08004001BF003008C40031088C
:10191600C5003208C6003308C7003408C8003508B9
:10192600C9003608CA003708CB00443086000030AC
:101936008700473FB800B81BA12CA32C0130A42C6C
:1019460000304001B900BA013908C2003A08C300A4
:10195600420843040319B02CB12CCF2CC409C50985
:10196600C609C709C809C909CA09CB09C40A031D9A
:10197600CF2CC50A031DCF2CC60A031DCF2CC70AC0
:10198600031DCF2CC80A031DCF2CC90A031DCF2C5B
:10199600CA0A031DCF2CCB0A4101B91BD32CD42C68
:1019A600D82CFD30BA05FF30BB053908803A400116
:1019B600B80080303802031DE32C013041013802A3
:1019C6000318E62CE72CED2C01304001BD00003059
:1019D600BE00F52C410139084001BE00410138081E
:1019E6004001BD00410137084001C10041013608F0
:1019F6004001C00042084304031D022D032D082D9B
:101A060041013A1D072D082D0D2DFF304001C0075D
:101A1600FF30C13D1F304001CC000030CD004301F6
:101A2600CB017E2DFF304001CC07FF30CD3D0A3083
:101A3600A000A101A201A301A401A501A601A7017D
:101A46004408A8004508A9004608AA004708AB00B4
:101A56004808AC004908AD004A08AE004B08AF0084
:101A660096312C268C3140012108F4002008F30021
:101A76009131FF218C317308303E4001B8004C088B
:101A8600AC3E86000130870038088100FF30BD0774
:101A9600FF30BE3DFF30C007FF30C13D0A30A00019
:101AA600A101A201A301A401A501A601A701440861
:101AB600A8004508A9004608AA004708AB00480840
:101AC600AC004908AD004A08AE004B08AF008931AA
:101AD60063218C3140012008C4002108C50022087A
:101AE600C6002308C7002408C8002508C900260820
:101AF600CA002708CB0040014D08803AB800803064
:101B06003802031D882D01304C02031C8B2D8C2DB1
:101B1600B92D4001440845044604470448044904D5
:101B26004A044B04031D982D992D152D3E08803A25
:101B3600B80080303802031DA22D01303D02031883
:101B4600A52DA62D152D40014108803AB8008030FC
:101B56003802031DB02D01304002031CB32DB42DF5
:101B6600B92D4101BA18B82DB92D152D40014208DD
:101B76004304031DBF2DC02DC52D41013A1DC42DA3
:101B8600C52DE22DFF304001CC07FF30CD3D420888
:101B96004304031DCF2DD02DD52D2B30BB00003097
:101BA600BC00D92D2D30BB000030BC003B08B8006E
:101BB6004C08AC3E860001308700380881004001A1
:101BC6004C08AC3EB8003808A4004108A6004008FE
:101BD600A5003F089331A3238C3140012508B100AD
:101BE6002408B000080040016B0880394101CB0091
:101BF6004B08D40040016B354101CB004B08DB009C
:101C06004001EA1F072E082E0A2E41015B144101EE
:101C16005B0803190F2E102E222E5B0A031D142EAD
:101C2600152E1E2E00304001EB000030EA00003079
:101C3600E9000030E8004001EA17EB012B2E0030E6
:101C46004001EB000030EA000030E9000030E80017
:101C5600670880394101CB004B08D406400167353F
:101C66004101CB004B08DC004001E61F3B2E3C2E19
:101C76003E2E41015C1441015C080319432E442E9B
:101C8600562E5C0A031D482E492E522E0030400166
:101C9600E7000030E6000030E5000030E4004001D7
:101CA600E617E7015F2E00304001E7000030E6004E
:101CB6000030E5000030E40067086604650464044B
:101CC600031D662E672E822E0030EB000030EA00E0
:101CD6000030E9000030E8008030EA047F30EB0491
:101CE60041015408CB004B084001EB046B08E700A8
:101CF6006A08E6006908E5006808E400FF2F41016C
:101D06005B08031D872E882E922E00304001E700C7
:101D16000030E6000030E5000030E400FF2F5B08ED
:101D2600CB00CC014C08CE005C084B02CD00031C56
:101D3600CE034D087F3ED50000304E3DD600400113
:101D46006B084101D30040016A084101D2004001FD
:101D560069084101D100400168084101D000003006
:101D66004001EB000030EA000030E9000030E800F6
:101D760000304101DA000030D9000030D8000030D0
:101D8600D700DC01182F5C080319CA2ECB2EE92ECA
:101D96000130D035D10DD20DD30D890BCC2E0130AB
:101DA6004001E835E90DEA0DEB0D890BD32E410113
:101DB600DA1FDE2EDF2EE12E4001681401304101CC
:101DC600D735D80DD90DDA0D890BE22E40016708FB
:101DD60041015302031DFF2E4001660841015202D4
:101DE600031DFF2E4001650841015102031DFF2E10
:101DF6004001640841015002031C022F032F142FD7
:101E06005A17400164084101D002400165084101AA
:101E1600D13B400166084101D23B400167084101C0
:101E2600D33B0130CB004B08DC071A305C02031CA5
:101E36001D2F1E2FC62E5308520451045004031999
:101E4600252F262F422F5714422F0130E835E90D52
:101E5600EA0DEB0D890B292F4101DA1F332F342FA1
:101E6600362F4001681401304101D735D80DD90D00
:101E7600DA0D890B372FFF30D507FF30D63D4001ED
:101E8600EA1F462F472F282F4101DC01DA1F4C2F6E
:101E96004D2F6B2FFF305705CB00FF305805CC0078
:101EA600FF305905CD007F305A05CE004E084D044F
:101EB6004C044B040319602F612F652F4101DC018F
:101EC600DC0A6B2F4001681C692F6A2F6B2F612F6C
:101ED60041015C080319702F712FA92F01304001B1
:101EE600E8070030E93D0030EA3D0030EB3D6B1C71
:101EF6007D2F7E2FA92F68084101CB00400169087C
:101F06004101CC0040016A084101CD0040016B0847
:101F16004101CE000130CF00CE37CD0CCC0CCB0C1E
:101F2600CF0B8F2F4E084001EB0041014D084001B9
:101F3600EA0041014C084001E90041014B0840011B
:101F4600E80001304101D5070030D63D4101560871
:101F5600803ACB0080304B02031DB32FFF30550271
:101F6600031CB62FB72FC52FFF304101D500003017
:101F7600D60000304001EB000030EA000030E900F6
:101F86000030E80041015608803ACB0080304B0211
:101F9600031DCF2F013055020318D22FD32FE12F67
:101FA6004101D501D60100304001EB000030EA00C6
:101FB6000030E9000030E8004101D4014101550834
:101FC600CB004B08DB005B1CE92FEA2FED2F40010D
:101FD600EA17F22F7F30CB004B084001EA0541019A
:101FE6005B36CB004B084001EB0041015408CB00A7
:0A1FF6004B084001EB04792E0800AF
:10212E0071084101C1007008C0000800710841012A
:10213E00C5007008C400080071084101C300700892
:10214E00C200080071084101ED007008EC000800A3
:10215E0071084101EB007008EA000800F1007108F7
:10216E009031C92090310800640080010131890B43
:10217E00BC2800344F0196019701980199019A01EC
:10218E009B010800F0004E010F1ECE28CF28CA2852
:10219E00700842019A0008008F3046018E008D01B2
:1021AE008C0144011E08FC3901389E0008008F3056
:1021BE00460192009101900144011E08F339043842
:1021CE009E0008008F30460196009501940144014F
:1021DE001E08CF3910389E0008008F3046019A0035
:1021EE009901980144011E083F3940389E000800AD
:1021FE00103051018D008F01910105309300920135
:10220E00101C0A290B2907290800A0300032890B5F
:10221E000D2940010D1C142915291A2901304101DF
:10222E00C8070030C93D080041016C086D04031950
:10223E002129222927296D088A006C080A0091316C
:10224E007E014A100800A0300032890B2B29400174
:10225E008D1C32293329382901304101C60700303F
:10226E00C73D080041016A086B0403193F29402944
:10227E0045296B088A006A080A0091317E01CA104E
:10228E00080001304501900020308F009101F93097
:10229E008D008C014E019010D03045018E0008004B
:1022AE007E014A1C5B295C295F2991311B219131EA
:1022BE007E01CA1C63296429672991313921913124
:1022CE000800FF30F0050330F1054601121E70299B
:1022DE00712976290630F035F10D890B72297108B6
:1022EE009100700890000800FF30F0050330F105F2
:1022FE0046011A1E8329842989290630F035F10DED
:10230E00890B8529710899007008980008004930DA
:10231E0040019F00FF309D00FF309C001D084101D1
:10232E00BF0040011C084101BE004E018C129F30BF
:10233E0040019E000800F300F201731CA729A82992
:10234E00AC297008F1007108F2070310F00D0310AC
:10235E00F30C7308031DB429B529A42972080800CB
:10236E00CD304001EE006E084101D9004C0840010D
:10237E00E70041014B084001E600D930EE006E083F
:10238E00E80000309231FE2291310800FF3040010A
:10239E00A2050330A30546010E1ED629D729DD2935
:1023AE0006304001A235A30D890BD929400123081F
:1023BE0046018D004001220846018C000800FF30C6
:1023CE004001A2050330A3054601161EEF29F02990
:1023DE00F62906304001A235A30D890BF2294001E2
:1023EE00230846019500400122084601940008008A
:1023FE007408803AF50080307502031D082A0130FA
:10240E00730203180B2A0C2A182A7309F500740993
:10241E00F600F50A0319F60A7508F3007608F400BB
:10242E00182A0800F4007408F2007208F300232A38
:10243E000130F2007208F40774088600013087003C
:10244E000108031D2B2A2C2A1F2A73087402F00080
:10245E00F101F01BF103080040011C08F2007208A4
:10246E00F9001D08F2007208FA007908F200F30173
:10247E007A08F400F5017408F500F4017208740787
:10248E00F7007308753DF8007808F1007708F00042
:10249E0008009031C120923187319D2792319031C1
:1024AE00FF2092319031D32092319031DE20923143
:1024BE009031F42092319031E920923191314821BE
:1024CE00923191318E21923192318F2292310800C8
:1024DE0080304001DF066308CB006208CA00610845
:1024EE00C9006008C8005F08CF005E08CE005D0816
:1024FE00CD005C08CC0085316525923140014B083A
:10250E00DF004A08DE004908DD004808DC0008004C
:10251E00083042019F0090309D0024309E004030D4
:10252E009B0003309C000030F0000030F100903131
:10253E009D2092310030F0000030F1009031A32048
:10254E0092310030F0000030F1009031972092313E
:10255E004101CA010800F800F401F5017008F2000B
:10256E00F3017208F6007308F700781CBF2AC02A20
:10257E00C42A7608F4077708F53D0130F635F70DD5
:10258E00890BC52A0310F80C7808031DCF2AD02A10
:10259E00BC2A7508F1007408F00008004001A30081
:1025AE00A101A201ED2A2008FB00FC017B08F2002C
:1025BE007C08F3007A08FD007D08F4009331642353
:1025CE00923101304001A1070030A23D21082307BE
:1025DE00FB007B088600013087000108FC007C08A8
:1025EE00A0002008031DFC2AFD2ADA2A080040015B
:1025FE00EB006708ED006608EC004101B401B5017F
:10260E001C2B6C30E9006908CE006808EA006A08E5
:10261E00CF006B088B316623923140014E08410189
:10262E00B40740014F084101B53D40016C088400DC
:10263E006D0885001200031D252B262B082B41014A
:10264E0035084001E700410134084001E60008006A
:10265E003A304001B1008330B0001230AF006F301D
:10266E00AE0092313322933170084001CC007108D4
:10267E00CD00CE01CF014F08A3004E08A2004D0899
:10268E00A1004C08A000003095317F259331400108
:10269E002308B5002208B4002108B3002008B200B8
:1026AE0083310E23933140013108CB003008CA002C
:1026BE002F08C9002E08C800080074080319682BDB
:1026CE00692B6E2B7408031D6D2B6E2B732B7208EA
:1026DE009031B5209331A22B7408033E86008701FA
:1026EE001600010403197C2B7D2B9A2B7408033ED4
:1026FE0086008701403FF500413FF600740A8600D0
:10270E008701403FF700413FF8007808803AF90012
:10271E007608803A7902031D962B75087702031806
:10272E00992B9A2BA22B740A860087010130810700
:10273E0041310318810A08004001AC0041013A1CE6
:10274E00A92BAA2BB32B40012C08A7002708FA00AF
:10275E0024089231D52293314001A61BB72BB82BFA
:10276E00BD2B2608AB002508AA00BF2BAA01AB0182
:10277E00A801A901D32B2030F2000030F300400154
:10278E002C08A7002708F4009331642393310130FD
:10279E004001A8070030A93D2908803AA7002B0860
:1027AE00803A2702031DDD2B2A082802031CE02B8A
:1027BE00E12BC22B41013A18E52BE62BEF2B400102
:1027CE002C08A7002708FA0024089231D52293314D
:1027DE004001240892311922933140012A087007D2
:1027EE00A4002B08713DA50008000310760D770D8F
:1027FE00F80078084001A1002108031D072C082CC1
:10280E00112C0030F7000030F6000030F5000030DB
:10281E00F400702C7408F8007508F9007608FA00B8
:10282E007708FB001F30FB36FA0CF90CF80C890BFD
:10283E001A2C7808FC007C08A000F617FF30F4056F
:10284E00FF30F505FF30F6050030F7059630A10292
:10285E00A11F322C332C4B2C2108803A973E0318A3
:10286E00392C3A2C3B2C082C0130F736F60CF50C93
:10287E00F40C890B3C2C0130F8007808A107031DDD
:10288E00492C4A2C3B2C602C20302102031C502C4E
:10289E00512C5B2C082C0130F435F50DF60DF70D8F
:1028AE00890B532C0130A1022108031D5F2C602CD3
:1028BE00522C20080319642C652C702CF409F50990
:1028CE00F609F709F40A0319F50A0319F60A0319AA
:1028DE00F70A080071308600003087000830F000DB
:1028EE0000301E00F00B782C400120082104220439
:1028FE00230424042504260427040319872C882C7A
:10290E00E42CF901F90A972CA035A10DA20DA30D07
:10291E00A40DA50DA60DA70D0130F0007008F90746
:10292E00A71F9A2C9B2C8B2CF135F20DF30DF40D69
:10293E00F50DF60DF70DF80D27082F02031DC12C0E
:10294E0026082E02031DC12C25082D02031DC12CA5
:10295E0024082C02031DC12C23082B02031DC12C9D
:10296E0022082A02031DC12C21082902031DC12C95
:10297E0020082802031CC42CC52CD62C2008A80223
:10298E002108A93B2208AA3B2308AB3B2408AC3BF9
:10299E002508AD3B2608AE3B2708AF3B7114A73682
:1029AE00A60CA50CA40CA30CA20CA10CA00C01301F
:1029BE00F902031DE32CE42C9B2C7108A000720875
:1029CE00A1007308A2007408A3007508A40076087D
:1029DE00A5007708A6007808A7000800003070054B
:1029EE00F80000307105F90080307205FA007F3072
:1029FE007305FB007B087A0479047804031D082D07
:102A0E00092D112D0030F3000030F2000030F100DE
:102A1E000030F00000307405F80000307505F90044
:102A2E0080307605FA007F307705FB007B087A044C
:102A3E0079047804031D242D252D2D2D0030F7004B
:102A4E000030F6000030F5000030F400F31F302D9A
:102A5E00312D492D0030F8000030F9000030FA0019
:102A6E008030FB007008F8027108F93B7208FA3BDF
:102A7E007308FB3B7B08F3007A08F2007908F1003B
:102A8E007808F000F71F4C2D4D2D652D0030F80005
:102A9E000030F9000030FA008030FB007408F802B4
:102AAE007508F93B7608FA3B7708FB3B7B08F70085
:102ABE007A08F6007908F5007808F4008030F306FD
:102ACE008030F70677087302031D772D76087202A1
:102ADE00031D772D75087102031D772D7408700282
:102AEE0003187A2D7B2D7D2D03107E2D03140800E7
:102AFE004001A80028080319852D862D9A2DA31FA5
:102B0E00892D8A2D9A2D2009AA002109AB002209B0
:102B1E00AC002309AD00AA0A0319AB0A0319AC0ACB
:102B2E000319AD0AA22D2308AD002208AC0021081E
:102B3E00AB002008AA002308220421042004031D50
:102B4E00A92DAA2DB32D0030A3000030A200003015
:102B5E00A1000030A0002B2E9630A4002408A9005E
:102B6E00C32D0130A4002408A9070130AD36AC0CEA
:102B7E00AB0CAA0C890BBD2DFE302D05031DC82DE7
:102B8E00C92DB82DDD2D0130A4002408A907013070
:102B9E00AA070030AB3D0030AC3D0030AD3D0130FA
:102BAE00AD36AC0CAB0CAA0C890BD72DFF302D0516
:102BBE00031DE22DE32DCA2DED2D0130A9020130AA
:102BCE00AA35AB0DAC0DAD0D890BE72DAC1BF02D61
:102BDE00F12DF72D023029020318F62DF72DE42DD5
:102BEE002918FA2DFB2D032EFF30AA05FF30AB0559
:102BFE007F30AC05FF30AD050310A90C2908A400E9
:102C0E00A501A601A7011830A435A50DA60DA70D87
:102C1E00890B0B2E2408AA042508AB042608AC0445
:102C2E002708AD04280803191D2E1E2E232EA31FC0
:102C3E00212E222E232EAD172D08A3002C08A20024
:102C4E002B08A1002A08A0000800F20128308600F7
:102C5E0000308700473FF000F01F362E372E582EDB
:102C6E004001A809A909AA09AB09AC09AD09AE0929
:102C7E00AF09A80A031D562EA90A031D562EAA0A2D
:102C8E00031D562EAB0A031D562EAC0A031D562EDF
:102C9E00AD0A031D562EAE0A031D562EAF0AF201C3
:102CAE00F20A2030860000308700473FF000F01F08
:102CBE00612E622E812E4001A009A109A209A3094D
:102CCE00A409A509A609A709A00A031D812EA10A18
:102CDE00031D812EA20A031D812EA30A031D812E20
:102CEE00A40A031D812EA50A031D812EA60A031D0B
:102CFE00812EA70A40012008210422042304240463
:102D0E0025042604270403198D2E8E2EE12EF101A3
:102D1E00F10A9D2EA035A10DA20DA30DA40DA50D9A
:102D2E00A60DA70D0130F0007008F107A71FA02E09
:102D3E00A12E912E27082F02031DBF2E26082E022C
:102D4E00031DBF2E25082D02031DBF2E24082C02A5
:102D5E00031DBF2E23082B02031DBF2E22082A029D
:102D6E00031DBF2E21082902031DBF2E2008280295
:102D7E00031CC22EC32ED32E2008A8022108A93B65
:102D8E002208AA3B2308AB3B2408AC3B2508AD3BED
:102D9E002608AE3B2708AF3BA736A60CA50CA40C05
:102DAE00A30CA20CA10CA00C0130F102031DE02E0D
:102DBE00E12EA12E72080319E52EE62E042FA80986
:102DCE00A909AA09AB09AC09AD09AE09AF09A80A50
:102DDE00031D042FA90A031D042FAA0A031D042F85
:102DEE00AB0A031D042FAC0A031D042FAD0A031DED
:102DFE00042FAE0A031D042FAF0A40012808A000BD
:102E0E002908A1002A08A2002B08A3002C08A40060
:102E1E002D08A5002E08A6002F08A7000800923145
:102E2E00502297318B170B1700304001A200A300E0
:102E3E009131CD2197310030F000F10091316821B0
:102E4E00973100304001A200A3009131E621973165
:102E5E000030F000F10091317B2197315230410169
:102E6E00E9002B30E8000030890B3B2FE80B3B2F9D
:102E7E00E90B3B2F000042304201A5002030A40098
:102E8E000030A3000030A2003F30A9007330A8002C
:102E9E003330A7003330A6003C30AD007530AC00A7
:102EAE00C230AB008F30AA00FF304001A2000130CB
:102EBE00A3009131CD2197310030F000F100913116
:102ECE0068219731FF304001A2000130A3009131FB
:102EDE00E62197310030F000F10091317B219731DE
:102EEE000E304101CB009830CC00B530CD00003013
:102EFE00CE009131B721973105304101E9000F30F5
:102F0E00E800F130890B892FE80B892FE90B892F07
:102F1E00410146084802BC004708493BBD0046082F
:102F2E004807E8004708493DE900E936E80C68081B
:102F3E00B0006908B100B201B3013308031DB22F0E
:102F4E003208031DB22F3108031DB22FB5303002E7
:102F5E000318B22FB32FE32F3D08DE003C08DD002F
:102F6E000030DF00E000E101803132209731410175
:102F7E006008AF005F08AE005E08AD005D08AC00F3
:102F8E000030CB009830CC004908CE004808CD0068
:102F9E004708D0004608CF003D08D2003C08D100BB
:102FAE002F08D6002E08D5002D08D4002C08D300EB
:102FBE009131B7219731832F00304001A200A30039
:102FCE009131CD2197310030F000F100913168211F
:102FDE00973100304001A200A3009131E6219731D4
:102FEE000030F000F10091317B219731832F803139
:102FFE001428253464342C34253464342C3425348C
:10300E0069342C34253469340D340A3400342534B3
:08301E0075340D340A3400344E
:020000040001F9
:0A000E009C3FFD3F9F3FFF1FFF3F97
:00000001FF
