:020000040000FA
:08000000803102288731F52F41
:100C760071084001C9007008C800080071084001E9
:100C8600CD007008CC00080071084001CB00700848
:100C9600CA000800F1007108863161268631080015
:100CA600640080010131890B542E00344F019601F6
:100CB6009701980199019A019B010800F0004E01E5
:100CC6000F1E662E672E622E700842019A000800DB
:100CD600103051018D008F01910105309300920172
:100CE600101C762E772E732E0800863159268631F3
:100CF60087313B27863186316B2686318631B12690
:100D0600863108005E30FD007D084001E0005D0888
:100D1600D5005C08D4006030FD007D08D6000030A8
:100D26008631D42686310800863178268631003011
:100D36004001DC008830DD00863185268631293089
:100D46004001E2009630E1007F30890BA82EE10BCE
:100D5600A82EE20BA82E9A2E8031022808304201D6
:100D66009F0090309D0024309E0040309B00033051
:100D76009C000030F0000030F100863141268631BB
:100D86000030F0000030F100863147268631003011
:100D9600F0000030F10086313B2686314001CE015D
:100DA60008004001D9005508DB005408DA00C001EC
:100DB600C101EE2E5A30D7005708FA005608D8005F
:100DC6005808FB00590887317B2786317A0840018D
:100DD600C0077B08C13D5A0884005B0885001200E5
:100DE600031DF62EF72EDD2E4108D5004008D4004F
:100DF600080074080319002F012F062F7408031D1D
:100E0600052F062F0B2F720886314D2686313A2F75
:100E16007408033E86008701160001040319142F87
:100E2600152F322F7408033E86008701403FF500D8
:100E3600413FF600740A86008701403FF700413FB4
:100E4600F8007808803AF9007608803A7902031D9E
:100E56002E2F750877020318312F322F3A2F740A76
:100E6600860087010130810741310318810A080095
:100E760040019A0199019601970198010730950062
:100E8600FF309100BF309200FF309300FF30940096
:100E9600FF307E01D900FF30CE003F30C30007305F
:100EA600E400FF30B800DA01E501C401B901CF0161
:100EB600E601BA01C501D001DB01FF30BB00FF30FE
:100EC600C600FF30D100FF30DC000730E700FF30FE
:100ED600BC00FF30C700FF30D200FF30DD000F300E
:100EE600E8000F307D01CB0010307E019E00080027
:100EF600FC007A0886008701403F4001CF00413F51
:100F0600D0004F088400500885001200253A031DC2
:100F16008D2F8E2FD22F7A08860087010130810708
:100F260041310318810AC201C301C601C701FF305E
:100F3600C400FF30C5007A0886008701403FCF0015
:100F4600413FD0004F088400500885001200253A22
:100F5600031DAE2FAF2FC72F7A08860087010130F9
:100F6600810741310318810A2530F2000030F30071
:100F76007C08CF004F08F4008631FC26873101300B
:100F8600FA000030FB00F42F7A0886008701013052
:100F9600810741310318810AFA01FB01F42F7A080F
:100FA60086008701403FCF00413FD0004F088400B4
:100FB600500885000008D100D2015108F2005208FD
:100FC600F3007C08D3005308F4008631FC268731F1
:100FD6007A08860087010130810741310318810AAA
:100FE600C22F080020308400003085002F30863163
:100FF6005326873140018631972E483465346C3448
:101006006C346F34203457346F3472346C34643437
:0A101600213421340D340A34003473
:020000040001F9
:0A000E009C3FFD3F9F3FFF1FFF3F97
:00000001FF
